:10000000803102288731DB2F08000310720D730D39
:10001000F9007908031D0D280E2817280030F30079
:100020000030F2000030F1000030F0007428700859
:10003000F4007108F5007208F6007308F7001F302D
:10004000F736F60CF50CF40C890B20287408F80030
:10005000F217FF30F005FF30F105FF30F2050030F8
:10006000F3059630F902F91F362837284F2879080A
:10007000803A973E03183D283E283F280E2801303D
:10008000F336F20CF10CF00C890B40280130F4002F
:100090007408F907031D4D284E283F286428203096
:1000A0007902031C542855285F280E280130F035AA
:1000B000F10DF20DF30D890B57280130F902790883
:1000C000031D6328642856287808031968286928BE
:1000D0007428F009F109F209F309F00A0319F10A89
:1000E0000319F20A0319F30A08002000BB003008C4
:1000F000C0003108C1003208C2003308C300340810
:10010000C4003508C5003608C6003708C7004030AF
:10011000860000308700473FB800B81B902892281F
:100120000130932800302000CA004A08031999289A
:100130009A28B828C009C109C209C309C409C50958
:10014000C609C709C00A031DB828C10A031DB8287B
:10015000C20A031DB828C30A031DB828C40A031D18
:10016000B828C50A031DB828C60A031DB828C70A3F
:1001700022006D08803A2000B80080303802031D4C
:10018000C428013022006C020318C728C828CE28D2
:1001900001302000BC000030BD00D62822006D08D0
:1001A0002000BD0022006C082000BC0022006B086B
:1001B0002000BF0022006A082000BE004A08031980
:1001C000E228E328F728FF30BE07FF30BF3D4A088A
:1001D000031DEB28EC28F1282B30B9000030BA00C1
:1001E000F5282D30B9000030BA003908CA004F3068
:1001F000C8000030C9002400EF016729FF3020004B
:10020000C807FF30C93D0A30A000A101A201A30127
:10021000A401A501A601A7014008A8004108A90062
:100220004208AA004308AB004408AC004508AD00F2
:100230004608AE004708AF009131342180312000DC
:100240002108F4002008F3009A3135228031730828
:10025000303E2000B8004808203E8600023087006B
:1002600038088100FF30BC07FF30BD3DFF30BE07BE
:10027000FF30BF3D0A30A000A101A201A301A401EB
:10028000A501A601A7014008A8004108A90042084D
:10029000AA004308AB004408AC004508AD0046087E
:1002A000AE004708AF0093310923803120002008B9
:1002B000C0002108C1002208C2002308C30024088E
:1002C000C4002508C5002608C6002708C70020006E
:1002D0004908803AB80080303802031D7129013086
:1002E0004802031C742975298F2920004008410405
:1002F000420443044404450446044704031D812981
:100300008229FE283D08803AB80080303802031D5B
:100310008B2901303C0203188E298F29FE282000EA
:100320004A08031994299529A029FF30C807FF30EE
:10033000C93D4808203E8600023087004A088100F7
:100340004808203EFB003F08FD003E08FC003B083B
:100350009B31F723803108002100B300C601200043
:100360006B082100CC0020006A082100CB0020008F
:1003700069082100CA00200068082100C9004C0853
:100380002000BD0021004B082000BC0021004A08CD
:100390002000BB00210049082000BA000030C10045
:1003A0000030C0000030BF000030BE009E31442647
:1003B00081310318DC29DD29F4292100C601C60A90
:1003C0004C08F3004B08F2004A08F1004908F0001D
:1003D0009931E621813173082100CC007208CB00ED
:1003E0007108CA007008C9002100C701C8012200B5
:1003F0006B082100B70022006A082100B6004608F9
:100400000319032A042A142A4608031D082A092A64
:100410000E2A2B30AA000030AB00122A2D30AA0081
:100420000030AB002A08C6004C08F3004B08F2006D
:100430004A08F1004908F0009D31C525813170035B
:100440007104031D242A252A502A21004608031975
:100450002A2A2B2A372A46082400A000FF30210030
:10046000B607FF30B73D0130C7000030C800863006
:10047000F0009830F1004708203E9A316E22813119
:10048000FD302100B607FF30B73D2030FB003708B4
:10049000FD003608FC0033089B31F7238131DA2F49
:1004A00021004C08F3004B08F2004A08F10049080B
:1004B000F0009D31C525813170087104031D612A4A
:1004C000622A8D2A210046080319672A682A742A9D
:1004D00046082400A000FF302100B607FF30B73DDA
:1004E0000130C7000030C8008A30F0009830F100B9
:1004F0004708203E9A316E228131FD302100B60737
:10050000FF30B73D2030FB003708FD003608FC0007
:1005100033089B31F7238131DA2F3F302100D0009F
:100520008030CF000030CE000030CD00B401B501E6
:100530004C08F3004B08F2004A08F1004908F000AB
:100540000030F7000030F6000030F5000030F40015
:100550009C316D2481310318AE2AAF2AEB2BBD2AC2
:1005600021003B08D0003A08CF003908CE003808F7
:10057000CD000130B4070030B53D41302000A3006C
:100580002030A2000030A1000030A000210050085F
:100590002000A70021004F082000A60021004E08DF
:1005A0002000A50021004D082000A4008931D2219F
:1005B0008131200023082100BB00200022082100F7
:1005C000BA00200021082100B900200020082100E5
:1005D000B80038084902A00039084A3BA1003A088F
:1005E0004B3BA2003B084C3BA3002308F30022082E
:1005F000F2002108F1002008F0009B312F23813107
:10060000F31B102B7308031D112B7208031D112BF4
:100610007108031D112B02307002031C102B112BCB
:10062000B02A21003B082000BD0021003A0820002C
:10063000BC00210039082000BB0021003808200040
:10064000BA0021004C082000C10021004B08200006
:10065000C00021004A082000BF00210049082000F6
:10066000BE009E3144268131031C372B382BB02A23
:1006700021004D084902A0004E084A3BA1004F0846
:100680004B3BA20050084C3BA3002308F300220878
:10069000F2002108F1002008F0009B312F23813166
:1006A000F31B612B7308031D602B7208031D602B65
:1006B0007108031D602B023070020318602B612B40
:1006C000C42B21005008CC004F08CB004E08CA00B4
:1006D0004D08C900EB2B41302000BD002030BC008C
:1006E0000030BB000030BA00210050082000C100DB
:1006F00021004F082000C00021004E082000BF004C
:1007000021004D082000BE008831282081312000C2
:100710003D082100D00020003C082100CF0020002F
:100720003B082100CE0020003A082100CD00FF3018
:10073000B407FF30B53D4D084902A0004E084A3BC2
:10074000A1004F084B3BA20050084C3BA3002308DC
:10075000F3002208F2002108F1002008F0009B318C
:100760002F238131F31BC32B7308031DC22B720887
:10077000031DC22B7108031DC22B02307002031827
:10078000C22BC32BC42B612B21004C082000BD00C1
:1007900021004B082000BC0021004A082000BB00BB
:1007A000210049082000BA00210050082000C100A3
:1007B00021004F082000C00021004E082000BF008B
:1007C00021004D082000BE009E3144268131031CCB
:1007D000EA2BEB2B6B2B20006C082100AD002D08C1
:1007E000AE002200ED1BF52BF62BFE2B6D08210031
:1007F000A70022006C082100A600032C063021006F
:10080000A6000030A7002708B2002608B10001307A
:10081000B1070030B23D66302E06031D102C112C9E
:10082000292CB51F142C152C1F2C3F30D0008030E4
:10083000CF000030CE000030CD00B401B5016730EC
:100840002D060319242C252C292C3408B107350832
:10085000B23DBC01BD014C08C1004B08C0004A08B4
:10086000BF004908BE005008BB004F08BA004E0840
:10087000B9004D08B800092D210050082000BD0026
:1008800021004F082000BC0021004E082000BB00C2
:1008900021004D082000BA00210041082000C100BD
:1008A000210040082000C00021003F082000BF00B8
:1008B00021003E082000BE00883128208131200020
:1008C0003D08D7003C08D6003B08D5003A08D400C4
:1008D00092311E228131200057082100C5002000DE
:1008E00056082100C400200055082100C300200044
:1008F00054082100C2004508F3004408F2004308F0
:10090000F1004208F000803105208131710821009A
:10091000B0007008AF0050082000A70021004F0869
:100920002000A60021004E082000A50021004D084F
:100930002000A400210045082000A3002100440855
:100940002000A200210043082000A100210042084D
:100950002000A0008931D221813120002308BD0070
:100960002208BC002108BB002008BA002100410871
:100970002000C100210040082000C00021003F08E5
:100980002000BF0021003E082000BE009A318D22C9
:10099000813120003D082100C10020003C082100D9
:1009A000C00020003B082100BF0020003A082100C1
:1009B000BE0041302000BD002030BC000030BB0034
:1009C0000030BA00210050082000C10021004F086B
:1009D0002000C00021004E082000BF0021004D086B
:1009E0002000BE0088312820813120003D082100F0
:1009F000D00020003C082100CF0020003B0821004F
:100A0000CE0020003A082100CD000130BC070030A4
:100A1000BD3D3D08803AA0003208803A2002031D07
:100A2000132D31083C02031C162D172D3C2C403091
:100A30002000A300A030A2000030A1000030A000E0
:100A4000210050082000A70021004F082000A60028
:100A500021004E082000A50021004D082000A40020
:100A60008931D2218131200023082100C5002000D6
:100A700022082100C400200021082100C30020001A
:100A800020082100C20041082000BD0021004008CC
:100A90002000BC0021003F082000BB0021003E08D0
:100AA0002000BA00210045082000C10021004408B0
:100AB0002000C000210043082000BF0021004208A0
:100AC0002000BE009E31442681310318682D692D17
:100AD000732D00302100C5000030C4000030C30079
:100AE0000030C200982D21004108F3004008F200B8
:100AF0003F08F1003E08F0004508F7004408F60002
:100B00004308F5004208F4009C316D248131031C38
:100B10008A2D8B2D982D21002F188F2D902D982DFB
:100B20000030C5000030C4000030C3000030C200F7
:100B300021004508F3004408F2004308F100420890
:100B4000F0004C08F7004B08F6004A08F500490889
:100B5000F4009531F425813173082100C100720839
:100B6000C0007108BF007008BE0041082000BD0031
:100B7000210040082000BC0021003F082000BB00ED
:100B800021003E082000BA004130A3002030A2001E
:100B90000030A1000030A00021003B082000A70089
:100BA00021003A082000A600210039082000A500F5
:100BB000210038082000A4008931D2218131200091
:100BC0002308C1002208C0002108BF002008BE0081
:100BD0009E3144268131031CEE2DEF2D2A2E01304B
:100BE0002100B4070030B53D41302000A300203083
:100BF000A2000030A1000030A00021003B0820002E
:100C0000A70021003A082000A60021003908200092
:100C1000A500210038082000A4008931D2218131AB
:100C2000200023082100BB00200022082100BA0078
:100C3000200021082100B900200020082100B80070
:100C400066302E06031D252E262E2A2E0130B107D2
:100C50000030B23D21003B08D0003A08CF003908EF
:100C6000CE003808CD003508A5003408A400AC013A
:100C7000A801A901BC01BD01722F2100500820006C
:100C8000BD0021004F082000BC0021004E082000BC
:100C9000BB0021004D082000BA00210041082000BF
:100CA000C100210040082000C00021003F082000B2
:100CB000BF0021003E082000BE008831282081317D
:100CC00020003D08D7003C08D6003B08D5003A0874
:100CD000D40092311E228131200057082100C50026
:100CE000200056082100C400200055082100C30040
:100CF000200054082100C2004508F3004408F20017
:100D00004308F1004208F00080310520813171086C
:100D1000803A2100A00080302002031D912E0A306D
:100D200070020318942E952EA72E21004508F3007B
:100D30004408F2004308F1004208F0008031052029
:100D4000813171082100B0007008AF00AC2E09306D
:100D50002100AF000030B0002C08031DB02EB12ED2
:100D6000DA2EA51FB42EB52EDA2E4708203E8600B7
:100D7000023087002E3081000130C7070030C83DA7
:100D8000FF30B607FF30B73DAC01AC0ADA2E47089A
:100D9000203E860002308700303081000130C707D6
:100DA0000030C83DFF30B607FF30B73DFF30A80721
:100DB000FF30A93D28082904031DDF2EE02EC72E91
:100DC0004708203E8600023087002F08303E810011
:100DD0000130C7070030C83DFF30B607FF30B73DD0
:100DE00050082000A70021004F082000A600210085
:100DF0004E082000A50021004D082000A40021007D
:100E000045082000A300210044082000A200210082
:100E100043082000A100210042082000A0008931E1
:100E2000D221813120002308BD002208BC00210806
:100E3000BB002008BA00210041082000C1002100A9
:100E400040082000C00021003F082000BF00210012
:100E50003E082000BE009A318D22813120003D08DD
:100E60002100C10020003C082100C00020003B08F8
:100E70002100BF0020003A082100BE0041302000C0
:100E8000BD002030BC000030BB000030BA002100A3
:100E900050082000C10021004F082000C0002100A0
:100EA0004E082000BF0021004D082000BE00883100
:100EB0002820813120003D082100D00020003C087E
:100EC0002100CF0020003B082100CE0020003A087E
:100ED0002100CD00FF30A407FF30A53D0130BC0745
:100EE0000030BD3D3D08803AA0003208803A200223
:100EF000031D7C2F31083C0203187F2F802F8E2F7B
:100F000021004808803AA00080302002031D8A2F6B
:100F10004B304702031C8D2F8E2F3D2E4F3021006A
:100F2000BC000030BD003C08203E86000230870037
:100F300081012030F0004808F2004708F10020301D
:100F4000A000470820023C078831012081312100A0
:100F500047083C02C70048083D3BC8004608031D3F
:100F6000B22FB42F0130B52F0030A000A10120080E
:100F7000BC002108BD0046080319BF2FC02FCB2F8E
:100F8000FF30C707FF30C83D4708203E86000230CB
:100F90008700460881003C08B6023D08B73B470879
:100FA000203EFB003708FD003608FC0033089B316B
:100FB000F72381310800DD30840099308500A030AE
:100FC00086000130870009309931CE218731220017
:100FD000EA01EB01EC01ED01EE01A93084000130E2
:100FE000850008309931C8218731203084000230D3
:100FF000850050309931C821873120008C310D2C6B
:10100200F5007008F7007508F6001B2877088600BF
:10101200023087000108F4000130F3007308F7077B
:101022007608860002308700740881000130F300E0
:101032007308F6070130F1020030F23B710A031D1A
:101042002628720A031D26282728072808002000C0
:1010520041088039CB004135D200C01F31283228E7
:101062003328521452080319372838284828520ABC
:10107200031D3C283D2845280030C1000030C00037
:101082000030BF000030BE00C017C1015028003040
:10109200C1000030C0000030BF000030BE003D087B
:1010A2008039C2004208CB063D35D300BC1F5A2806
:1010B2005B285C285314530803196028612871289F
:1010C200530A031D652866286E280030BD000030D3
:1010D200BC000030BB000030BA00BC17BD0179284B
:1010E2000030BD000030BC000030BB000030BA0050
:1010F2003D083C043B043A04031D802881289A28B9
:101102000030C1000030C0000030BF000030BE001F
:101112008030C0047F30C1044B08C2004208C104C1
:101122004108BD004008BC003F08BB003E08BA00B1
:10113200D1295208031D9E289F28A8280030BD00EF
:101142000030BC000030BB000030BA00D129520888
:10115200C200C3014308C50053084202C400031C75
:10116200C50344087F3ECC000030453DCD00410818
:10117200CA004008C9003F08C8003E08C700003046
:10118200C1000030C0000030BF000030BE0000309F
:10119200D1000030D0000030CF000030CE00D301AB
:1011A200102953080319D628D728F1280130C7354A
:1011B200C80DC90DCA0D890BD8280130BE35BF0D27
:1011C200C00DC10D890BDF28D11FE828E928EA28C4
:1011D2003E140130CE35CF0DD00DD10D890BEB2849
:1011E2003D084A02031DFF283C084902031DFF284F
:1011F2003B084802031DFF283A084702031C022944
:1012020003290C2951173A08C7023B08C83B3C087E
:10121200C93B3D08CA3B0130C2004208D3071A301D
:101222005302031C15291629D2284A0849044804E6
:10123200470403191D291E2937294E143729013065
:10124200BE35BF0DC00DC10D890B2129D11F2A2921
:101252002B292C293E140130CE35CF0DD00DD10DC6
:10126200890B2D29FF30CC07FF30CD3DC01F3A2915
:101272003B292029D301D11F3F2940295C29FF3076
:101282004E05C200FF304F05C300FF305005C400B9
:101292007F305105C5004508440443044204031944
:1012A200532954295729D301D30A5C293E1C5A29B0
:1012B2005B295C295429530803196029612989296A
:1012C2000130BE070030BF3D0030C03D0030C13D9F
:1012D200411C6C296D2989293E08C2003F08C300C0
:1012E2004008C4004108C5000130C600C537C40C1F
:1012F200C30CC20CC60B77294508C1004408C000C4
:101302004308BF004208BE000130CC070030CD3D8B
:101312004D08803AC20080304202031D9229FF30FC
:101322004C02031C95299629A329FF302000CC00EA
:101332000030CD000030C1000030C0000030BF00DE
:101342000030BE0020004D08803AC20080304202C8
:10135200031DAD2901304C020318B029B129BD2962
:101362002000CC01CD010030C1000030C0000030AF
:10137200BF000030BE00CB0120004C08D200521C3E
:10138200C329C429C629C017CA297F30C20042080E
:10139200C0055236C1004B08C2004208C104912860
:1013A2000800200023088039AD002335B300A21FB6
:1013B200DB29DC29DD29331433080319E129E22969
:1013C200F129330A031DE629E729EF290030A3009A
:1013D2000030A2000030A1000030A000A217F929BD
:1013E2000030A3000030A2000030A1000030A000B5
:1013F20027088039A8002808AD062735B200A61FA5
:10140200032A042A052A321432080319092A0A2A4D
:10141200192A320A031D0E2A0F2A172A0030A700A2
:101422000030A6000030A5000030A400A617212A33
:101432000030A7000030A6000030A5000030A40054
:1014420032080319252A262A2B2A3308031D2A2AA1
:101452002B2A342A0030A3000030A2000030A10061
:101462000030A0000C2C2008F00026089B315123EC
:10147200893171082000B9007008B8003808A80046
:10148200A901AA01AB012B08B1002A08B000290862
:10149200AF002808AE003908A800A901AA01AB01D3
:1014A2002B08B7002A08B6002908B5002808B4009E
:1014B2002108F00025089B31512389317108200051
:1014C200B9007008B8003808A800A901AA01AB0148
:1014D2002808AE072908AF3D2A08B03D2B08B13DC8
:1014E2003908A800A901AA01AB012808B4072908F4
:1014F200B53D2A08B63D2B08B73D2208F000240866
:101502009B315123893171082000B9007008B8005D
:101512003808A800A901AA01AB012808AE072908CA
:10152200AF3D2A08B03D2B08B13D3908A800A901FA
:10153200AA01AB012808B4072908B53D2A08B63D1F
:101542002B08B73D0830AE35AF0DB00DB10D890B8C
:10155200A42A2108F00024089B3151238931710803
:101562002000B9007008B8003808AE073908AF3D4E
:101572000030B03DB13D2008F00025089B315123D9
:10158200893171082000B9007008B8003808AE0728
:101592003908AF3D0030B03DB13D0830AE35AF0D3A
:1015A200B00DB10D890BCF2A2008F00024089B3121
:1015B2005123893171082000B9007008B800380839
:1015C200AE073908AF3D0030B03DB13D2108F00013
:1015D20026089B315123893171082000B900700817
:1015E200B8003808B4073908B53D0030B63DB73DFC
:1015F2002208F00025089B3151238931710820000F
:10160200B9007008B8003808B4073908B53D003091
:10161200B63DB73D2208F00026089B31512389319F
:1016220071082000B9007008B8003808A80039080D
:10163200A900AA01AB010830A835A90DAA0DAB0D6E
:10164200890B1D2B2808B4072908B53D2A08B63D89
:101652002B08B73D2E08A8002F08A9003008AA00C1
:101662003108AB001830AB36AA0CA90CA80C890BB8
:10167200342B2808B4072908B53D2A08B63D2B08A3
:10168200B73D0830AE35AF0DB00DB10D890B432B10
:1016920033083207A800A901A90D2808823EB80024
:1016A200FF30293DB9006C2B0130B435B50DB60DB4
:1016B200B70D890B562BB11F5F2B602B612B341496
:1016C2000130AE35AF0DB00DB10D890B622BFF307D
:1016D200B807FF30B93DB61F6F2B702B552BB201E7
:1016E200B11F742B752B912BFF302E05A800FF30F4
:1016F2002F05A900FF303005AA007F303105AB006D
:101702002B082A04290428040319882B892B8C2BE3
:10171200B201B20A912B341C8F2B902B912B892B67
:1017220032080319952B962BBE2B0130B4070030DB
:10173200B53D0030B63D0030B73D371CA12BA22B82
:10174200BE2B3408A8003508A9003608AA003708BD
:10175200AB000130AC00AB37AA0CA90CA80CAC0B47
:10176200AC2B2B08B7002A08B6002908B5002808B8
:10177200B4000130B8070030B93D3908803AA800FA
:1017820080302802031DC72BFF303802031CCA2BEE
:10179200CB2BD52B7F302000B7008030B600003035
:1017A200B5000030B400002C20003908803AA800AF
:1017B20080302802031DDF2B013038020318E22B90
:1017C200E32BEE2B00302000B7000030B6000030D3
:1017D200B5000030B400AD01002C20003808B30081
:1017E200FF30B405FF30B5057F30B6050030B705D0
:1017F200331CFC2BFD2BFE2BB6173336B7002D08FE
:10180200A8002808B7043708A3003608A200350844
:10181200A1003408A0000800F03021008F0023004E
:101822008F0121008D018E01FF3023008C00FF30DB
:1018320021008C009C312C248C3128309B3199233F
:101842008C310C309B3199238C3106309B3199239A
:101852008C3101309B3199238C3182309B31992319
:101862008C315230F2009830F3009A3106228C31DA
:10187200C4309B3199238C315E30F2009830F300F2
:101882009A3106228C314B302200C1009330C000C5
:10189200B530890B4A2CC00B4A2CC10B4A2C0130A3
:1018A2009B3199238C31903100208C312300260802
:1018B2002200E700230027082200E800230028086E
:1018C2002200E900A0308600013087005D308400EC
:1018D200013085000630C00016001A00C00B6D2CC6
:1018E200D701D801D901DA01DB01DC01D501D50A22
:1018F200D601D001220055080319802C812C2E2DEF
:10190200570858040319862C872CB72C80309B313A
:1019120099238C312C30F2009830F3009A31062250
:101922008C31C0309B3199238C3122005808210020
:10193200EF00220057082100EE009931F1218C318D
:1019420032302200C100B830C0002230890BA72CEF
:10195200C00BA72CC10BA72C00002200D501D60179
:10196200D60A01309B3199238C317B2C80309B31FC
:1019720099238C314630F2009830F3009A310622D6
:101982008C31C0309B3199238C316730F2000130A9
:10199200F3009A3106228C319F3163278C31220069
:1019A200E50023306506031DD72CD82C132D0130FA
:1019B2009B3199238C31220067089931D4218C31D3
:1019C2007108F4007008F3006430F5000030F6008E
:1019D2009A314F228C3173082200C0007408C10072
:1019E20068089931D4218C317108F4007008F30031
:1019F2000A30F5000030F6009A314F228C3173081C
:101A020022004007C2007408413DC30069089931B1
:101A1200D4218C31700822004207D7007108433D5F
:101A2200D8007B2C2A306506031D182D192D202D78
:101A32006808E9006708E8003030E7007B2C2030B6
:101A420065060319252D262D2D2D6808E700690846
:101A5200E8006508E9007B2C7B2C56080319322D1F
:101A6200332D2A2E59085A04031D382D392D3F2DA6
:101A72005B085C0403193E2D3F2DA72D80309B315E
:101A820099238C311E30F2009830F3009A310622ED
:101A92008C31C0309B3199238C3122005A082100AD
:101AA200EF00220059082100EE009931F1218C311A
:101AB2003A309B31C7238C3122005C082100EF00B1
:101AC20022005B082100EE009931F1218C31323085
:101AD2002200C100B830C0002230890B6E2DC00B2D
:101AE2006E2DC10B6E2D000001309B3199238C317C
:101AF20080309B3199238C310030F2009830F30012
:101B02009A3106228C31C0309B3199238C316F304F
:101B1200F2009830F3009A3106228C3132302200E2
:101B2200C100B830C0002230890B952DC00B952D15
:101B3200C10B952D000001309B3199238C3122007D
:101B4200D601D001D00A20000E147B2C80309B31AC
:101B520099238C313A30F2009830F3009A31062200
:101B62008C31C0309B3199238C315D30F2000130D1
:101B7200F3009A3106228C319F3163278C31220087
:101B8200E60023306606031DC72DC82D0C2E01303A
:101B92009B3199238C3122005D089931D4218C31FB
:101BA2007108F4007008F3000A30F5000030F60006
:101BB2009A314F228C3173082200C0007408C10090
:101BC2005E089931D4218C31700822004007D90077
:101BD2007108413DDA0060089931D4218C317108D5
:101BE200F4007008F3000A30F5000030F6009A3174
:101BF2004F228C3173082200C0007408C1006108B2
:101C02009931D4218C31700822004007DB00710821
:101C1200413DDC007B2C2A306606031D112E122E5C
:101C22001B2E6008E1005E08E0005D08DE00303037
:101C3200DD007B2C203066060319202E212E2D2D4F
:101C42005E08DD006008DE006108E0006608E10071
:101C52007B2C5608031D2E2E2F2E2D2D5508031DCD
:101C6200332E342E2D2D50080319382E392EBF2F26
:101C72005A08F4005908F3001030F5000E30F6004F
:101C82009A314F228C3173082200C0007408C100BF
:101C92005C08F4005B08F3003C30F5000030F6000D
:101CA2009A314F228C31730822004007E3007408F6
:101CB200413DE400AC2F80309B3199238C31673059
:101CC200F2009830F3009A3106228C311030F7007E
:101CD2000E30F80022006408FA006308F9009D3112
:101CE20065258C3178082100EF007708EE009931E4
:101CF200F1218C313A309B31C7238C313C30F700D3
:101D02000030F80022006408F3006308F20010308B
:101D1200F0000E30F1009C31BB248C317108FA00C6
:101D22007008F9009D3165258C3178082100EF009B
:101D32007708EE009931F1218C313A309B31C7237B
:101D42008C313C30F0000030F10022006408F300D6
:101D52006308F2009C31BB248C3171082100EF0032
:101D62007008EE009931F1218C31C0309B319923FA
:101D72008C3100302000D400D50090310A208C3103
:101D8200200057082200C700200056082200C60083
:101D9200200055082200C500200054082200C4007B
:101DA20042302000A300C830A2000030A100003061
:101DB200A000220047082000A700220046082000B9
:101DC200A600220045082000A500220044082000A9
:101DD200A4008931D2218C31200023082200D400B2
:101DE200200022082200D300200021082200D20075
:101DF200200020082200D1007630F2009830F30053
:101E02009A3106228C3122005408AF005308AE00EA
:101E12005208AD005108AC009B310E238C310130C9
:101E22002000D4000030D50090310A208C312000EF
:101E320057082200CB00200056082200CA002000CA
:101E420055082200C900200054082200C8003E3074
:101E52002000BD00CC30BC00CC30BB00CD30BA007D
:101E620022004B082000C10022004A082000C000C6
:101E7200220049082000BF00220048082000BE00BE
:101E82009E3144268C310318472F482F4B2F2200B6
:101E92000E164D2F22000E1219302200C1009C3066
:101EA200C000ED30890B532FC00B532FC10B532FA2
:101EB200003201309B3199238C31FF302200E3073D
:101EC200FF30E43D5708053EF0000030583DF10078
:101ED200F201F11BF2037208F300013090318A2003
:101EE2008C3173082200CF007208CE007108CD0039
:101EF2007008CC004F082000BD0022004E082000D0
:101F0200BC0022004D082000BB0022004C0820002B
:101F1200BA00220054082000C10022005308200009
:101F2200C000220052082000BF00220051082000F9
:101F3200BE009E3144268C31031CA02FA12FA72F57
:101F420022000E148E100E118E15AC2F22000E10D0
:101F52008E140E158E116408803AC0008030400243
:101F6200031DB52F013063020318B82FB92F5C2E61
:101F720022000E108E140E118E15D00180309B316E
:101F820099238C310F30F2009830F3009A310622F7
:101F92008C31C6309B3199238C317C30F2009830E1
:101FA200F3009A3106228C317D302200C1004A3082
:101FB200C000D930890BDB2FC00BDB2FC10BDB2F0D
:101FC200003201309B3199238C312200D501D50A90
:101FD200D701D801D901DA01DB01DC013030E70099
:101FE2003030E8003030E9003030E1003030E000DD
:101FF2003030DE003030DD007B2C803102282100C1
:102002001D149E171E088F3910389E009C019B01DB
:102012000800200054085504031D10281128152813
:10202200833021009D052D2854035504031D1A28D1
:102032001B28212821001D08833904389D002D28E2
:10204200023054065504031D272828282D28210074
:102052001D08833908389D0007302000D8005B3006
:10206200890B3128D80B3128003221009D149D1490
:102072009D183C283D2839281C081B082000D80040
:10208200D9015808DE005908DF004430BD007F3016
:10209200BC00C030BB000030BA004030A300A0300A
:1020A200A2000030A1000030A0005E08F0005F082E
:1020B200F100F201F301003090318A20903173086F
:1020C2002000A7007208A6007108A5007008A400ED
:1020D2008931D221903120002308C1002208C0009A
:1020E2002108BF002008BE0088312820903120003E
:1020F2003D08DD003C08DC003B08DB003A08DA0062
:102102005D08D7005C08D6005B08D5005A08D400E9
:102112000800F800780803198F289028A428F31FD4
:1021220093289428A4287009FA007109FB00720907
:10213200FC007309FD00FA0A0319FB0A0319FC0AE1
:102142000319FD0AAC287308FD007208FC0071082F
:10215200FB007008FA007308720471047004031D16
:10216200B328B428BD280030F3000030F20000305C
:10217200F1000030F00033299630F900CB2801300D
:10218200F4007408F9070130FD36FC0CFB0CFA0C64
:10219200890BC528FE307D05031DD028D128C02813
:1021A200E5280130F4007408F9070130FA0700301D
:1021B200FB3D0030FC3D0030FD3D0130FD36FC0CA6
:1021C200FB0CFA0C890BDF28FF307D05031DEA2882
:1021D200EB28D228F5280130F9020130FA35FB0D3F
:1021E200FC0DFD0D890BEF28FC1BF828F928FF28B0
:1021F200023079020318FE28FF28EC2879180229F8
:1022020003290B29FF30FA05FF30FB057F30FC055F
:10221200FF30FD050310F90C7908F400F501F60111
:10222200F7011830F435F50DF60DF70D890B13296A
:102232007408FA047508FB047608FC047708FD04A8
:1022420078080319252926292B29F31F29292A2948
:102252002B29FD177D08F3007C08F2007B08F100B2
:102262007A08F0000800F20128308600003087006A
:10227200473FF000F01F3E293F2960292000A809AE
:10228200A909AA09AB09AC09AD09AE09AF09A80AA7
:10229200031D5E29A90A031D5E29AA0A031D5E29E0
:1022A200AB0A031D5E29AC0A031D5E29AD0A031D9C
:1022B2005E29AE0A031D5E29AF0AF201F20A20303E
:1022C200860000308700473FF000F01F69296A2925
:1022D20089292000A009A109A209A309A409A50925
:1022E200A609A709A00A031D8929A10A031D892994
:1022F200A20A031D8929A30A031D8929A40A031D11
:102302008929A50A031D8929A60A031D8929A70A65
:102312002000200821042204230424042504260486
:102322002704031995299629E929F101F10AA5291A
:10233200A035A10DA20DA30DA40DA50DA60DA70DEF
:102342000130F0007008F107A71FA829A9299929CF
:1023520027082F02031DC72926082E02031DC7299D
:1023620025082D02031DC72924082C02031DC72995
:1023720023082B02031DC72922082A02031DC7298D
:1023820021082902031DC72920082802031CCA2983
:10239200CB29DB292008A8022108A93B2208AA3B55
:1023A2002308AB3B2408AC3B2508AD3B2608AE3BDB
:1023B2002708AF3BA736A60CA50CA40CA30CA20CB5
:1023C200A10CA00C0130F102031DE829E929A92979
:1023D20072080319ED29EE290C2AA809A909AA09EC
:1023E200AB09AC09AD09AE09AF09A80A031D0C2A55
:1023F200A90A031D0C2AAA0A031D0C2AAB0A031DF3
:102402000C2AAC0A031D0C2AAD0A031D0C2AAE0AC3
:10241200031D0C2AAF0A20002808A0002908A100E9
:102422002A08A2002B08A3002C08A4002D08A5004E
:102432002E08A6002F08A700080023002C08200061
:10244200E70023002B082000E60023002A082000D2
:10245200E500230029082000E4005708E700560899
:10246200E6005508E5005408E4006408D800650851
:10247200D9006608DA006708DB001730DB36DA0CB1
:10248200D90CD80C890B3F2AFF305805DC000030EC
:102492005905DD005C08813EE200FF305D3DE3004E
:1024A2006308803AD80080305802031D5A2A173038
:1024B2006202031C5D2A5E2A5F2A082B2000E31BAE
:1024C200632A642AC12AFF30D800FF30D9007F3046
:1024D200DA000030DB00620A722ADB37DA0CD90C30
:1024E200D80C890B6E2A5B08E1005A08E0005908F3
:1024F200DF005808DE0064085E05D80065085F0545
:10250200D90066086005DA0067086105DB005B0830
:102512005A0459045804031D8F2A902A912A5E2ACC
:102522006408D8006508D9006608DA006708DB008D
:102532001F30DB36DA0CD90CD80C890B9A2A5B08CF
:102542005A04590458040319A72AA82AB02A5E0873
:10255200E4075F08E53D6008E63D6108E73D5E0986
:10256200D8005F09D9006009DA006109DB00580868
:10257200E4055908E5055A08E6055B08E705002B5E
:102582006408D8006508D9006608DA006708DB002D
:102592001F30DB36DA0CD90CD80C890BCA2A5B083F
:1025A2005A0459045804031DD72AD82AE12A0030B4
:1025B200E7000030E6000030E5000030E400002BC8
:1025C2006408D8006508D9006608DA006708DB00ED
:1025D2000130D835D90DDA0DDB0D890BEA2A5B08FB
:1025E2005A04590458040319F72AF82A002BBF3059
:1025F200E7008030E6000030E5000030E4006708C4
:10260200D7006608D6006508D5006408D400080023
:10261200F2012030860000308700473FF000F01FB3
:10262200132B142B352B2000A009A109A209A30901
:10263200A409A509A609A709A00A031D332BA10A0B
:10264200031D332BA20A031D332BA30A031D332BB5
:10265200A40A031D332BA50A031D332BA60A031D4F
:10266200332BA70AF201F20A2830860000308700D5
:10267200473FF000F01F3E2B3F2B622B2000A809A2
:10268200A909AA09AB09AC09AD09AE09AF09A80AA3
:10269200031D5E2BA90A031D5E2BAA0A031D5E2BD6
:1026A200AB0A031D5E2BAC0A031D5E2BAD0A031D94
:1026B2005E2BAE0A031D5E2BAF0A0130F0007008DC
:1026C200F20673308600003087000830F0000030D8
:1026D2001E00F00B692B2000200821042204230491
:1026E20024042504260427040319782B792BD52BDF
:1026F200F101F10A882BA035A10DA20DA30DA40DA5
:10270200A50DA60DA70D0130F0007008F107A71F57
:102712008B2B8C2B7C2BF335F40DF50DF60DF70D71
:10272200F80DF90DFA0D27082F02031DB22B26080A
:102732002E02031DB22B25082D02031DB22B2408E5
:102742002C02031DB22B23082B02031DB22B2208DD
:102752002A02031DB22B21082902031DB22B2008D5
:102762002802031CB52BB62BC72B2008A802210870
:10277200A93B2208AA3B2308AB3B2408AC3B250813
:10278200AD3B2608AE3B2708AF3B7314A736A60C19
:10279200A50CA40CA30CA20CA10CA00C0130F102FC
:1027A200031DD42BD52B8C2B72080319D92BDA2BB2
:1027B200F82BF309F409F509F609F709F809F909FB
:1027C200FA09F30A031DF82BF40A031DF82BF50A84
:1027D200031DF82BF60A031DF82BF70A031DF82B2D
:1027E200F80A031DF82BF90A031DF82BFA0A7308DD
:1027F2002000A0007408A1007508A2007608A300BA
:102802007708A4007808A5007908A6007A08A7002E
:1028120008002100DE0020006D0886008701403F8D
:102822002100D100413FD2005108840052088500A6
:102832001200253A031D1E2C1F2CD92D20006D08D5
:10284200860087010130810741310318810A220085
:10285200EA01EB010310003003180130EE00FF30F3
:10286200EC00FF30ED0020006D0886008701403F3C
:102872002100D100413FD200510884005208850056
:1028820012002E3A031D462C472CB42C2200EC01D8
:10289200ED0120006D08860087010130810741317A
:1028A2000318810A6D0886008701403F2100D1008C
:1028B200413FD200510884005208850012002A3A92
:1028C200031D642C652C7D2C20006D088600870179
:1028D2000130810741310318810A6E0886000130F8
:1028E200870001088400850102308107003F220031
:1028F200EC00013FED00B42C20006D08860087013A
:10290200403FF900413FFA009E31CF2694317A08C8
:102912002200ED007908EC00972C20006D0886005B
:1029220087010130810741310318810A20006D08B7
:1029320086008701403F2100D100413FD20051086B
:102942008400520885000008D03ED300FF300318EF
:102952000030D400003054020A3003195302031C21
:10296200B32CB42C8E2C20006D0886008701403FCA
:102972002100DF00413FE0005F088400600885001D
:102982001200643A0319C62CC72CD12C5F088400AC
:10299200600885001200693A031DD02CD12C212D2C
:1029A20020006E088600013087000108840085013E
:1029B20002308107003F2100D100013FD2005108BF
:1029C200D5005208D600890D893B8909D700D80065
:1029D200D900DA00DB00DC005F08013ED1000030E4
:1029E200603DD20020006D08860087012100510859
:1029F200C03F5208C13F55082000B00021005608D0
:102A02002000B100210057082000B2002100580820
:102A12002000B300210059082000B40021005A0808
:102A22002000B50021005B082000B60021005C08F0
:102A32002000B70021005E08803175209431F32D0B
:102A420020006D0886008701403F2100DF00413FE2
:102A5200E0005F088400600885000008DD003B2D6F
:102A62000130DF070030E03D4E2D6C30DD004E2D91
:102A7200DD014E2D5D08D100D2015208003A031942
:102A8200432D392D51084C3A0319312D2A3A031995
:102A9200362D0A3A0319312D392D5F08840060085A
:102AA20085001200663A031D572D582DCF2D812D1A
:102AB20020006E088600013087000108840085012D
:102AC20004308107003F2100D500013FD600023FBC
:102AD200D700033FD800912D20006E0886000130F8
:102AE200870001088400850104308107003F21002E
:102AF200D500013FD600023FD700033FD800912DF9
:102B02005D08D100D2015208003A0319892D912D96
:102B120051084C3A03196D2D203A0319592D912D64
:102B22005F08013ED1000030603DD20020006D08F8
:102B32008600870121005108C03F5208C13FBE2DC7
:102B420058082000EB00210057082000EA0021006D
:102B520056082000E900210055082000E800210065
:102B62005F0884006008850000082000EC00210056
:102B72005E088131AC219431F32D5F088400600836
:102B820085000008D100D2015208003A0319CA2D6B
:102B9200CF2D5108663A0319A12DCF2D20006D08C3
:102BA200860087010130810741310318810AF32D24
:102BB20020006D0886008701403F2100D100413F7F
:102BC200D20051088400520885000008D300D401C5
:102BD2005308F0005408F1005E08F2009D310E2502
:102BE2009431CF2D080073088039F8007335FA004C
:102BF200F21FFC2DFD2DFE2D7A147A080319022EE8
:102C0200032E132E7A0A031D072E082E102E0030D3
:102C1200F3000030F2000030F1000030F000F21753
:102C2200F3011B2E0030F3000030F2000030F100FF
:102C32000030F00077088039F90079087806031926
:102C4200232E242E252E78177735F900F61F2A2EEB
:102C52002B2E2C2E791479080319302E312E412E69
:102C6200790A031D352E362E3E2E0030F700003035
:102C7200F6000030F5000030F400F617F701492E97
:102C82000030F7000030F6000030F5000030F400AC
:102C92007A08790203184E2E4F2E762E781F522E66
:102CA200532E582E80302000A0002008F8067A0803
:102CB200FB007908FA007B08F9007008FB00740831
:102CC200F0007B08F4007108FB007508F1007B0836
:102CD200F5007208FB007608F2007B08F600730824
:102CE200FB007708F3007B08F700FB01790820005E
:102CF200A000A1012108A3007A082002A200031C5F
:102D0200A3032308803AA40080302402031D8B2EE3
:102D12001A302202031C8E2E8F2EC12E73087204CB
:102D220071047004031D962E982E0130992E0030E6
:102D3200FB000030F3000030F2000030F100003000
:102D4200F0007908FA00C72E7B1CA82EA92EAD2E02
:102D52007B360138FB00AF2E0310FB0C701CB22E29
:102D6200B32EB42EFB1701302000A000F337F20C73
:102D7200F10CF00CA00BB72E0130A0002008FA07CE
:102D820079087A02031CC62EC72EA52E781BCA2EDE
:102D9200CB2E022F7A08031DCF2ED02ED92E003033
:102DA200F3000030F2000030F1000030F000FF2F9D
:102DB2007408F0077508F13D7608F23D7708F33D97
:102DC200731CE42EE52E8F2F7B1CE82EE92EED2EB0
:102DD2007B360138FB00EF2E0310FB0C701CF22E29
:102DE200F32EF42EFB1701302000A000F337F20C73
:102DF200F10CF00CA00BF72E0130A0002008FA070E
:102E02008F2F7308803A2000A0007708803A2002B2
:102E1200031D152F76087202031D152F7508710206
:102E2200031D152F740870020318182F192F512F24
:102E3200FF30A000FF30A100FF30A200FF30A3004E
:102E420070087402A4007108753BA5007208763BF5
:102E5200A6007308773BA7002408A0072508A13D18
:102E62002608A23D2708A33D2308F3002208F2000A
:102E72002108F1002008F0008030A0002008F806A8
:102E8200FB09FB0A7B08031D472F482F592F0130EE
:102E9200F0070030F13D0030F23D0030F33D592F94
:102EA2007408F0027508F13B7608F23B7708F33BB1
:102EB2007308720471047004031D602F612F8B2F3D
:102EC2007B08031D652F662F8B2F0030F300003027
:102ED200F2000030F1000030F000FF2F0130F03539
:102EE200F10DF20DF30D890B702FFB1F792F7A2F45
:102EF2007B2F70147B1C7E2F7F2F822F0314FB0DE0
:102F0200842F0310FB0D7A080319882F892F8B2F2A
:102F12000130FA02F21F8E2F8F2F6F2FF901FB1F44
:102F2200932F942FA22F7B087F390319992F9A2F61
:102F32009D2FF901F90AA22F701CA02FA12FA22FF9
:102F42009A2F79080319A62FA72FD52F0130F00742
:102F52000030F13D0030F23D0030F33D731CB22FE2
:102F6200B32FD52F70082000A0007108A1007208AD
:102F7200A2007308A3000130A400A337A20CA10C85
:102F8200A00CA40BBE2F2308F3002208F200210894
:102F9200F1002008F0007A0A0319D02FD12FD52F83
:102FA2000130A0002008FA077A0A0319D92FDA2F74
:102FB200DF2F7A08031DDE2FDF2FED2F0030F30005
:102FC2000030F2000030F1000030F0007A08031DFA
:102FD200EB2FEC2FED2FF8017A1CF02FF12FF32FAE
:102FE200F217F82F7F302000A0002008F2057A3671
:102FF200F300F81FFD2FFE2FFF2FF31708004F34A9
:10300200563445344E3420345334543441345234DB
:10301200543449344E34473420340034543449341F
:103022004D34453452342034463449344E344934D4
:103032005334483445344434003449346E347034A3
:1030420075347434653464342034543469346D34E2
:1030520065343A34003449346E347034753474341F
:10306200653464342034543465346D3470343A3405
:10307200003445346E34743465347234203454343C
:1030820069346D3465343A34003445346E34743402
:10309200653472342034543465346D3470343A34C7
:1030A20000344F34563445344E342034533459347A
:1030B2005334543445344D340034473452344F344D
:1030C200553450342D342034483400345434493487
:1030D2004D34453420343A34203400344E344F34A5
:1030E20057342E342E342E340034543445344D3477
:1030F20050343A3400342A342A342A342A340034FC
:1031020025342E3432346634003469346E346634F5
:1031120000346E3461346E34003425346434003447
:10339000640080010131890BC9290034FE0012004C
:1033A0001E00FE0BCF290034F2007208D03EF00060
:1033B000FF3003180030F1000800303430343A3464
:1033C00030343034003430343034303473087204E4
:1033D000710470040319ED29EE29F0298030F306F9
:1033E00008008E302100E7009830E8006F08EA00FE
:1033F0006E08E9002C309A31CD2299312C30F20040
:103400000130F3009A31062299310800132A72081C
:1034100084007308850000089B31C7239A3101306E
:10342000F2070030F33D7208840073088500120033
:10343000031D1B2A1C2A072A08007008D03EF20030
:10344000FF30713DF300003073020A30031972023D
:10345000031C2B2A2D2A01302E2A0030F400F501FE
:103460007408F0007508F10008007408803AF5004F
:1034700080307502031D3E2A013073020318412A71
:10348000422A4E2A7309F5007409F600F50A031959
:10349000F60A7508F3007608F4004E2A0800F701D2
:1034A000F801731C542A552A592A7508F70776081B
:1034B000F83D0130F535F60D890B5A2A0130F43606
:1034C000F30C890B5F2A73087404031D682A692AA8
:1034D000512A7808F4007708F3000800F700710813
:1034E000F5007008F4007708F600760886000230D0
:1034F0008700F60A7508F3007408F200F40A03194D
:10350000F50A72088400730885000008C03F890826
:10351000031D8B2A8C2A752A080080302000BD06E6
:103520004108F3004008F2003F08F1003E08F000B7
:103530003D08F7003C08F6003B08F5003A08F400A7
:103540009531F4259A3173082000BD007208BC0043
:103550007108BB007008BA0008002100E40062088E
:10356000E6006108E500C02AE5302000ED002100FA
:1035700063082000EE002100640894310A249A3187
:10358000210065088400660885001200031DC92A11
:10359000CA2AB42AE101E20108002200A000E930B1
:1035A000A1002008A200A401A501AA01AB012100ED
:1035B0006808E2006708E1002130E30022309A3118
:1035C000AD229A312200240820072100ED006D0869
:1035D00086000130870081010800F401F40A2030E0
:1035E000700671040319F52AF62A062B7008F73EB7
:1035F000F200FF30713DF300003073020530031913
:103600007202031C042B052B062BF4017408F20034
:10361000F3017208F0007308F10008008130210006
:10362000E7009830E80022002F082100EC0022007B
:103630002E082100EB0022002D082100EA002200C4
:103640002C082100E90030309A31CD229B313030F6
:10365000F2000130F3009A3106229B310800F31B7F
:10366000402B7308031D3F2B7208031D3F2B71086D
:10367000031D3F2B0130700203183F2B402B502BB2
:103680007009F0007109F1007209F2007309F3008A
:10369000F00A0319F10A0319F20A0319F30A502B6D
:1036A0000800F800F401F5017008F200F301720857
:1036B000F6007308F700781C5E2B5F2B632B7608EF
:1036C000F4077708F53D0130F635F70D890B642BCB
:1036D0000310F80C7808031D6E2B6F2B5B2B7508FD
:1036E000F1007408F00008002000A300A101A2016D
:1036F0008A2B2008F900FA017908F0007A08F10015
:103700007808F2009D310E259B3101302000A10781
:103710000030A23D21082307F90079088600023015
:1037200087000108A0002008031D972B982B792BF8
:103730000800F1007108F0000430F036890B9D2B71
:1037400070080F39103E22008D007108F00004301F
:10375000F036890BA82B70080F398D000D30F00062
:10376000B930890BB12BF00BB12B000071080F3968
:10377000103E22008D0071080F398D000D30F000D1
:10378000B930890BC12BF00BC12B00000800F100F0
:103790007108F0000430F036890BCB2B70080F391C
:1037A000303E22008D007108F0000430F036890BA5
:1037B000D62B70080F39203E8D000D30F000B93047
:1037C000890BE02BF00BE02B000071080F39303E25
:1037D00022008D0071080F39203E8D000D30F00061
:1037E000B930890BF12BF00BF12B00000800200001
:1037F000A900FD1BFC2BFD2B022C7D08A8007C08DA
:10380000A700042CA701A801A501A601162C2030B1
:10381000F0000030F10020002908F2009D310E2553
:103820009B3101302000A5070030A63D2608803AD4
:10383000A4002808803A2402031D202C2708250212
:10384000031C232C242C072C20002908F8007B08BB
:103850009B3174239B3108000230F1007E30F00070
:10386000CE30890B312CF00B312CF10B312C003286
:10387000233022008D0003308D008030F000443072
:10388000890B402CF00B402C0032233022008D009D
:1038900003308D002030F000D030890B4D2CF00B20
:1038A0004D2C0032233022008D0003308D0020305B
:1038B000F000D030890B5A2CF00B5A2C00322330F8
:1038C00022008D0003308D002030F000D030890BB5
:1038D000672CF00B672C0032080000307005F800F0
:1038E00000307105F90080307205FA007F307305F1
:1038F000FB007B087A0479047804031D802C812C5A
:10390000892C0030F3000030F2000030F10000306C
:10391000F00000307405F80000307505F9008030C3
:103920007605FA007F307705FB007B087A0479047E
:103930007804031D9C2C9D2CA52C0030F700003032
:10394000F6000030F5000030F40077087306031D20
:10395000B32C76087206031DB32C75087106031D7F
:10396000B32C740870060319B62CB72CB92C0310AD
:10397000BA2C03140800F601F31FBF2CC02CC72C6F
:10398000F209F309F20A0319F30AF601F60AF11F24
:10399000CA2CCB2CD02CF009F109F00A0319F10A3A
:1039A000700871040319D52CD62CFF2CF501F50AEB
:1039B000E22C0130F035F10D890BDA2C0130F400E6
:1039C0007408F507F11FE52CE62CD92C7108730259
:1039D000031DEC2C70087202031CEF2CF02CF42C4D
:1039E0007008F2027108F33B0130F136F00C890BDC
:1039F000F52C0130F502031DFE2CFF2CE62C760879
:103A00000319032D042D092DF209F309F20A0319F4
:103A1000F30A7308F1007208F00008007208031935
:103A2000122D132D182D7208031D172D182D1D2D65
:103A30007008803104209D31642D7208083E860094
:103A400001308700160001040319272D282D482D69
:103A50007208083E860001308700403FF300413F76
:103A6000F4007208023E860001308700403FF500F6
:103A7000413FF6007608803AF7007408803A7702F2
:103A8000031D442D730875020318472D482D642D1E
:103A900072088600013087007208023E84000130FF
:103AA000850000080107F3007308860001308700D5
:103AB000700881007208023E8600013087000130E4
:103AC000810741310318810A08002000A101F81F75
:103AD0006A2D6B2D722DF709F809F70A0319F80AF8
:103AE000A101A10AFA1F752D762D7F2DF909FA097A
:103AF000F90A0319FA0A0130FB007B08A106A201AA
:103B0000A301770878040319862D872DB62DA0010F
:103B1000A00A932D0130F735F80D890B8B2D01305C
:103B2000FB007B08A007F81F962D972D8A2D0130EA
:103B3000A235A30D890B982D78087A02031DA22DBA
:103B400077087902031CA52DA62DAB2D7708F90265
:103B50007808FA3B22140130F836F70C890BAC2DAB
:103B60000130A002031DB52DB62D972D2108031994
:103B7000BA2DBB2DC02DA209A309A20A0319A30ABD
:103B80002308F8002208F70008002300300820006E
:103B9000A50023002F082000A40023002E082000E9
:103BA000A30023002D082000A2007308A5007208BE
:103BB000A4007108A3007008A2002208F4002308E2
:103BC000F5002408F6002508F7001730F736F60C44
:103BD000F50CF40C890BE62DFF307405A0000030C5
:103BE0007505A10020082104031DF72DF82D192EBD
:103BF0002208F4002308F5002408F6002508F70041
:103C00000130F435F50DF60DF70D890B012E77080F
:103C1000760475047404031D0E2E0F2E142E02302C
:103C2000F0000030F100432E0330F0000030F100CE
:103C3000432E200A2104031D1E2E1F2E3F2E220874
:103C4000F4002308F5002408F6002508F7000930E1
:103C5000F435F50DF60DF70D890B282E770876044F
:103C6000750474040319352E372E0130382E0030B8
:103C7000F800F9017808F0007908F100432E0430CB
:103C8000F0000030F1000800003020003A05C200CA
:103C900000303B05C30080303C05C4007F303D054B
:103CA000C5004508440443044204031D582E592E00
:103CB000612E0030BD000030BC000030BB00003081
:103CC000BA0000303E05C20000303F05C30080301E
:103CD0004005C4007F304105C50045084404430445
:103CE0004204031D742E752E7D2E0030C10000305D
:103CF000C0000030BF000030BE00BD1F802E812EEE
:103D0000992E0030C2000030C3000030C400803063
:103D1000C5003A08C2023B08C33B3C08C43B3D080F
:103D2000C53B4508BD004408BC004308BB00420831
:103D3000BA00C11F9C2E9D2EB52E0030C20000304F
:103D4000C3000030C4008030C5003E08C2023F08F6
:103D5000C33B4008C43B4108C53B4508C10044087B
:103D6000C0004308BF004208BE008030BD0680305E
:103D7000C10641083D02031DC72E40083C02031D39
:103D8000C72E3F083B02031DC72E3E083A02031808
:103D9000CA2ECB2ECD2E0310CE2E031408002000E9
:103DA000A201A301A001A101D92E0130F907003021
:103DB000FA3D790884007A0885001200203A031938
:103DC000E22EE32ED52E790884007A0885000008BB
:103DD000F73EFB00FF3003180030FC0000307C028F
:103DE000053003197B02031CF62EF72ED52E022F69
:103DF00001302000A0000030A1000130F9070030A0
:103E0000FA3D372F790884007A0885000008FB0006
:103E1000FC017C08003A03190E2F372F7B082B3A40
:103E20000319FD2E063A0319F82E372F790884005E
:103E30007A0885000008FB0020002308F40022080F
:103E4000F3000A30F5000030F6009A314F229E311F
:103E50007408FD007B087302FC00031CFD037C0852
:103E6000303E2000A20000307D3DA300FD2E7908E9
:103E700084007A0885000008D03EFB00FF3003185C
:103E80000030FC0000307C020A3003197B02031C66
:103E90004A2F4B2F162F200020082104031D512FDD
:103EA000522F5E2F2209FB002309FC00FB0A031995
:103EB000FC0A7B08F9007C08FA00622F2308FA004C
:103EC0002208F900080022000F148F100F11103083
:103ED000890B682F000020000F1E6F2F702F762F88
:103EE0000F1A732F742F702F3130FF2F8F1E792FE1
:103EF0007A2F802F8F1A7D2F7E2F7A2F3430FF2F2D
:103F00000F1F832F842F8A2F0F1B872F882F842F1B
:103F10003730FF2F8F1F8D2F8E2F942F8F1B912FB8
:103F2000922F8E2F2A30FF2F22000F108F140F1187
:103F30001030890B992F000020000F1EA02FA12FF9
:103F4000A72F0F1AA42FA52FA12F3230FF2F8F1EBE
:103F5000AA2FAB2FB12F8F1AAE2FAF2FAB2F35302B
:103F6000FF2F0F1FB42FB52FBB2F0F1BB82FB92F4B
:103F7000B52F3830FF2F8F1FBE2FBF2FC52F8F1BA0
:103F8000C22FC32FBF2F3030FF2F22000F108F10F2
:103F90000F151030890BCA2F000020000F1ED12FE3
:103FA000D22FD82F0F1AD52FD62FD22F3330FF2F45
:103FB0008F1EDB2FDC2FE22F8F1ADF2FE02FDC2F5D
:103FC0003630FF2F0F1FE52FE62FEC2F0F1BE92FA9
:103FD000EA2FE62F3930FF2F8F1FEF2FF02FF62F0C
:103FE0008F1BF32FF42FF02F2330FF2F22000F1001
:103FF0008F100F111030890BFB2F000020300800AC
:020000040001F9
:08000000FF3FFF3FFF3FFF3F00
:04000E00E209FF1CE8
:00000001FF
