:08000000803102288731E02F56
:10000E00080021001D149E171E088F3910389E00FF
:10001E009C019B010800200023088039AD00233588
:10002E00B300A21B3314330803192A28330A031D05
:10003E0028280030A3000030A2000030A1000030BC
:10004E00A000A21732280030A3000030A20000301A
:10005E00A1000030A00027088039A8002808AD06AE
:10006E002735B200A61B3214320803194B28320A68
:10007E00031D49280030A7000030A6000030A5005F
:10008E000030A400A61753280030A7000030A600A9
:10009E000030A5000030A4003208031D3308031DF4
:1000AE0061280030A3000030A2000030A100003013
:1000BE00A00008002008F00026089C31E4248031BE
:1000CE0071082000B9007008B8003808A800A9010E
:1000DE00AA01AB012B08B1002A08B0002908AF0015
:1000EE002808AE003908A800A901AA01AB012B0807
:1000FE00B7002A08B6002908B5002808B400210860
:10010E00F00025089C31E424803171082000B900EC
:10011E007008B8003808A800A901AA01AB01280888
:10012E00AE072908AF3D2A08B03D2B08B13D39086E
:10013E00A800A901AA01AB012808B4072908B53DFA
:10014E002A08B63D2B08B73D2208F00024089C3142
:10015E00E424803171082000B9007008B800380816
:10016E00A800A901AA01AB012808AE072908AF3DD6
:10017E002A08B03D2B08B13D3908A800A901AA01F3
:10018E00AB012808B4072908B53D2A08B63D2B084F
:10019E00B73D0830AE35AF0DB00DB10D890BD1287E
:1001AE002108F00024089C31E424803171082000DD
:1001BE00B9007008B8003808AE073908AF3D0030F6
:1001CE00B03DB13D2008F00025089C31E42480317B
:1001DE0071082000B9007008B8003808AE07390859
:1001EE00AF3D0030B03DB13D0830AE35AF0DB00D76
:1001FE00B10D890BFC282008F00024089C31E42462
:10020E00803171082000B9007008B8003808AE07B8
:10021E003908AF3D0030B03DB13D2108F000260851
:10022E009C31E424803171082000B9007008B800B8
:10023E003808B4073908B53D0030B63DB73D220841
:10024E00F00025089C31E424803171082000B900AB
:10025E007008B8003808B4073908B53D0030B63D0F
:10026E00B73D2208F00026089C31E4248031710845
:10027E002000B9007008B8003808A8003908A90095
:10028E00AA01AB010830A835A90DAA0DAB0D890B3B
:10029E004A292808B4072908B53D2A08B63D2B0877
:1002AE00B73D2E08A8002F08A9003008AA00310873
:1002BE00AB001830AB36AA0CA90CA80C890B61291F
:1002CE002808B4072908B53D2A08B63D2B08B73DC6
:1002DE000830AE35AF0DB00DB10D890B7029330856
:1002EE003207A800A901A90D2808823EB800FF30E8
:1002FE00293DB900B61B98290130B435B50DB60DA0
:10030E00B70D890B8429B11B34140130AE35AF0DF6
:10031E00B00DB10D890B8D29FF30B807FF30B93DF7
:10032E008129B201B11FB129FF302E05A800FF307F
:10033E002F05A900FF303005AA007F303105AB0034
:10034E002B082A042904280403193418AF29B129CB
:10035E00B201B20A32080319DA290130B4070030AB
:10036E00B53D0030B63D0030B73D371CDA293408B4
:10037E00A8003508A9003608AA003708AB000130DE
:10038E00AC00AB37AA0CA90CA80CAC0BC8292B08D7
:10039E00B7002A08B6002908B5002808B4000130B5
:1003AE00B8070030B93D3908803AA80080302802DD
:1003BE00031DE329FF303802031CEF297F30200094
:1003CE00B7008030B6000030B5000030B400152AFA
:1003DE0020003908803AA80080302802031DF92930
:1003EE00013038020318062A00302000B700003012
:1003FE00B6000030B5000030B400AD01152A200063
:10040E003808B300FF30B405FF30B5057F30B605B0
:10041E000030B7053318B6173336B7002D08A800CD
:10042E002808B7043708A3003608A2003508A10033
:10043E003408A00008002100B300C60120006B089C
:10044E002100CC0020006A082100CB0020006908A2
:10045E002100CA00200068082100C9004C082000B5
:10046E00BD0021004B082000BC0021004A082000DE
:10047E00BB00210049082000BA000030C100003046
:10048E00C0000030BF000030BE0091312D218231FE
:10049E000318682A2100C601C60A4C08F3004B084F
:1004AE00F2004A08F1004908F0009C310C24823118
:1004BE0073082100CC007208CB007108CA007008C6
:1004CE00C9002100C701C80122004C082100B70055
:1004DE0022004B082100B60046080319812A46085F
:1004EE00031D7B2A2B307C2A2D30AA000030AB0056
:1004FE002A08C6004C08F3004B08F2004A08F10027
:10050E004908F0009031B520823170037104031D4B
:10051E00B82A210046080319A02A46082400A00084
:10052E00FF302100B607FF30B73D0130C700003065
:10053E00C8008230F0009830F1004708203E9C3110
:10054E00A9248231FD302100B607FF30B73D20309F
:10055E00FB003708FD003608FC00330890310F20F1
:10056E00080021004C08F3004B08F2004A08F10085
:10057E004908F0009031B520823170087104031DD6
:10058E00F02A210046080319D82A46082400A000A4
:10059E00FF302100B607FF30B73D0130C7000030F5
:1005AE00C8008630F0009830F1004708203E9C319C
:1005BE00A9248231FD302100B607FF30B73D20302F
:1005CE00FB003708FD003608FC00330890310F2081
:1005DE0008003F302100D0008030CF000030CE0028
:1005EE000030CD00B401B5014C08F3004B08F20009
:1005FE004A08F1004908F0000030F7000030F6001C
:10060E000030F5000030F4009E31B4268231031C18
:10061E001E2B1C2C21003B08D0003A08CF003908B5
:10062E00CE003808CD000130B4070030B53D413062
:10063E002000A3002030A2000030A1000030A00056
:10064E00210050082000A70021004F082000A6001E
:10065E0021004E082000A50021004D082000A40016
:10066E00803112208231200023082100BB0020009F
:10067E0022082100BA00200021082100B900200024
:10068E0020082100B80038084902A00039084A3B6A
:10069E00A1003A084B3BA2003B084C3BA3002308A9
:1006AE00F3002208F2002108F1002008F0009D312D
:1006BE0022258231F31B112B7308031D702B720838
:1006CE00031D702B7108031D702B02307002031C6A
:1006DE00112B21003B082000BD0021003A0820000C
:1006EE00BC00210039082000BB0021003808200082
:1006FE00BA0021004C082000C10021004B08200048
:10070E00C00021004A082000BF0021004908200037
:10071E00BE0091312D218231031C112B21004D0879
:10072E004902A0004E084A3BA1004F084B3BA200D5
:10073E0050084C3BA3002308F3002208F2002108C6
:10074E00F1002008F0009D3122258231F31BBC2BD5
:10075E007308031DF72B7208031DF72B7108031D79
:10076E00F72B023070020318F72B21005008CC0033
:10077E004F08CB004E08CA004D08C9001C2C413052
:10078E002000BD002030BC000030BB000030BA009D
:10079E00210050082000C10021004F082000C00099
:1007AE0021004E082000BF0021004D082000BE0091
:1007BE0096319026823120003D082100D000200085
:1007CE003C082100CF0020003B082100CE00200075
:1007DE003A082100CD00FF30B407FF30B53D962B0F
:1007EE0021004C082000BD0021004B082000BC0059
:1007FE0021004A082000BB00210049082000BA0051
:10080E00210050082000C10021004F082000C00028
:10081E0021004E082000BF0021004D082000BE0020
:10082E0091312D218231031CC62B20006C08210032
:10083E00AD002D08AE002200CE1B2D2C4E0821003F
:10084E00A70022004D082100A600322C0630210000
:10085E00A6000030A7002708B2002608B10001301C
:10086E00B1070030B23D66302E06031D522CB51F67
:10087E004A2C3F30D0008030CF000030CE00003008
:10088E00CD00B401B50167302D060319522C340882
:10089E00B1073508B23DBC01BD014C08C1004B0883
:1008AE00C0004A08BF004908BE005008BB004F08F0
:1008BE00BA004E08B9004D08B8003D08803AA000B5
:1008CE003208803A2002031D6E2C31083C020318B8
:1008DE003E2D210050082000BD0021004F082000B1
:1008EE00BC0021004E082000BB0021004D08200056
:1008FE00BA00210041082000C1002100400820005C
:10090E00C00021003F082000BF0021003E0820004B
:10091E00BE0096319026823120003D08D7003C085B
:10092E00D6003B08D5003A08D4009231C722823156
:10093E00200057082100C500200056082100C400E1
:10094E00200055082100C300200054082100C200D9
:10095E004508F3004408F2004308F1004208F00095
:10096E009F319F27823171082100B0007008AF00BF
:10097E0050082000A70021004F082000A6002100EB
:10098E004E082000A50021004D082000A4002100E3
:10099E0045082000A300210044082000A2002100E9
:1009AE0043082000A100210042082000A000803151
:1009BE001220823120002308BD002208BC0021082D
:1009CE00BB002008BA00210041082000C100210010
:1009DE0040082000C00021003F082000BF00210079
:1009EE003E082000BE009D310325823120003D08C7
:1009FE002100C10020003C082100C00020003B085F
:100A0E002100BF0020003A082100BE004130200026
:100A1E00BD002030BC000030BB000030BA00210009
:100A2E0050082000C10021004F082000C000210006
:100A3E004E082000BF0021004D082000BE00963158
:100A4E009026823120003D082100D00020003C0875
:100A5E002100CF0020003B082100CE0020003A08E4
:100A6E002100CD000130BC070030BD3D642C40306C
:100A7E002000A300A030A2000030A1000030A00092
:100A8E00210050082000A70021004F082000A600DA
:100A9E0021004E082000A50021004D082000A400D2
:100AAE00803112208231200023082100C500200051
:100ABE0022082100C400200021082100C3002000CC
:100ACE0020082100C20041082000BD00210040087E
:100ADE002000BC0021003F082000BB0021003E0882
:100AEE002000BA00210045082000C1002100440862
:100AFE002000C000210043082000BF002100420852
:100B0E002000BE0091312D2182310318912D00302D
:100B1E002100AB2D21004108F3004008F2003F08F0
:100B2E00F1003E08F0004508F7004408F6004308BF
:100B3E00F5004208F4009E31B4268231031CB22D1A
:100B4E0021002F18B22D0030C5000030C400003037
:100B5E00C3000030C20021004508F3004408F20033
:100B6E004308F1004208F0004C08F7004B08F6006D
:100B7E004A08F5004908F400883173208231730861
:100B8E002100C1007208C0007108BF007008BE00CD
:100B9E0041082000BD00210040082000BC002100BB
:100BAE003F082000BB0021003E082000BA00413063
:100BBE00A3002030A2000030A1000030A0002100D0
:100BCE003B082000A70021003A082000A6002100C3
:100BDE0039082000A500210038082000A40080312B
:100BEE001220823120002308C1002208C0002108F3
:100BFE00BF002008BE0091312D218231031C402EF2
:100C0E0001302100B4070030B53D41302000A30073
:100C1E002030A2000030A1000030A00021003B08CF
:100C2E002000A70021003A082000A6002100390864
:100C3E002000A500210038082000A40080311220D9
:100C4E008231200023082100BB0020002208210051
:100C5E00BA00200021082100B90020002008210040
:100C6E00B80066302E06031D402E0130B10700304D
:100C7E00B23D21003B08D0003A08CF003908CE0023
:100C8E003808CD003508A5003408A400AC01A80131
:100C9E00A901BC01BD017F2F210050082000BD001D
:100CAE0021004F082000BC0021004E082000BB0090
:100CBE0021004D082000BA00210041082000C1008B
:100CCE00210040082000C00021003F082000BF0086
:100CDE0021003E082000BE00963190268231200071
:100CEE003D08D7003C08D6003B08D5003A08D40092
:100CFE009231C7228231200057082100C500200002
:100D0E0056082100C400200055082100C300200011
:100D1E0054082100C2004508F3004408F2004308BD
:100D2E00F1004208F0009F319F2782317108803A0E
:100D3E002100A00080302002031DA72E0A30700271
:100D4E000318BB2E21004508F3004408F2004308A7
:100D5E00F1004208F0009F319F2782317108210077
:100D6E00B0007008AF00C02E09302100AF00003077
:100D7E00B0002C080319A51FD52E4708203E86006B
:100D8E00023087002E3081000130C7070030C83D89
:100D9E00FF30B607FF30B73DAC01AC0A2808290476
:100DAE000319ED2E4708203E8600023087003030B2
:100DBE0081000130C7070030C83DFF30B607FF3055
:100DCE00B73DFF30A807FF30A93DD52E4708203E7E
:100DDE008600023087002F08303E81000130C707A1
:100DEE000030C83DFF30B607FF30B73D5008200039
:100DFE00A70021004F082000A60021004E08200069
:100E0E00A50021004D082000A40021004508200067
:100E1E00A300210044082000A20021004308200066
:100E2E00A100210042082000A00080311220823152
:100E3E0020002308BD002208BC002108BB002008AA
:100E4E00BA00210041082000C10021004008200006
:100E5E00C00021003F082000BF0021003E082000F6
:100E6E00BE009D310325823120003D082100C100C6
:100E7E0020003C082100C00020003B082100BF00DC
:100E8E0020003A082100BE0041302000BD00203075
:100E9E00BC000030BB000030BA002100500820001A
:100EAE00C10021004F082000C00021004E08200084
:100EBE00BF0021004D082000BE00963190268231E1
:100ECE0020003D082100D00020003C082100CF006A
:100EDE0020003B082100CE0020003A082100CD0062
:100EEE00FF30A407FF30A53D0130BC070030BD3DEB
:100EFE003D08803AA0003208803A2002031D892F57
:100F0E0031083C020318972F21004808803AA000B0
:100F1E0080302002031D952F4B304702031C532EA9
:100F2E004F302100BC000030BD003C08203E860042
:100F3E000230870081012030F0004808F200470897
:100F4E00F1002030A000470820023C079D316325A8
:100F5E008231210047083C02C70048083D3BC800CB
:100F6E0046080319BC2F0130BD2F0030A000A1018F
:100F7E002008BC002108BD0046080319D12FFF3000
:100F8E00C707FF30C83D4708203E86000230870065
:100F9E00460881003C08B6023D08B73B4708203E94
:100FAE00FB003708FD003608FC00330890310F2097
:100FBE0008000630840090308500D4308600013061
:100FCE00870009308831002087312100EF0143303E
:100FDE008400013085000C309031002087312030A4
:100FEE0084000230850050309031002020008C317A
:100FFE00032CFE0012001E00FE0B012800342200FE
:10100E000F148F100F111030890B0B2800002000C9
:10101E000F1E15280F1A1128313008008F1E1B289D
:10102E008F1A1728343008000F1F21280F1B1D2878
:10103E00373008008F1F27288F1B23282A300800DF
:10104E0022000F108F140F111030890B2C28000066
:10105E0020000F1E36280F1A3228323008008F1E3D
:10106E003C288F1A3828353008000F1F42280F1BD6
:10107E003E28383008008F1F48288F1B44283030F8
:10108E00080022000F108F100F151030890B4D28FD
:10109E00000020000F1E57280F1A53283330080067
:1010AE008F1E5D288F1A5928363008000F1F6328AF
:1010BE000F1B5F28393008008F1F69288F1B65288A
:1010CE002330080022000F108F100F111030890BE3
:1010DE006E2800002030080073088039F800733540
:1010EE00FA00F21B7A147A0803198B287A0A031D68
:1010FE0088280030F3000030F2000030F10000309C
:10110E00F000F217F30193280030F3000030F200E4
:10111E000030F1000030F00077088039F9007908CE
:10112E007806031D78177735F900F61B79147908C0
:10113E000319AF28790A031DAC280030F7000030E0
:10114E00F6000030F5000030F400F617F701B7286E
:10115E000030F7000030F6000030F5000030F400EB
:10116E007A0879020318E028781FC2288030200000
:10117E00A0002008F8067A08FB007908FA007B0820
:10118E00F9007008FB007408F0007B08F400710889
:10119E00FB007508F1007B08F5007208FB0076086D
:1011AE00F2007B08F6007308FB007708F3007B085B
:1011BE00F700FB0179082000A000A1012108A3007F
:1011CE007A082002A200031CA3032308803AA4007D
:1011DE0080302402031DF5281A302202031C232915
:1011EE0073087204710470040319FF28013000297A
:1011FE000030FB000030F3000030F2000030F10050
:10120E000030F0007908FA0027297B1C12297B3662
:10121E000138FB0014290310FB0C7018FB1701306A
:10122E002000A000F337F20CF10CF00CA00B1929E2
:10123E000130A0002008FA0779087A02031C0C2955
:10124E00781B57297A08031D35290030F30000302A
:10125E00F2000030F1000030F00008007408F007D2
:10126E007508F13D7608F23D7708F33D731CD229DF
:10127E007B1C45297B360138FB0047290310FB0CEC
:10128E007018FB1701302000A000F337F20CF10CA0
:10129E00F00CA00B4C290130A0002008FA07D2292F
:1012AE007308803A2000A0007708803A2002031DC0
:1012BE006A2976087202031D6A2975087102031DD8
:1012CE006A29740870020318A229FF30A000FF30AB
:1012DE00A100FF30A200FF30A30070087402A4002A
:1012EE007108753BA5007208763BA6007308773B24
:1012FE00A7002408A0072508A13D2608A23D27081F
:10130E00A33D2308F3002208F2002108F100200873
:10131E00F0008030A0002008F806FB09FB0A7B08CD
:10132E00031DAA290130F0070030F13D0030F23DD7
:10133E000030F33DAA297408F0027508F13B7608D7
:10134E00F23B7708F33B7308720471047004031DBB
:10135E00D0297B08031DD0290030F3000030F200A5
:10136E000030F1000030F00008000130F035F10DD2
:10137E00F20DF30D890BBD29FB1B70147B1CC929C3
:10138E000314CA290310FB0D7A080319D029013062
:10139E00FA02F21FBC29F901FB1FDD297B087F39F8
:1013AE0003197018DB29DD29F901F90A79080319E7
:1013BE000A2A0130F0070030F13D0030F23D0030D6
:1013CE00F33D731C0A2A70082000A0007108A100CA
:1013DE007208A2007308A3000130A400A337A20C68
:1013EE00A10CA00CA40BF5292308F3002208F2008F
:1013FE002108F1002008F0007A0A03190A2A0130A8
:10140E00A0002008FA077A0A031D7A08031D1A2A7B
:10141E000030F3000030F2000030F1000030F00038
:10142E007A080319F8017A1C1E2AF217232A7F3034
:10143E002000A0002008F2057A36F300F81F0800FD
:10144E00F31708002100DE0020006D0886008701DA
:10145E00403F2100D100413FD20051088400520884
:10146E0085001200253A031DE92B20006D08860029
:10147E0087010130810741310318810A2200CB0117
:10148E00CC0103100030031801302100EF00FF30B3
:10149E002200CD00FF30CE0020006D0886008701AF
:1014AE00403F2100D100413FD20051088400520834
:1014BE00850012002E3A031DCD2A2200CD01CE0149
:1014CE0020006D0886008701013081074131031825
:1014DE00810A6D0886008701403F2100D100413FFF
:1014EE00D200510884005208850012002A3A031DCA
:1014FE00982A20006D08860087010130810741314E
:10150E000318810A6E0886000130870001088400E6
:10151E00850102308107003F2200CD00013FCE0041
:10152E00CD2A20006D0886008701403FF600413F1E
:10153E00F7009131A9218A3177082200CE00760872
:10154E00CD0020006D0886008701403F2100D100AC
:10155E00413FD20051088400520885000008D03E59
:10156E00D300FF3003180030D400003054020A308C
:10157E00031953020318CD2A20006D088600870137
:10158E000130810741310318810AA82A20006D0815
:10159E0086008701403F2100DF00413FE0005F08E9
:1015AE008400600885001200643A0319E62A5F0879
:1015BE008400600885001200693A031D352B200057
:1015CE006E08860001308700010884008501023014
:1015DE008107003F2100D100013FD2005108D50004
:1015EE005208D600890D893B8909D700D800D90049
:1015FE00DA00DB00DC005F08013ED1000030603D08
:10160E00D20020006D088600870121005108C03FDE
:10161E005208C13F55082000B00021005608200096
:10162E00B100210057082000B20021005808200008
:10163E00B300210059082000B40021005A082000F0
:10164E00B50021005B082000B60021005C082000D8
:10165E00B70021005E0895316E25080020006D0848
:10166E0086008701403F2100DF00413FE0005F0818
:10167E008400600885000008DD004F2B0130DF0775
:10168E000030E03D622B6C30DD00622BDD01622B01
:10169E005D08D100D2015208003A0319572B4D2B89
:1016AE0051084C3A0319452B2A3A03194A2B0A3A88
:1016BE000319452B4D2B5F0884006008850012002E
:1016CE00663A0319922BDF2B20006E08860001303C
:1016DE00870001088400850104308107003F210046
:1016EE00D500013FD600023FD700033F902B2000CC
:1016FE006E088600013087000108840085010430E1
:10170E008107003F2100D500013FD600023FD700E0
:10171E00033FD800A22B5D08D100D2015208003A37
:10172E0003199A2BA22B51084C3A03197E2B203AFF
:10173E0003196B2BA22B5F08013ED1000030603DD8
:10174E00D20020006D088600870121005108C03F9D
:10175E005208C13FCE2B58082000EB00210057083D
:10176E002000EA00210056082000E900210055085B
:10177E002000E80021005F08840060088500000852
:10178E002000EC0021005E088231222208005F0852
:10179E008400600885000008D100D2015208003A8A
:1017AE000319DA2BDF2B5108663A0319B22BDF2B04
:1017BE0020006D0886008701013081074131031832
:1017CE00810A080020006D0886008701403F210035
:1017DE00D100413FD2005108840052088500000814
:1017EE00D300D4015308F0005408F1005E08F20053
:1017FE009E31FC268A31DF2BF03021008F00230032
:10180E008F0121008D018E01FF3023008C009E314F
:10181E002E268C3128309D31D0258C310C309D31C7
:10182E00D0258C3106309D31D0258C3101309D3143
:10183E00D0258C3182309D31D0258C315630F2003E
:10184E009830F3009C3115248C31C4309D31D02555
:10185E008C316230F2009830F3009C3115248C31BB
:10186E007D302200C0004A30BF00D930890B3D2C9C
:10187E00BF0B3D2CC00B3D2C003201309D31D025CD
:10188E008C31803108208C3123005A08CF005B0840
:10189E00D0005C08D100D430860001308700C930FA
:1018AE0084000130850006302200BF0016001A00A9
:1018BE00BF0B5D2C2300BD01BE01BF01C001C101E4
:1018CE00C201C701C801D201D301BB01BB0ABC01D1
:1018DE00B601762E3D083E040319A52C80309D31AD
:1018EE00D0258C310030F2009830F3009C31152455
:1018FE008C31C0309D31D0258C3123003E08220022
:10190E00AC0023003D082200AB009C3172248C31C8
:10191E0032302200C000B830BF002230890B952C27
:10192E00BF0B952CC00B952C00002300BB01BC01F6
:10193E00BC0A01309D31D0258C31762E80309D3100
:10194E00D0258C312E30F2009830F3009C311524C6
:10195E008C31C0309D31D0258C31CF30F20001302A
:10196E00F3009C3115248C31883106208C312300F4
:10197E00C50023304506031D0D2D01309D31D025A8
:10198E008C3123005108D03EA800FF3003180030E0
:10199E00A9005008D03EAA00FF3003180030AB005B
:1019AE004F08D03EAC00FF3003180030AD002D08BC
:1019BE00F1002C08F0006430F2000030F3009C318E
:1019CE0057248C3170082200BF007108C00023001C
:1019DE002B08F1002A08F0000A30F2000030F30064
:1019EE009C3157248C31700822003F07C1007108CA
:1019FE00403DC20023002808220041072300BD00FD
:101A0E0029082200423D2300BE00762E2A304506CC
:101A1E00031D312D47034804031D182D3030D1000E
:101A2E002D2D023047064804031D222D5008D100EB
:101A3E003030D0002D2D033047064804031D762E7E
:101A4E005008D1004F08D0003030CF00FF30C7070C
:101A5E00FF304B2D203045060319762E47084804DB
:101A6E000319462D470348040319442D0230470637
:101A7E004804031D762E5008CF005108D0004508AB
:101A8E00D1000130C7070030C83D762E3F08400414
:101A9E00031D552D410842040319BD2D80309D3183
:101AAE00D0258C313C30F2009830F3009C31152457
:101ABE008C31C0309D31D0258C312300400822005E
:101ACE00AC0023003F082200AB009C3172248C3105
:101ADE003A309D31FE258C31230042082200AC00A5
:101AEE00230041082200AB009C3172248C3132302D
:101AFE002200C000B830BF002230890B842DBF0BEE
:101B0E00842DC00B842D000001309D31D0258C31E9
:101B1E0080309D31D0258C311030F2009830F3009A
:101B2E009C3115248C31C0309D31D0258C316B30D9
:101B3E00F2009830F3009C3115248C3132302200A3
:101B4E00C000B830BF002230890BAB2DBF0BAB2DC0
:101B5E00C00BAB2D000001309D31D0258C31230000
:101B6E00BC01B601B60A20000E14762E80309D31CF
:101B7E00D0258C314A30F2009830F3009C31152478
:101B8E008C31C0309D31D0258C31C930F2000130FE
:101B9E00F3009C3115248C31883106208C312300C2
:101BAE00C60023304606031D222E01309D31D0255E
:101BBE008C3123004A08D03EAE00FF3003180030AF
:101BCE00AF004908D03EB000FF3003180030B1001E
:101BDE004D08D03EB200FF3003180030B3004C0861
:101BEE00D03EB400FF3003180030B5003108F100CC
:101BFE003008F0000A30F2000030F3009C31572418
:101C0E008C3123002E087007BF002F08713DC000D5
:101C1E003508F1003408F0000A30F2000030F3000D
:101C2E009C3157248C31230032087007C1003308D1
:101C3E00713DC200762E2A304606031D542E5203E5
:101C4E005304031D2D2E3030CD00502E023052067F
:101C5E005304031D372E4C08CD003030CC00502ECF
:101C6E00033052065304031D432E4C08CD004A0880
:101C7E00CC003030CA00502E043052065304031DDF
:101C8E00762E4C08CD004A08CC004908CA003030E8
:101C9E00C900FF30D207FF30752E203046060319DB
:101CAE00762E520853040319702E5203530403194F
:101CBE006E2E02305206530403196C2E0330520658
:101CCE005304031D762E4A08C9004C08CA004D085D
:101CDE00CC004608CD000130D2070030D33D2300A2
:101CEE003B08031D712C3C08031D4D2D3C08031DA4
:101CFE00762E3B08031D762E36080319D32F400887
:101D0E00F1003F08F0001030F2000E30F3009C316D
:101D1E0057248C3170082200BF007108C0002300C8
:101D2E004208F1004108F0003C30F2000030F300B0
:101D3E009C3157248C31700822003F072300C300CA
:101D4E0071082200403D2300C40023004408803A5D
:101D5E002200BF0080303F02031DB82E0130230049
:101D6E004302031CCC2F80309D31D0258C31103096
:101D7E00F7000E30F80023004408FA004308F9007B
:101D8E009F314D278C3178082200AC007708AB00CC
:101D9E009C3172248C313A309D31FE258C313C3091
:101DAE00F7000030F80023004408F3004308F20067
:101DBE001030F0000E30F1009E316F268C3171081C
:101DCE00FA007008F9009F314D278C3178082200F7
:101DDE00AC007708AB009C3172248C313A309D31C7
:101DEE00FE258C313C30F0000030F1002300440819
:101DFE00F3004308F2009E316F268C3171082200E9
:101E0E00AC007008AB009C3172248C31C0309D3117
:101E1E00D0258C3100302000D400D50090313F20E9
:101E2E008C31200057082300A30020005608230001
:101E3E00A200200055082300A10020005408230012
:101E4E00A00042302000A300C830A2000030A10044
:101E5E000030A000230023082000A7002300220842
:101E6E002000A600230021082000A5002300200842
:101E7E002000A400803112208C3120002308230082
:101E8E00BA00200022082300B900200021082300F8
:101E9E00B800200020082300B7007230F2009830FE
:101EAE00F3009C3115248C3123003A082200AE0039
:101EBE00230039082200AD00230038082200AC00B0
:101ECE00230037082200AB009D3186258C31193056
:101EDE002200C0009C30BF00ED30890B742FBF0B69
:101EEE00742FC00B742F003201309D31D0258C31F0
:101EFE00FF302300C307FF30C43D3D08053EF00010
:101F0E0000303E3DF100F201F11BF2037208F300C6
:101F1E000130923134228C3173082300A7007208ED
:101F2E00A6007108A5007008A40027082000BD00B7
:101F3E00230026082000BC00230025082000BB003B
:101F4E00230024082000BA0023003A082000C10014
:101F5E00230039082000C000230038082000BF00ED
:101F6E00230037082000BE0091312D218C31031C37
:101F7E00C62F22000E148E100E118E15AC2E2200BE
:101F8E000E108E140E158E11AC2E22000E108E1405
:101F9E000E118E152300B60180309D31D0258C3167
:101FAE001F30F2009830F3009C3115248C31C6306E
:101FBE009D31D0258C317830F2009830F3009C3171
:101FCE0015248C317D302200C0004A30BF00D9303C
:101FDE00890BEF2FBF0BEF2FC00BEF2F003223001B
:101FEE00BB01BB0ABD01BE01BF01C001C101C201DF
:101FFE00762E640080010131890B012800343034C3
:10200E0030343A34303430340034303430343034C8
:10201E002000A900FD1B18287D08A8007C08A70039
:10202E001A28A701A801A501A6012608803AA40036
:10203E002808803A2402031D2628270825020318A3
:10204E0038282030F0000030F10020002908F2007E
:10205E009E31FC26903101302000A5070030A63DB0
:10206E001C2820002908F8007B089D314125080016
:10207E00200054085504031D4828833021009D0577
:10208E005B2854035504031D512821001D08833974
:10209E0004385A28023054065504031D5B282100CB
:1020AE001D08833920389D0007302000D8005B3092
:1020BE00890B5F28D80B5F28003221009D149D14D8
:1020CE009D1867281C081B082000D800D901580845
:1020DE00DE005908DF004430BD007F30BC00C03048
:1020EE00BB000030BA004030A300A030A200003088
:1020FE00A1000030A0005E08F0005F08F100F201C0
:10210E00F301003092313422903173082000A70081
:10211E007208A6007108A5007008A4008031122074
:10212E00903120002308C1002208C0002108BF0002
:10213E002008BE009631902620003D08DD003C08A8
:10214E00DC003B08DB003A08DA005D08D7005C08CB
:10215E00D6005B08D5005A08D400080022004A08B1
:10216E002000A500220049082000A40022004808F3
:10217E002000A300220047082000A2007308A5003B
:10218E007208A4007108A3007008A2002208F400CF
:10219E002308F5002408F6002508F7001730F73657
:1021AE00F60CF50CF40C890BD628FF307405A00044
:1021BE0000307505A10020082104031D0529220801
:1021CE00F4002308F5002408F6002508F700013076
:1021DE00F435F50DF60DF70D890BEF28770876041B
:1021EE0075047404031D00290230F0000030F10064
:1021FE0008000330F0000030F1000800200A21042E
:10220E00031D28292208F4002308F5002408F600EF
:10221E002508F7000930F435F50DF60DF70D890B8D
:10222E0012297708760475047404031D20290130E1
:10223E0021290030F800F9017808F0007908F10042
:10224E0008000430F0000030F100080000302000DB
:10225E003A05C20000303B05C30080303C05C40087
:10226E007F303D05C5004508440443044204031D68
:10227E0048290030BD000030BC000030BB000030EB
:10228E00BA0000303E05C20000303F05C30080306A
:10229E004005C4007F304105C50045084404430491
:1022AE004204031D62290030C1000030C00000301E
:1022BE00BF000030BE00BD1F7C290030C2000030C0
:1022CE00C3000030C4008030C5003A08C2023B088B
:1022DE00C33B3C08C43B3D08C53B4508BD00440814
:1022EE00BC004308BB004208BA00C11F962900304B
:1022FE00C2000030C3000030C4008030C5003E086C
:10230E00C2023F08C33B4008C43B4108C53B4508D9
:10231E00C1004408C0004308BF004208BE00803020
:10232E00BD068030C10641083D02031D080040086D
:10233E003C02031D08003F083B02031D08003E0837
:10234E003A0208002000A201A301A001A101760813
:10235E008400770885001200203A031DBB29013046
:10236E00F6070030F73DAE29760884007708850021
:10237E000008F73EF800FF3003180030F900003077
:10238E0079020530031978020318D429B6290130D1
:10239E002000A0000030A100082A760884007708EB
:1023AE0085000008F800F9017908003A0319E029C0
:1023BE000C2A78082B3A0319082A063A0319CE2953
:1023CE000C2A76088400770885000008F8002000A3
:1023DE002308F1002208F0000A30F2000030F3006A
:1023EE009C31572491317108FA0078087002F90077
:1023FE00031CFA037908303E2000A20000307A3D1B
:10240E00A3000130F6070030F73D76088400770808
:10241E0085000008D03EF800FF3003180030F900A8
:10242E00003079020A3003197802031CE8292000D3
:10243E0020082104031D2F2A2209F8002309F90080
:10244E00F80A0319F90A7808F6007908F700080067
:10245E002308F7002208F6000800F8007808031D8C
:10246E00F31F492A7009FA007109FB007209FC007A
:10247E007309FD00FA0A0319FB0A0319FC0A031972
:10248E00FD0A512A7308FD007208FC007108FB005A
:10249E007008FA007308720471047004031D602A38
:1024AE000030F3000030F2000030F1000030F00098
:1024BE0008009630F900FE307D050319852A01309B
:1024CE00F4007408F9070130FD36FC0CFB0CFA0C15
:1024DE00890B6B2A622A0130F4007408F907013067
:1024EE00FA070030FB3D0030FC3D0030FD3D013071
:1024FE00FD36FC0CFB0CFA0C890B7F2AFF307D0598
:10250E000319972A722A02307902031C992A013084
:10251E00F9020130FA35FB0DFC0DFD0D890B912AE8
:10252E00FC1F8A2A7918A32AFF30FA05FF30FB0513
:10253E007F30FC05FF30FD050310F90C7908F4001F
:10254E00F501F601F7011830F435F50DF60DF70D1E
:10255E00890BAB2A7408FA047508FB047608FC0490
:10256E007708FD047808031DF31FBE2AFD177D08AA
:10257E00F3007C08F2007B08F1007A08F0000800F6
:10258E00220046082000E700220045082000E60051
:10259E00220044082000E500220043082000E40049
:1025AE005708E7005608E6005508E5005408E40011
:1025BE006408D8006508D9006608DA006708DB00F1
:1025CE001730DB36DA0CD90CD80C890BE82AFF3021
:1025DE005805DC0000305905DD005C08813EE20044
:1025EE00FF305D3DE3006308803AD800803058022A
:1025FE00031D032B17306202031808002000E31B93
:10260E00602BFF30D800FF30D9007F30DA00003069
:10261E00DB00620A162BDB37DA0CD90CD80C890BCF
:10262E00122B5B08E1005A08E0005908DF00580839
:10263E00DE0064085E05D80065085F05D9006608EF
:10264E006005DA0067086105DB005B085A0459046F
:10265E005804031908006408D8006508D9006608F4
:10266E00DA006708DB001F30DB36DA0CD90CD80C29
:10267E00890B3B2B5B085A045904580403194F2B42
:10268E005E08E4075F08E53D6008E63D6108E73D4A
:10269E005E09D8005F09D9006009DA006109DB0024
:1026AE005808E4055908E5055A08E6055B08E705EC
:1026BE00962B6408D8006508D9006608DA0067080A
:1026CE00DB001F30DB36DA0CD90CD80C890B692BEA
:1026DE005B085A0459045804031D792B0030E70097
:1026EE000030912B6408D8006508D9006608DA001E
:1026FE006708DB000130D835D90DDA0DDB0D890BFB
:10270E00822B5B085A04590458040319962BBF30C8
:10271E00E7008030E6000030E5000030E400670896
:10272E00D7006608D6006508D5006408D4000800F6
:10273E00F2012830860000308700473FF000F01F7E
:10274E00C92B2000A809A909AA09AB09AC09AD0932
:10275E00AE09AF09A80A031DC72BA90A031DC72B73
:10276E00AA0A031DC72BAB0A031DC72BAC0A031DF8
:10277E00C72BAD0A031DC72BAE0A031DC72BAF0A0D
:10278E00F201F20A2030860000308700473FF00049
:10279E00F01FF02B2000A009A109A209A309A4098A
:1027AE00A509A609A709A00A031DF02BA10A031D5E
:1027BE00F02BA20A031DF02BA30A031DF02BA40A73
:1027CE00031DF02BA50A031DF02BA60A031DF02BEB
:1027DE00A70A20002008210422042304240425042F
:1027EE00260427040319482CF101F10AA71B0C2C0F
:1027FE00A035A10DA20DA30DA40DA50DA60DA70D1F
:10280E000130F0007008F107FD2B27082F02031D81
:10281E002A2C26082E02031D2A2C25082D02031D04
:10282E002A2C24082C02031D2A2C23082B02031DFC
:10283E002A2C22082A02031D2A2C21082902031DF4
:10284E002A2C20082802031C3C2C2008A802210850
:10285E00A93B2208AA3B2308AB3B2408AC3B250826
:10286E00AD3B2608AE3B2708AF3BA736A60CA50C02
:10287E00A40CA30CA20CA10CA00C0130F102031DA0
:10288E000C2C72080319692CA809A909AA09AB090D
:10289E00AC09AD09AE09AF09A80A031D692CA90A36
:1028AE00031D692CAA0A031D692CAB0A031D692C92
:1028BE00AC0A031D692CAD0A031D692CAE0A031D5B
:1028CE00692CAF0A20002808A0002908A1002A08B8
:1028DE00A2002B08A3002C08A4002D08A5002E088A
:1028EE00A6002F08A7000800F20120308600003055
:1028FE008700473FF000F01FA52C2000A009A1097A
:10290E00A209A309A409A509A609A709A00A031DDE
:10291E00A32CA10A031DA32CA20A031DA32CA30AF8
:10292E00031DA32CA40A031DA32CA50A031DA32C6F
:10293E00A60A031DA32CA70AF201F20A283086006C
:10294E0000308700473FF000F01FD02C2000A80970
:10295E00A909AA09AB09AC09AD09AE09AF09A80AC4
:10296E00031DCC2CA90A031DCC2CAA0A031DCC2CAA
:10297E00AB0A031DCC2CAC0A031DCC2CAD0A031DD7
:10298E00CC2CAE0A031DCC2CAF0A0130F00070081F
:10299E00F20673308600003087000830F0000030F9
:1029AE001E00F00BD72C2000200821042204230443
:1029BE00240425042604270403193B2DF101F10AF2
:1029CE00A71BF62CA035A10DA20DA30DA40DA50DD0
:1029DE00A60DA70D0130F0007008F107E72CF335B6
:1029EE00F40DF50DF60DF70DF80DF90DFA0D27088E
:1029FE002F02031D1C2D26082E02031D1C2D25083B
:102A0E002D02031D1C2D24082C02031D1C2D230832
:102A1E002B02031D1C2D22082A02031D1C2D21082A
:102A2E002902031D1C2D20082802031C2F2D20080F
:102A3E00A8022108A93B2208AA3B2308AB3B240885
:102A4E00AC3B2508AD3B2608AE3B2708AF3B7314C5
:102A5E00A736A60CA50CA40CA30CA20CA10CA00CC2
:102A6E000130F102031DF62C720803195C2DF309D7
:102A7E00F409F509F609F709F809F909FA09F30A4B
:102A8E00031D5C2DF40A031D5C2DF50A031D5C2D40
:102A9E00F60A031D5C2DF70A031D5C2DF80A031DB3
:102AAE005C2DF90A031D5C2DFA0A73082000A000A4
:102ABE007408A1007508A2007608A3007708A40088
:102ACE007808A5007908A6007A08A700080020005B
:102ADE00BB003008C0003108C1003208C200330804
:102AEE00C3003408C4003508C5003608C6003708D0
:102AFE00C7004030860000308700473FB800B81F3F
:102B0E008A2D01308B2D00302000CA004A0803198F
:102B1E00AE2DC009C109C209C309C409C509C60938
:102B2E00C709C00A031DAE2DC10A031DAE2DC20A70
:102B3E00031DAE2DC30A031DAE2DC40A031DAE2DFB
:102B4E00C50A031DAE2DC60A031DAE2DC70A2200EF
:102B5E004E08803A2000B80080303802031DBA2D8E
:102B6E00013022004D020318C22D01302000BC009E
:102B7E000030BD00CA2D22004E082000BD002200EC
:102B8E004D082000BC0022004C082000BF0022008F
:102B9E004B082000BE004A080319E42DFF30BE0783
:102BAE00FF30BF3D4A08031DDE2D2B30DF2D2D30AB
:102BBE00B9000030BA003908CA004F30C8000030E2
:102BCE00C9002400EF016A2E20004008410442048F
:102BDE0043044404450446044704031D012E3D08E6
:102BEE00803AB80080303802031DFF2D01303C02C0
:102BFE00031C762EFF302000C807FF30C93D0A3077
:102C0E00A000A101A201A301A401A501A601A70193
:102C1E004008A8004108A9004208AA004308AB00DA
:102C2E004408AC004508AD004608AE004708AF00AA
:102C3E0093319F23953120002108F4002008F300E2
:102C4E009C31402495317308303E2000B80048086E
:102C5E00203E86000230870038088100FF30BC0716
:102C6E00FF30BD3DFF30BE07FF30BF3D0A30A00034
:102C7E00A101A201A301A401A501A601A70140087B
:102C8E00A8004108A9004208AA004308AB00440866
:102C9E00AC004508AD004608AE004708AF009431C1
:102CAE007B24953120002008C0002108C100220895
:102CBE00C2002308C3002408C4002508C500260846
:102CCE00C6002708C70020004908803AB8008030A7
:102CDE003802031D742E013048020318EB2D20001C
:102CEE004A080319852EFF30C807FF30C93D480832
:102CFE00203E8600023087004A0881004808203EA8
:102D0E00FB003F08FD003E08FC003B0890310F2001
:102D1E000800200041088039CB004135D200C01B8D
:102D2E00521452080319A92E520A031DA62E003062
:102D3E00C1000030C0000030BF000030BE00C01720
:102D4E00C101B12E0030C1000030C0000030BF0004
:102D5E000030BE003D088039C2004208CB063D352A
:102D6E00D300BC1B531453080319CB2E530A031D57
:102D7E00C82E0030BD000030BC000030BB0000305B
:102D8E00BA00BC17BD01D32E0030BD000030BC0010
:102D9E000030BB000030BA003D083C043B043A044E
:102DAE00031DF22E0030C1000030C0000030BF0005
:102DBE000030BE008030C0047F30C1044B08C2001A
:102DCE004208C1044108BD004008BC003F08BB00DA
:102DDE003E08BA0008005208031DFE2E0030BD004A
:102DEE000030BC000030BB000030BA0008005208B2
:102DFE00C200C3014308C50053084202C400031CAD
:102E0E00C50344087F3ECC000030453DCD0041084F
:102E1E00CA004008C9003F08C8003E08C70000307D
:102E2E00C1000030C0000030BF000030BE000030D6
:102E3E00D1000030D0000030CF000030CE00D301E2
:102E4E001A3053020318632F53080319452F01300C
:102E5E00C735C80DC90DCA0D890B2F2F0130BE35D0
:102E6E00BF0DC00DC10D890B362FD11B3E14013085
:102E7E00CE35CF0DD00DD10D890B3F2F3D084A0217
:102E8E00031D532F3C084902031D532F3B084802D4
:102E9E00031D532F3A084702031C5E2F51173A08A1
:102EAE00C7023B08C83B3C08C93B3D08CA3B013042
:102EBE00C2004208D307272F4A0849044804470492
:102ECE00031D4E14C01B802F0130BE35BF0DC00D2B
:102EDE00C10D890B6C2FD11B3E140130CE35CF0D99
:102EEE00D00DD10D890B752FFF30CC07FF30CD3DA6
:102EFE00692FD301D11F992FFF304E05C200FF302D
:102F0E004F05C300FF305005C4007F305105C5008A
:102F1E00450844044304420403193E18972F992F81
:102F2E00D301D30A53080319C22F0130BE07003054
:102F3E00BF3D0030C03D0030C13D411CC22F3E0898
:102F4E00C2003F08C3004008C4004108C50001305C
:102F5E00C600C537C40CC30CC20CC60BB02F450837
:102F6E00C1004408C0004308BF004208BE00013043
:102F7E00CC070030CD3D4D08803AC2008030420271
:102F8E00031DCB2FFF304C02031CDA2FFF30200025
:102F9E00CC000030CD000030C1000030C000003049
:102FAE00BF000030BE0020004D08803AC2008030C5
:102FBE004202031DE42F01304C020318F22F2000B1
:102FCE00CC01CD010030C1000030C0000030BF0088
:102FDE000030BE00CB0120004C08D200521CF92F4D
:102FEE00C017FD2F7F30C2004208C0055236C10007
:102FFE00E52E49346E34703475347434653464346B
:10300E002034543465346D3470342E3420343A34D4
:10301E0000344F34563445344E3420345334543403
:10302E0041345234543449344E344734203400340D
:10303E00543449344D3445345234203446344934B2
:10304E004E344934533448344534443400344534D2
:10305E006E347434653472342034543465346D34C3
:10306E0070342E3420343A34003449346E34703493
:10307E0075347434653464342034543469346D34A6
:10308E0065343A34003445346E34743465347234F5
:10309E002034543469346D3465343A3400344F344A
:1030AE00563445344E342034533459345334543416
:1030BE0045344D340034473452344F345534503443
:1030CE002D342034483400344E344F3457342E349B
:1030DE002E342E340034543445344D3450343A3476
:1030EE0000342A342A342A342A34003425342E3437
:1030FE0032346634003469346E34663400346E34DF
:10310E0061346E340034253464340034253466342E
:02311E0000347B
:103818007308720471047004031908008030F306F9
:103828000800720884007308850012000319080054
:10383800720884007308850000089D31FE259C31BC
:103848000130F2070030F33D152C7008D03EF2002D
:10385800FF30713DF300003073020A300319720221
:103868000318382C0130392C0030F400F5017408A5
:10387800F0007508F10008007408803AF5008030FF
:103888007502031D492C01307302031808007309DF
:10389800F5007409F600F50A0319F60A7508F3002D
:1038A8007608F4000800F401F501701C5F2C72081A
:1038B800F4077308F53D0130F235F30D890B602CE0
:1038C8000130F136F00C890B652C70087104031D6A
:1038D800592C7508F1007408F00008002D302100FB
:1038E800E7000130E8008A30E9009830EA00220059
:1038F8002C082100EC0022002B082100EB009D3150
:10390800A9259C312D30F2000130F3009C3115249B
:103918000800F401F40A2030700671040319A12C80
:103928007008F73EF200FF30713DF300003073027B
:103938000530031972020318F4017408F200F30148
:103948007208F0007308F1000800F7007108F5002C
:103958007008F4007708F6007608860002308700C1
:10396800F60A7508F3007408F200F40A0319F50A58
:1039780072088400730885000008C03F890803198D
:103988000800B02C2100E4006208E6006108E500A8
:103998002100650884006608850012000319E12CDF
:1039A800E5302000ED00210063082000EE00210032
:1039B80064088A3129229C31CC2CE101E2010800FB
:1039C800F800F401F5017008F200F3017208F6003E
:1039D8007308F700781CF42C7608F4077708F53D8F
:1039E8000130F635F70D890BF52C0310F80C780823
:1039F800031DEE2C7508F1007408F00008008030F3
:103A08002000BD064108F3004008F2003F08F1001D
:103A18003E08F0003D08F7003C08F6003B08F500BA
:103A28003A08F4008831732073082000BD0072083A
:103A3800BC007108BB007008BA000800F31B312DE8
:103A48007308031D08007208031D08007108031D90
:103A5800080001307002031808007009F0007109AD
:103A6800F1007209F2007309F300F00A0319F10A70
:103A78000319F20A0319F30A08002000A300A101A0
:103A8800A20121082307F90079088600023087007F
:103A98000108A0002008031908002008F900FA010D
:103AA8007908F0007A08F1007808F2009E31FC26C7
:103AB8009D3101302000A1070030A23D452DF500C1
:103AC8007008F7007508F6000130F1020030F23B8B
:103AD800710A0319720A0319080077088600023070
:103AE80087000108F4000130F3007308F70776082F
:103AF800860002308700740881000130F3007308E3
:103B0800F607682D2F302100E7000130E8007D30EE
:103B1800E9009830EA0022002E082100EE00220079
:103B28002D082100ED0022002C082100EC002200C5
:103B38002B082100EB009D31A9259D312F30F20083
:103B48000130F3009C3115240800EB302200A0005E
:103B5800210068082200A200210067082200A100B5
:103B6800A301A401A901AA0121006A08E2006908C9
:103B7800E1002030E30021309C31C6240230213E90
:103B8800860001308700403F210067078400413FDD
:103B9800683D850080010800F1007108F0000430DC
:103BA800F036890BD42D70080F39103E22008D0095
:103BB8007108F0000430F036890BDF2D70080F39DA
:103BC8008D000D30F000B930890BE82DF00BE82D91
:103BD800000071080F39103E22008D0071080F395E
:103BE8008D000D30F000B930890BF82DF00BF82D51
:103BF80000000800F1007108F0000430F036890B6D
:103C0800022E70080F39303E22008D007108F00036
:103C18000430F036890B0D2E70080F39203E8D00C8
:103C28000D30F000B930890B172EF00B172E00005D
:103C380071080F39303E22008D0071080F39203E7F
:103C48008D000D30F000B930890B282EF00B282E8E
:103C5800000008000230F1007E30F000CE30890B01
:103C6800332EF00B332EF10B332E0032233022008B
:103C78008D0003308D008030F0004430890B422ED7
:103C8800F00B422E0032233022008D0003308D00CD
:103C98002030F000D030890B4F2EF00B4F2E003221
:103CA800233022008D0003308D002030F000D0300A
:103CB800890B5C2EF00B5C2E0032233022008D0025
:103CC80003308D002030F000D030890B692EF00BC6
:103CD800692E00320800F601F31F792EF209F30964
:103CE800F20A0319F30AF601F60AF11F802EF00909
:103CF800F109F00A0319F10A700871040319A72ED3
:103D0800F501F50AF11B922E0130F035F10D890B02
:103D1800892E0130F4007408F507862E71087302A5
:103D2800031D982E70087202031C9E2E7008F20262
:103D38007108F33B0130F136F00C890B9F2E0130EE
:103D4800F502031D922E76080319AF2EF209F30926
:103D5800F20A0319F30A7308F1007208F000080068
:103D680000307005F80000307105F90080307205E8
:103D7800FA007F307305FB007B087A047904780425
:103D8800031DCE2E0030F3000030F2000030F100A9
:103D98000030F00000307405F80000307505F900B7
:103DA80080307605FA007F307705FB007B087A04BF
:103DB80079047804031DE82E0030F7000030F6007F
:103DC8000030F5000030F40077087306031DF62E66
:103DD80076087206031DF62E75087106031DF62E69
:103DE800740870060319FA2E03100800031408005B
:103DF8007208031D7208031D052F70088031072003
:103E080008007208083E8600013087001600010489
:103E180003192C2F7208083E860001308700403FA6
:103E2800F300413FF4007208023E8600013087002B
:103E3800403FF500413FF6007608803AF7007408E5
:103E4800803A7702031D2A2F7308750203180800A9
:103E58007208023E86000130870072088400013033
:103E68008500403F0007F3000131413F003DF40069
:103E78007308860074088700700881007208023E83
:103E88008600013087000130810741310318810A1B
:103E980008002000A101F81F582FF709F809F70AB0
:103EA8000319F80AA101A10AFA1F632FF909FA09EF
:103EB800F90A0319FA0A0130FB007B08A106A201DE
:103EC800A301770878040319922FA001A00AF81B10
:103ED800772F0130F735F80D890B6E2F0130FB0075
:103EE8007B08A0076B2F0130A235A30D890B782F13
:103EF80078087A02031D822F77087902031C892F1C
:103F08007708F9027808FA3B22140130F836F70CE2
:103F1800890B8A2F0130A002031D772F210803196E
:103F28009A2FA209A309A20A0319A30A2308F800D1
:103F38002208F70008000310720D730DF9007908C4
:103F4800031DAF2F0030F3000030F2000030F10005
:103F58000030F00008007008F4007108F5007208DD
:103F6800F6007308F7001F30F736F60CF50CF40C62
:103F7800890BB82F7408F800F217FF30F005FF30EE
:103F8800F105FF30F2050030F3059630F902F91F0C
:103F9800E02F7908803A973E031CA62F0130F336AC
:103FA800F20CF10CF00C890BD32F0130F4007408DB
:103FB800F9070319F12FD22F203079020318A62F01
:103FC80079080319F12F0130F035F10DF20DF30DD9
:103FD800890BE82F0130F902E42F7808031908004B
:103FE800F009F109F209F309F00A0319F10A0319B2
:083FF800F20A0319F30A0800A4
:020000040001F9
:08000000FF3FFF3FFF3FFF3F00
:04000E00E209FF1CE8
:00000001FF
