:08000000803102288731DF2F57
:10000A000800200041088039CB004135D200C01FCA
:10001A000F281028112852145208031915281628D7
:10002A002628520A031D1A281B2823280030C1003B
:10003A000030C0000030BF000030BE00C017C10150
:10004A002E280030C1000030C0000030BF00003050
:10005A00BE003D088039C2004208CB063D35D300B8
:10006A00BC1F382839283A285314530803193E2844
:10007A003F284F28530A031D432844284C280030A0
:10008A00BD000030BC000030BB000030BA00BC1715
:10009A00BD0157280030BD000030BC000030BB0055
:1000AA000030BA003D083C043B043A04031D5E28B4
:1000BA005F2878280030C1000030C0000030BF003F
:1000CA000030BE008030C0047F30C1044B08C2003B
:1000DA004208C1044108BD004008BC003F08BB00FB
:1000EA003E08BA00AF295208031D7C287D288628BD
:1000FA000030BD000030BC000030BB000030BA0048
:10010A00AF295208C200C3014308C500530842027E
:10011A00C400031CC50344087F3ECC000030453DA3
:10012A00CD004108CA004008C9003F08C8003E087F
:10013A00C7000030C1000030C0000030BF000030EE
:10014A00BE000030D1000030D0000030CF000030B7
:10015A00CE00D301EE2853080319B428B528CF28B6
:10016A000130C735C80DC90DCA0D890BB628013033
:10017A00BE35BF0DC00DC10D890BBD28D11FC628C4
:10018A00C728C8283E140130CE35CF0DD00DD10D69
:10019A00890BC9283D084A02031DDD283C0849028B
:1001AA00031DDD283B084802031DDD283A084702E3
:1001BA00031CE028E128EA2851173A08C7023B083D
:1001CA00C83B3C08C93B3D08CA3B0130C200420853
:1001DA00D3071A305302031CF328F428B0284A081C
:1001EA004904480447040319FB28FC2815294E141E
:1001FA0015290130BE35BF0DC00DC10D890BFF2871
:10020A00D11F082909290A293E140130CE35CF0DFC
:10021A00D00DD10D890B0B29FF30CC07FF30CD3D16
:10022A00C01F18291929FE28D301D11F1D291E29EB
:10023A003A29FF304E05C200FF304F05C300FF3098
:10024A005005C4007F305105C500450844044304E5
:10025A0042040319312932293529D301D30A3A290B
:10026A003E1C382939293A293229530803193E29CB
:10027A003F2967290130BE070030BF3D0030C03D2D
:10028A000030C13D411C4A294B2967293E08C2005A
:10029A003F08C3004008C4004108C5000130C60039
:1002AA00C537C40CC30CC20CC60B55294508C1007E
:1002BA004408C0004308BF004208BE000130CC0712
:1002CA000030CD3D4D08803AC20080304202031D05
:1002DA007029FF304C02031C732974298129FF30CD
:1002EA002000CC000030CD000030C1000030C0003A
:1002FA000030BF000030BE0020004D08803AC20026
:10030A0080304202031D8B2901304C0203188E29CA
:10031A008F299B292000CC01CD010030C10000307B
:10032A00C0000030BF000030BE00CB0120004C08E6
:10033A00D200521CA129A229A429C017A8297F30BA
:10034A00C2004208C0055236C1004B08C20042082A
:10035A00C1046F2808002100B300C60120006B0801
:10036A002100CC0020006A082100CB002000690887
:10037A002100CA00200068082100C9004C0820009A
:10038A00BD0021004B082000BC0021004A082000C3
:10039A00BB00210049082000BA000030C10000302B
:1003AA00C0000030BF000030BE009E3144268131BB
:1003BA000318E029E129F8292100C601C60A4C08D8
:1003CA00F3004B08F2004A08F1004908F0008831AE
:1003DA000620813173082100CC007208CB00710815
:1003EA00CA007008C9002100C701C80122004C08D0
:1003FA002100B70022004B082100B6004608031965
:10040A00072A082A182A4608031D0C2A0D2A122A26
:10041A002B30AA000030AB00162A2D30AA0000307B
:10042A00AB002A08C6004C08F3004B08F2004A0841
:10043A00F1004908F0009D31C5258131700371042E
:10044A00031D282A292A542A2100460803192E2A7C
:10045A002F2A3B2A46082400A000FF302100B607B5
:10046A00FF30B73D0130C7000030C8008230F000CD
:10047A009830F1004708203E9931C8218131FD307A
:10048A002100B607FF30B73D2030FB003708FD00DA
:10049A003608FC0033089B3183238131DE2F21008B
:1004AA004C08F3004B08F2004A08F1004908F00032
:1004BA009D31C525813170087104031D652A662A9C
:1004CA00912A2100460803196B2A6C2A782A4608C1
:1004DA002400A000FF302100B607FF30B73D0130ED
:1004EA00C7000030C8008630F0009830F100470895
:1004FA00203E9931C8218131FD302100B607FF30F5
:10050A00B73D2030FB003708FD003608FC003308F1
:10051A009B3183238131DE2F3F302100D000803090
:10052A00CF000030CE000030CD00B401B5014C0838
:10053A00F3004B08F2004A08F1004908F0000030C5
:10054A00F7000030F6000030F5000030F4009B316F
:10055A00F92381310318B22AB32AEF2BC12A2100C9
:10056A003B08D0003A08CF003908CE003808CD0041
:10057A000130B4070030B53D41302000A3002030DF
:10058A00A2000030A1000030A00021005008200085
:10059A00A70021004F082000A60021004E082000D5
:1005AA00A50021004D082000A4008931482181318D
:1005BA00200023082100BB00200022082100BA00E5
:1005CA00200021082100B900200020082100B800DD
:1005DA0038084902A00039084A3BA1003A084B3BB7
:1005EA00A2003B084C3BA3002308F3002208F200B8
:1005FA002108F1002008F0009A3148228131F31BCA
:10060A00142B7308031D152B7208031D152B710873
:10061A00031D152B02307002031C142B152BB42A50
:10062A0021003B082000BD0021003A082000BC0040
:10063A00210039082000BB00210038082000BA0038
:10064A0021004C082000C10021004B082000C000F6
:10065A0021004A082000BF00210049082000BE00EE
:10066A009E3144268131031C3B2B3C2BB42A2100AA
:10067A004D084902A0004E084A3BA1004F084B3BD7
:10068A00A20050084C3BA3002308F3002208F20002
:10069A002108F1002008F0009A3148228131F31B29
:1006AA00652B7308031D642B7208031D642B7108E4
:1006BA00031D642B023070020318642B652BC82BB0
:1006CA0021005008CC004F08CB004E08CA004D0844
:1006DA00C900EF2B41302000BD002030BC000030A3
:1006EA00BB000030BA00210050082000C1002100E0
:1006FA004F082000C00021004E082000BF00210042
:10070A004D082000BE0080310620813120003D08BE
:10071A002100D00020003C082100CF0020003B0827
:10072A002100CE0020003A082100CD00FF30B40796
:10073A00FF30B53D4D084902A0004E084A3BA100D2
:10074A004F084B3BA20050084C3BA3002308F30080
:10075A002208F2002108F1002008F0009A3148220C
:10076A008131F31BC72B7308031DC62B7208031DA7
:10077A00C62B7108031DC62B023070020318C62B44
:10078A00C72BC82B652B21004C082000BD00210077
:10079A004B082000BC0021004A082000BB002100B1
:1007AA0049082000BA00210050082000C100210099
:1007BA004F082000C00021004E082000BF00210081
:1007CA004D082000BE009E3144268131031CEE2BC9
:1007DA00EF2B6F2B20006C082100AD002D08AE0016
:1007EA002200CE1BF92BFA2B022C4E082100A7005F
:1007FA0022004D082100A600072C06302100A60081
:10080A000030A7002708B2002608B1000130B1075E
:10081A000030B23D66302E06031D142C152C2D2CEB
:10082A00B51F182C192C232C3F30D0008030CF0054
:10083A000030CE000030CD00B401B50167302D067E
:10084A000319282C292C2D2C3408B1073508B23D60
:10085A00BC01BD014C08C1004B08C0004A08BF00DA
:10086A004908BE005008BB004F08BA004E08B9003C
:10087A004D08B8000D2D210050082000BD002100B0
:10088A004F082000BC0021004E082000BB002100B8
:10089A004D082000BA00210041082000C1002100B3
:1008AA0040082000C00021003F082000BF002100AE
:1008BA003E082000BE0080310620813120003D081C
:1008CA00D7003C08D6003B08D5003A08D40092313C
:1008DA001C228131200057082100C500200056083B
:1008EA002100C400200055082100C300200054083C
:1008FA002100C2004508F3004408F2004308F10051
:10090A004208F0009D315525813171082100B0005F
:10091A007008AF0050082000A70021004F082000EF
:10092A00A60021004E082000A50021004D08200045
:10093A00A400210045082000A3002100440820004B
:10094A00A200210043082000A10021004208200043
:10095A00A00089314821813120002308BD002208E6
:10096A00BC002108BB002008BA0021004108200071
:10097A00C100210040082000C00021003F082000DB
:10098A00BF0021003E082000BE009931E7218131D5
:10099A0020003D082100C10020003C082100C000C1
:1009AA0020003B082100BF0020003A082100BE00B9
:1009BA0041302000BD002030BC000030BB000030B8
:1009CA00BA00210050082000C10021004F08200071
:1009DA00C00021004E082000BF0021004D08200061
:1009EA00BE0080310620813120003D082100D00060
:1009FA0020003C082100CF0020003B082100CE0047
:100A0A0020003A082100CD000130BC070030BD3D6E
:100A1A003D08803AA0003208803A2002031D172DB3
:100A2A0031083C02031C1A2D1B2D402C403020009B
:100A3A00A300A030A2000030A1000030A0002100D5
:100A4A0050082000A70021004F082000A60021001E
:100A5A004E082000A50021004D082000A40089317D
:100A6A0048218131200023082100C50020002208E6
:100A7A002100C400200021082100C3002000200812
:100A8A002100C20041082000BD00210040082000CA
:100A9A00BC0021003F082000BB0021003E082000C6
:100AAA00BA00210045082000C100210044082000A6
:100ABA00C000210043082000BF0021004208200096
:100ACA00BE009E314426813103186C2D6D2D772D81
:100ADA0000302100C5000030C4000030C3000030DF
:100AEA00C2009C2D21004108F3004008F2003F0893
:100AFA00F1003E08F0004508F7004408F6004308F4
:100B0A00F5004208F4009B31F9238131031C8E2D34
:100B1A008F2D9C2D21002F18932D942D9C2D003064
:100B2A00C5000030C4000030C3000030C2002100FC
:100B3A004508F3004408F2004308F1004208F000B7
:100B4A004C08F7004B08F6004A08F5004908F4007B
:100B5A009531F425813173082100C1007208C00063
:100B6A007108BF007008BE0041082000BD002100C6
:100B7A0040082000BC0021003F082000BB002100E3
:100B8A003E082000BA004130A3002030A200003005
:100B9A00A1000030A00021003B082000A70021008E
:100BAA003A082000A600210039082000A5002100EB
:100BBA0038082000A4008931482181312000230807
:100BCA00C1002208C0002108BF002008BE009E31D3
:100BDA0044268131031CF22DF32D2E2E01302100E3
:100BEA00B4070030B53D41302000A3002030A200F8
:100BFA000030A1000030A00021003B082000A7001F
:100C0A0021003A082000A600210039082000A5008A
:100C1A00210038082000A4008931482181312000B0
:100C2A0023082100BB00200022082100BA0020006E
:100C3A0021082100B900200020082100B8006630F0
:100C4A002E06031D292E2A2E2E2E0130B107003022
:100C5A00B23D21003B08D0003A08CF003908CE0047
:100C6A003808CD003508A5003408A400AC01A80155
:100C7A00A901BC01BD01762F210050082000BD004A
:100C8A0021004F082000BC0021004E082000BB00B4
:100C9A0021004D082000BA00210041082000C100AF
:100CAA00210040082000C00021003F082000BF00AA
:100CBA0021003E082000BE0080310620813120003C
:100CCA003D08D7003C08D6003B08D5003A08D400B6
:100CDA0092311C228131200057082100C5002000D2
:100CEA0056082100C400200055082100C300200036
:100CFA0054082100C2004508F3004408F2004308E2
:100D0A00F1004208F0009D31552581317108803A81
:100D1A002100A00080302002031D952E0A307002A7
:100D2A000318982E992EAB2E21004508F30044088B
:100D3A00F2004308F1004208F0009D315525813147
:100D4A0071082100B0007008AF00B02E09302100F0
:100D5A00AF000030B0002C08031DB42EB52EDE2ED5
:100D6A00A51FB82EB92EDE2E4708203E8600023077
:100D7A0087002E3081000130C7070030C83DFF30A0
:100D8A00B607FF30B73DAC01AC0ADE2E4708203E5D
:100D9A00860002308700303081000130C7070030FA
:100DAA00C83DFF30B607FF30B73DFF30A807FF3018
:100DBA00A93D28082904031DE32EE42ECB2E47085B
:100DCA00203E8600023087002F08303E8100013025
:100DDA00C7070030C83DFF30B607FF30B73D50089F
:100DEA002000A70021004F082000A60021004E087D
:100DFA002000A50021004D082000A400210045087C
:100E0A002000A300210044082000A200210043087A
:100E1A002000A100210042082000A00089314821B9
:100E2A00813120002308BD002208BC002108BB0034
:100E3A002008BA00210041082000C1002100400812
:100E4A002000C00021003F082000BF0021003E080A
:100E5A002000BE009931E721813120003D082100A0
:100E6A00C10020003C082100C00020003B082100EE
:100E7A00BF0020003A082100BE0041302000BD001A
:100E8A002030BC000030BB000030BA0021005008FE
:100E9A002000C10021004F082000C00021004E0898
:100EAA002000BF0021004D082000BE00803106202E
:100EBA00813120003D082100D00020003C0821009B
:100ECA00CF0020003B082100CE0020003A08210074
:100EDA00CD00FF30A407FF30A53D0130BC0700302C
:100EEA00BD3D3D08803AA0003208803A2002031D29
:100EFA00802F31083C020318832F842F922F210060
:100F0A004808803AA00080302002031D8E2F4B3003
:100F1A004702031C912F922F412E4F302100BC0013
:100F2A000030BD003C08203E860002308700810167
:100F3A002030F0004808F2004708F1002030A000F5
:100F4A00470820023C079A31D622813121004708FE
:100F5A003C02C70048083D3BC8004608031DB62F9F
:100F6A00B82F0130B92F0030A000A1012008BC0021
:100F7A002108BD0046080319C32FC42FCF2FFF3005
:100F8A00C707FF30C83D4708203E86000230870069
:100F9A00460881003C08B6023D08B73B4708203E98
:100FAA00FB003708FD003608FC0033089B31832319
:100FBA00813108003130840099308500D4308600B0
:100FCA000130870009308831002087312100EF0184
:100FDA0043308400013085000C3090310220873183
:100FEA002030840002308500503090310220873151
:100FFA0020008B31832BFE0012001E00FE0B0128FD
:10100A000034730872047104700403190D280E2841
:10101A0010288030F30608002000BB003008C0000A
:10102A003108C1003208C2003308C3003408C400C2
:10103A003508C5003608C6003708C70040308600A4
:10104A0000308700473FB800B81B2C282E280130F3
:10105A002F2800302000CA004A08031935283628EC
:10106A005428C009C109C209C309C409C509C60966
:10107A00C709C00A031D5428C10A031D5428C20AFD
:10108A00031D5428C30A031D5428C40A031D5428E7
:10109A00C50A031D5428C60A031D5428C70A22007C
:1010AA004E08803A2000B80080303802031D6028BC
:1010BA00013022004D020318632864286A2801308F
:1010CA002000BC000030BD00722822004E0820001B
:1010DA00BD0022004D082000BC0022004C08200060
:1010EA00BF0022004B082000BE004A0803197E28D0
:1010FA007F289328FF30BE07FF30BF3D4A08031DF3
:10110A00872888288D282B30B9000030BA0091280A
:10111A002D30B9000030BA003908CA004F30C80073
:10112A000030C9002400EF010329FF302000C8075E
:10113A00FF30C93D0A30A000A101A201A301A40108
:10114A00A501A601A7014008A8004108A900420874
:10115A00AA004308AB004408AC004508AD004608A5
:10116A00AE004708AF0091313221883120002108B2
:10117A00F4002008F3009931732188317308303E56
:10118A002000B8004808203E860002308700380850
:10119A008100FF30BC07FF30BD3DFF30BE07FF3086
:1011AA00BF3D0A30A000A101A201A301A401A5012B
:1011BA00A601A7014008A8004108A9004208AA0000
:1011CA004308AB004408AC004508AD004608AE0031
:1011DA004708AF0093310723883120002008C00058
:1011EA002108C1002208C2002308C3002408C40041
:1011FA002508C5002608C6002708C7002000490898
:10120A00803AB80080303802031D0D2901304802A7
:10121A00031C102911292B292000400841044204EB
:10122A0043044404450446044704031D1D291E299A
:10123A009A283D08803AB80080303802031D2729D1
:10124A0001303C0203182A292B299A2820004A082F
:10125A000319302931293C29FF30C807FF30C93D1D
:10126A004808203E8600023087004A088100480864
:10127A00203EFB003F08FD003E08FC003B089B3176
:10128A00832388310800200023088039AD002335E4
:10129A00B300A21F512952295329331433080319C1
:1012AA00572958296729330A031D5C295D296529AD
:1012BA000030A3000030A2000030A1000030A000DE
:1012CA00A2176F290030A3000030A2000030A1004D
:1012DA000030A00027088039A8002808AD06273565
:1012EA00B200A61F79297A297B29321432080319F8
:1012FA007F2980298F29320A031D842985298D296E
:10130A000030A7000030A6000030A5000030A4007D
:10131A00A61797290030A7000030A6000030A500C4
:10132A000030A400320803199B299C29A1293308FB
:10133A00031DA029A129AA290030A3000030A20078
:10134A000030A1000030A000822B2008F0002608FF
:10135A009A316A22893171082000B9007008B800F0
:10136A003808A800A901AA01AB012B08B1002A0874
:10137A00B0002908AF002808AE003908A800A90162
:10138A00AA01AB012B08B7002A08B6002908B50044
:10139A002808B4002108F00025089A316A22893108
:1013AA0071082000B9007008B8003808A800A9011F
:1013BA00AA01AB012808AE072908AF3D2A08B03DAB
:1013CA002B08B13D3908A800A901AA01AB012808D8
:1013DA00B4072908B53D2A08B63D2B08B73D2208AF
:1013EA00F00024089A316A22893171082000B90074
:1013FA007008B8003808A800A901AA01AB0128089A
:10140A00AE072908AF3D2A08B03D2B08B13D39087F
:10141A00A800A901AA01AB012808B4072908B53D0B
:10142A002A08B63D2B08B73D0830AE35AF0DB00DD2
:10143A00B10D890B1A2A2108F00024089A316A2270
:10144A00893171082000B9007008B8003808AE0761
:10145A003908AF3D0030B03DB13D2008F000250805
:10146A009A316A22893171082000B9007008B800DF
:10147A003808AE073908AF3D0030B03DB13D0830FD
:10148A00AE35AF0DB00DB10D890B452A2008F0001D
:10149A0024089A316A22893171082000B90070083B
:1014AA00B8003808AE073908AF3D0030B03DB13D4D
:1014BA002108F00026089A316A2289317108200031
:1014CA00B9007008B8003808B4073908B53D0030CB
:1014DA00B63DB73D2208F00025089A316A228931C3
:1014EA0071082000B9007008B8003808B407390834
:1014FA00B53D0030B63DB73D2208F00026089A31C6
:10150A006A22893171082000B9007008B8003808C9
:10151A00A8003908A900AA01AB010830A835A90D0D
:10152A00AA0DAB0D890B932A2808B4072908B53DE3
:10153A002A08B63D2B08B73D2E08A8002F08A90097
:10154A003008AA003108AB001830AB36AA0CA90C37
:10155A00A80C890BAA2A2808B4072908B53D2A0825
:10156A00B63D2B08B73D0830AE35AF0DB00DB10D05
:10157A00890BB92A33083207A800A901A90D28083E
:10158A00823EB800FF30293DB900E22A0130B43565
:10159A00B50DB60DB70D890BCC2AB11FD52AD62A9F
:1015AA00D72A34140130AE35AF0DB00DB10D890B09
:1015BA00D82AFF30B807FF30B93DB61FE52AE62A18
:1015CA00CB2AB201B11FEA2AEB2A072BFF302E05DC
:1015DA00A800FF302F05A900FF303005AA007F3090
:1015EA003105AB002B082A04290428040319FE2A12
:1015FA00FF2A022BB201B20A072B341C052B062B39
:10160A00072BFF2A320803190B2B0C2B342B013022
:10161A00B4070030B53D0030B63D0030B73D371C49
:10162A00172B182B342B3408A8003508A9003608C4
:10163A00AA003708AB000130AC00AB37AA0CA90CE2
:10164A00A80CAC0B222B2B08B7002A08B6002908D5
:10165A00B5002808B4000130B8070030B93D390890
:10166A00803AA80080302802031D3D2BFF30380243
:10167A00031C402B412B4B2B7F302000B7008030BE
:10168A00B6000030B5000030B400762B20003908CF
:10169A00803AA80080302802031D552B01303802F9
:1016AA000318582B592B642B00302000B700003048
:1016BA00B6000030B5000030B400AD01762B200032
:1016CA003808B300FF30B405FF30B5057F30B605E2
:1016DA000030B705331C722B732B742BB6173336B5
:1016EA00B7002D08A8002808B7043708A300360851
:1016FA00A2003508A1003408A0000800F03021003B
:10170A008F0023008F0121008D018E01FF302300FD
:10171A008C009B31B8238B3128309B3125238B31A8
:10172A000C309B3125238B3106309B3125238B319D
:10173A0001309B3125238B3182309B3125238B311C
:10174A005630F2009830F300993144218B31C4307D
:10175A009B3125238B316230F2009830F3009931A6
:10176A0044218B317D302200C0004A30BF00D9307D
:10177A00890BBD2BBF0BBD2BC00BBD2B003201301B
:10178A009B3125238B3199313A218B3123005A0819
:10179A00CF005B08D0005C08D100D430860001304D
:1017AA008700C93084000130850006302200BF005E
:1017BA0016001A00BF0BDD2B2300BD01BE01BF01BD
:1017CA00C001C101C201C701C801D201D301BB01D5
:1017DA00BB0ABC01B60123003B080319F52BF62B03
:1017EA00002D3D083E040319FB2BFC2B2C2C8030CA
:1017FA009B3125238B310030F2009830F300993168
:10180A0044218B31C0309B3125238B3123003E0884
:10181A002200AC0023003D082200AB0099318D2143
:10182A008B3132302200C000B830BF002230890B21
:10183A001C2CBF0B1C2CC00B1C2C00002300BB0152
:10184A00BC01BC0A01309B3125238B31F02B80303F
:10185A009B3125238B312E30F2009830F3009931D9
:10186A0044218B31C0309B3125238B31CF30F2009C
:10187A000130F300993144218B319F3163278B3139
:10188A002300C50023304506031D4C2C4D2C962CF5
:10189A0001309B3125238B3123005108D03EA8000B
:1018AA00FF3003180030A9005008D03EAA00FF30CC
:1018BA0003180030AB004F08D03EAC00FF300318CD
:1018CA000030AD002D08F1002C08F0006430F20061
:1018DA000030F3009931A9218B3170082200BF0032
:1018EA007108C00023002B08F1002A08F0000A3012
:1018FA00F2000030F3009931A9218B3170082200DF
:10190A003F07C1007108403DC20023002808220099
:10191A0041072300BD0029082200423D2300BE00E2
:10192A00F02B2A304506031D9B2C9C2CCC2C4703FC
:10193A004804031DA12CA22CA92C3030D100FF3061
:10194A00C707FF30C83DF02B023047064804031D85
:10195A00AF2CB02CB92C5008D1003030D000FF3059
:10196A00C707FF30C83DF02B033047064804031D64
:10197A00BF2CC02CCB2C5008D1004F08D0003030DF
:10198A00CF00FF30C707FF30C83DF02BF02B2030C7
:10199A0045060319D12CD22CCB2C47084804031D29
:1019AA00D72CD82CDF2C4508D1000130C7070030CE
:1019BA00C83DF02B47034804031DE42CE52CEE2C0C
:1019CA005108D0004508D1000130C7070030C83D92
:1019DA00F02B023047064804031DF42CF52CCB2CBF
:1019EA005008CF005108D0004508D1000130C70780
:1019FA000030C83DF02B3C080319042D052D712E2B
:101A0A003F084004031D0A2D0B2D112D41084204E5
:101A1A000319102D112D792D80309B3125238B31FF
:101A2A003C30F2009830F300993144218B31C030B8
:101A3A009B3125238B31230040082200AC00230070
:101A4A003F082200AB0099318D218B313A309B310E
:101A5A0053238B31230042082200AC0023004108A3
:101A6A002200AB0099318D218B3132302200C00027
:101A7A00B830BF002230890B402DBF0B402DC00B60
:101A8A00402D000001309B3125238B3180309B3162
:101A9A0025238B311030F2009830F300993144211C
:101AAA008B31C0309B3125238B316B30F20098305B
:101ABA00F300993144218B3132302200C000B83012
:101ACA00BF002230890B672DBF0B672DC00B672D16
:101ADA00000001309B3125238B312300BC01B60164
:101AEA00B60A20000E14F02B80309B3125238B314F
:101AFA004A30F2009830F300993144218B31C030DA
:101B0A009B3125238B31C930F2000130F300993122
:101B1A0044218B319F3163278B312300C600233048
:101B2A004606031D992D9A2DE02D01309B31252360
:101B3A008B3123004A08D03EAE00FF300318003034
:101B4A00AF004908D03EB000FF3003180030B100A2
:101B5A004D08D03EB200FF3003180030B3004C08E5
:101B6A00D03EB400FF3003180030B5003108F10050
:101B7A003008F0000A30F2000030F3009931A92150
:101B8A008B3123002E087007BF002F08713DC0005B
:101B9A003508F1003408F0000A30F2000030F30092
:101BAA009931A9218B31230032087007C10033080B
:101BBA00713DC200F02B2A304606031DE52DE62DA5
:101BCA00292E52035304031DEB2DEC2DF32D303037
:101BDA00CD00FF30D207FF30D33DF02B0230520642
:101BEA005304031DF92DFA2D032E4C08CD00303075
:101BFA00CC00FF30D207FF30D33DF02B0330520622
:101C0A005304031D092E0A2E152E4C08CD004A082E
:101C1A00CC003030CA00FF30D207FF30D33DF02B62
:101C2A00043052065304031D1B2E1C2ECB2C4C08C9
:101C3A00CD004A08CC004908CA003030C900FF303C
:101C4A00D207FF30D33DF02B2030460603192E2E43
:101C5A002F2ECB2C52085304031D342E352E3C2E26
:101C6A004608CD000130D2070030D33DF02B520395
:101C7A005304031D412E422E4B2E4D08CC0046081C
:101C8A00CD000130D2070030D33DF02B023052068E
:101C9A005304031D512E522E5D2E4C08CA004D08C6
:101CAA00CC004608CD000130D2070030D33DF02BDE
:101CBA00033052065304031D632E642ECB2C4A08AC
:101CCA00C9004C08CA004D08CC004608CD000130B6
:101CDA00D2070030D33DF02B3C08031D752E762E1B
:101CEA00CB2C3B08031D7A2E7B2ECB2C36080319EE
:101CFA007F2E802ED12F4008F1003F08F0001030CF
:101D0A00F2000E30F3009931A9218B3170082200BC
:101D1A00BF007108C00023004208F1004108F0002A
:101D2A003C30F2000030F3009931A9218B31700860
:101D3A0022003F072300C30071082200403D230010
:101D4A00C400BA2F80309B3125238B311030F70025
:101D5A000E30F80023004408FA004308F9009C31C9
:101D6A00F5248B3178082200AC007708AB00993152
:101D7A008D218B313A309B3153238B313C30F70024
:101D8A000030F80023004408F3004308F200103042
:101D9A00F0000E30F1009C3147248B317108FA00B3
:101DAA007008F9009C31F5248B3178082200AC00C8
:101DBA007708AB0099318D218B313A309B3153230F
:101DCA008B313C30F0000030F10023004408F3006E
:101DDA004308F2009C3147248B3171082200AC0081
:101DEA007008AB0099318D218B31C0309B3125238E
:101DFA008B3100302000D400D500903108208B317F
:101E0A00200057082300A300200056082300A20040
:101E1A00200055082300A100200054082300A00038
:101E2A0042302000A300C830A2000030A1000030D8
:101E3A00A000230023082000A70023002208200076
:101E4A00A600230021082000A50023002008200066
:101E5A00A400893148218B31200023082300BA00CD
:101E6A00200022082300B900200021082300B8001E
:101E7A00200020082300B7007230F2009830F300E7
:101E8A00993144218B3123003A082200AE00230005
:101E9A0039082200AD00230038082200AC002300D4
:101EAA0037082200AB009A318D228B31193022007B
:101EBA00C0009C30BF00ED30890B612FBF0B612F32
:101ECA00C00B612F003201309B3125238B31FF304B
:101EDA002300C307FF30C43D3D08053EF000003033
:101EEA003E3DF100F201F11BF2037208F3000130EA
:101EFA00903188208B3173082300A7007208A6004E
:101F0A007108A5007008A40027082000BD0023005E
:101F1A0026082000BC00230025082000BB0023005F
:101F2A0024082000BA0023003A082000C100230038
:101F3A0039082000C000230038082000BF00230011
:101F4A0037082000BE009E3144268B31031CAE2F79
:101F5A00AF2FB52F22000E148E100E118E15BA2F28
:101F6A0022000E108E140E158E1123004408803A9A
:101F7A002200BF0080303F02031DC62F013023001C
:101F8A0043020318C92FCA2FA72E22000E108E143F
:101F9A000E118E152300B60180309B3125238B311B
:101FAA001F30F2009830F300993144218B31C6304A
:101FBA009B3125238B317830F2009830F300993128
:101FCA0044218B317D302200C0004A30BF00D93015
:101FDA00890BED2FBF0BED2FC00BED2F0032230025
:101FEA00BB01BB0ABD01BE01BF01C001C101C201E3
:061FFA00F02B80310228EB
:10200400640080010131890B032800342000540846
:102014005504031D0E280F281328833021009D0525
:102024002B2854035504031D182819281F282100A0
:102034001D08833904389D002B28023054065504AA
:10204400031D252826282B2821001D088339203824
:102054009D0007302000D8005B30890B2F28D80B57
:102064002F28003221009D149D149D183A283B28E6
:1020740037281C081B082000D800D9015808DE00A6
:102084005908DF004430BD007F30BC00C030BB00C5
:102094000030BA004030A300A030A2000030A100FC
:1020A4000030A0005E08F0005F08F100F201F301C7
:1020B400003090318820903173082000A700720806
:1020C400A6007108A5007008A40089314821903148
:1020D40020002308C1002208C0002108BF002008F6
:1020E400BE0080310620903120003D08DD003C0810
:1020F400DC003B08DB003A08DA005D08D7005C0826
:10210400D6005B08D5005A08D4000800F800780807
:1021140003198D288E28A228F31F91289228A2281B
:102124007009FA007109FB007209FC007309FD00D3
:10213400FA0A0319FB0A0319FC0A0319FD0AAA285F
:102144007308FD007208FC007108FB007008FA00B7
:102154007308720471047004031DB128B228BB28EB
:102164000030F3000030F2000030F1000030F000E5
:1021740031299630F900C9280130F4007408F907B0
:102184000130FD36FC0CFB0CFA0C890BC328FE3025
:102194007D05031DCE28CF28BE28E3280130F40096
:1021A4007408F9070130FA070030FB3D0030FC3DAC
:1021B4000030FD3D0130FD36FC0CFB0CFA0C890BA4
:1021C400DD28FF307D05031DE828E928D028F32801
:1021D4000130F9020130FA35FB0DFC0DFD0D890BC0
:1021E400ED28FC1BF628F728FD2802307902031895
:1021F400FC28FD28EA287918002901290929FF303B
:10220400FA05FF30FB057F30FC05FF30FD050310A8
:10221400F90C7908F400F501F601F7011830F435EA
:10222400F50DF60DF70D890B11297408FA047508DC
:10223400FB047608FC047708FD04780803192329B5
:1022440024292929F31F272928292929FD177D084D
:10225400F3007C08F2007B08F1007A08F000080023
:10226400F2012830860000308700473FF000F01F5D
:102274003C293D295E292000A809A909AA09AB091E
:10228400AC09AD09AE09AF09A80A031D5C29A90A66
:10229400031D5C29AA0A031D5C29AB0A031D5C29E2
:1022A400AC0A031D5C29AD0A031D5C29AE0A031D9B
:1022B4005C29AF0AF201F20A203086000030870060
:1022C400473FF000F01F6729682987292000A009EB
:1022D400A109A209A309A409A509A609A709A00A95
:1022E400031D8729A10A031D8729A20A031D872923
:1022F400A30A031D8729A40A031D8729A50A031D10
:102304008729A60A031D8729A70A2000200821047B
:1023140022042304240425042604270403199329EE
:102324009429E729F101F10AA329A035A10DA20DF1
:10233400A30DA40DA50DA60DA70D0130F000700886
:10234400F107A71FA629A729972927082F02031DEC
:10235400C52926082E02031DC52925082D02031DA3
:10236400C52924082C02031DC52923082B02031D9B
:10237400C52922082A02031DC52921082902031D93
:10238400C52920082802031CC829C929D9292008DD
:10239400A8022108A93B2208AA3B2308AB3B240836
:1023A400AC3B2508AD3B2608AE3B2708AF3BA73620
:1023B400A60CA50CA40CA30CA20CA10CA00C01301F
:1023C400F102031DE629E729A72972080319EB295D
:1023D400EC290A2AA809A909AA09AB09AC09AD097B
:1023E400AE09AF09A80A031D0A2AA90A031D0A2A6D
:1023F400AA0A031D0A2AAB0A031D0A2AAC0A031DF2
:102404000A2AAD0A031D0A2AAE0A031D0A2AAF0AC4
:1024140020002808A0002908A1002A08A2002B08EF
:10242400A3002C08A4002D08A5002E08A6002F0840
:10243400A7000800220046082000E7002200450803
:102444002000E600220044082000E50022004308A2
:102454002000E4005708E7005608E6005508E500A8
:102464005408E4006408D8006508D9006608DA0056
:102474006708DB001730DB36DA0CD90CD80C890B73
:102484003D2AFF305805DC0000305905DD005C08AA
:10249400813EE200FF305D3DE3006308803AD800EE
:1024A40080305802031D582A17306202031C5B2A2D
:1024B4005C2A5D2A062B2000E31B612A622ABF2ABC
:1024C400FF30D800FF30D9007F30DA000030DB0065
:1024D400620A702ADB37DA0CD90CD80C890B6C2A07
:1024E4005B08E1005A08E0005908DF005808DE00E4
:1024F40064085E05D80065085F05D90066086005B4
:10250400DA0067086105DB005B085A0459045804C3
:10251400031D8D2A8E2A8F2A5C2A6408D800650838
:10252400D9006608DA006708DB001F30DB36DA0CF6
:10253400D90CD80C890B982A5B085A0459045804FE
:102544000319A52AA62AAE2A5E08E4075F08E53D1A
:102554006008E63D6108E73D5E09D8005F09D900DF
:102564006009DA006109DB005808E4055908E5054B
:102574005A08E6055B08E705FE2A6408D8006508E2
:10258400D9006608DA006708DB001F30DB36DA0C96
:10259400D90CD80C890BC82A5B085A04590458046E
:1025A400031DD52AD62ADF2A0030E7000030E600D2
:1025B4000030E5000030E400FE2A6408D800650815
:1025C400D9006608DA006708DB000130D835D90D78
:1025D400DA0DDB0D890BE82A5B085A045904580408
:1025E4000319F52AF62AFE2ABF30E7008030E600F8
:1025F4000030E5000030E4006708D7006608D60024
:102604006508D5006408D4000800F2012030860073
:1026140000308700473FF000F01F112B122B332BA3
:102624002000A009A109A209A309A409A509A609D2
:10263400A709A00A031D312BA10A031D312BA20AED
:10264400031D312BA30A031D312BA40A031D312BB7
:10265400A50A031D312BA60A031D312BA70AF2017B
:10266400F20A2830860000308700473FF000F01F50
:102674003C2B3D2B602B2000A809A909AA09AB0912
:10268400AC09AD09AE09AF09A80A031D5C2BA90A60
:10269400031D5C2BAA0A031D5C2BAB0A031D5C2BD8
:1026A400AC0A031D5C2BAD0A031D5C2BAE0A031D93
:1026B4005C2BAF0A0130F0007008F206733086001C
:1026C400003087000830F00000301E00F00B672B4C
:1026D40020002008210422042304240425042604C1
:1026E40027040319762B772BD32BF101F10A862BC0
:1026F400A035A10DA20DA30DA40DA50DA60DA70D2A
:102704000130F0007008F107A71F892B8A2B7A2B60
:10271400F335F40DF50DF60DF70DF80DF90DFA0D71
:1027240027082F02031DB02B26082E02031DB02BF1
:1027340025082D02031DB02B24082C02031DB02BE9
:1027440023082B02031DB02B22082A02031DB02BE1
:1027540021082902031DB02B20082802031CB32BD7
:10276400B42BC52B2008A8022108A93B2208AA3BA8
:102774002308AB3B2408AC3B2508AD3B2608AE3B05
:102784002708AF3B7314A736A60CA50CA40CA30C06
:10279400A20CA10CA00C0130F102031DD22BD32BEF
:1027A4008A2B72080319D72BD82BF62BF309F409BB
:1027B400F509F609F709F809F909FA09F30A031DF5
:1027C400F62BF40A031DF62BF50A031DF62BF60A65
:1027D400031DF62BF70A031DF62BF80A031DF62B2F
:1027E400F90A031DF62BFA0A73082000A0007408E6
:1027F400A1007508A2007608A3007708A400780851
:10280400A5007908A6007A08A70008002100DE00C8
:1028140020006D0886008701403F2100D100413F20
:10282400D20051088400520885001200253A031D85
:102834001C2C1D2CD92D20006D0886008701013029
:10284400810741310318810A2200CB01CC01031016
:102854000030031801302100EF00FF302200CD00CA
:10286400FF30CE0020006D0886008701403F210024
:10287400D100413FD2005108840052088500120063
:102884002E3A031D462C472CB42C2200CD01CE0138
:1028940020006D088600870101308107413103184B
:1028A400810A6D0886008701403F2100D100413F25
:1028B400D200510884005208850012002A3A031DF0
:1028C400642C652C7D2C20006D0886008701013066
:1028D400810741310318810A6E08860001308700A0
:1028E40001088400850102308107003F2200CD00E9
:1028F400013FCE00B42C20006D0886008701403FC4
:10290400F600413FF7009E31CF269431770822002C
:10291400CE007608CD00972C20006D088600870134
:102924000130810741310318810A20006D088600B7
:102934008701403F2100D100413FD200510884006B
:10294400520885000008D03ED300FF300318003041
:10295400D400003054020A3003195302031CB32C70
:10296400B42C8E2C20006D0886008701403F210086
:10297400DF00413FE0005F0884006008850012002A
:10298400643A0319C62CC72CD12C5F088400600854
:1029940085001200693A031DD02CD12C212D200072
:1029A4006E0886000130870001088400850102302A
:1029B4008107003F2100D100013FD2005108D5001A
:1029C4005208D600890D893B8909D700D800D9005F
:1029D400DA00DB00DC005F08013ED1000030603D1E
:1029E400D20020006D088600870121005108C03FF5
:1029F4005208C13F55082000B000210056082000AD
:102A0400B100210057082000B2002100580820001E
:102A1400B300210059082000B40021005A08200006
:102A2400B50021005B082000B60021005C082000EE
:102A3400B70021005E08883111209431F32D200065
:102A44006D0886008701403F2100DF00413FE00020
:102A54005F088400600885000008DD003B2D01301C
:102A6400DF070030E03D4E2D6C30DD004E2DDD01E2
:102A74004E2D5D08D100D2015208003A0319432DAE
:102A8400392D51084C3A0319312D2A3A0319362DA0
:102A94000A3A0319312D392D5F0884006008850036
:102AA4001200663A031D572D582DCF2D812D20007D
:102AB4006E08860001308700010884008501043017
:102AC4008107003F2100D500013FD600023FD70017
:102AD400033FD800912D20006E0886000130870046
:102AE40001088400850104308107003F2100D500DE
:102AF400013FD600023FD700033FD800912D5D0867
:102B0400D100D2015208003A0319892D912D5108A0
:102B14004C3A03196D2D203A0319592D912D5F0854
:102B2400013ED1000030603DD20020006D088600D7
:102B3400870121005108C03F5208C13FBE2D5808EB
:102B44002000EB00210057082000EA00210056086D
:102B54002000E900210055082000E80021005F085A
:102B640084006008850000082000EC0021005E0855
:102B74008131B0219431F32D5F0884006008850011
:102B84000008D100D2015208003A0319CA2DCF2DF2
:102B94005108663A0319A12DCF2D20006D08860037
:102BA40087010130810741310318810AF32D200088
:102BB4006D0886008701403F2100D100413FD200CB
:102BC40051088400520885000008D300D40153083A
:102BD400F0005408F1005E08F2009C319A2494310C
:102BE400CF2D080073088039F8007335FA00F21FFE
:102BF400FC2DFD2DFE2D7A147A080319022E032EC6
:102C0400132E7A0A031D072E082E102E0030F3000F
:102C14000030F2000030F1000030F000F217F30150
:102C24001B2E0030F3000030F2000030F1000030C1
:102C3400F00077088039F900790878060319232E03
:102C4400242E252E78177735F900F61F2A2E2B2EE1
:102C54002C2E791479080319302E312E412E790A3D
:102C6400031D352E362E3E2E0030F7000030F600C0
:102C74000030F5000030F400F617F701492E00305B
:102C8400F7000030F6000030F5000030F4007A0858
:102C9400790203184E2E4F2E762E781F522E532E65
:102CA400582E80302000A0002008F8067A08FB0087
:102CB4007908FA007B08F9007008FB007408F0003A
:102CC4007B08F4007108FB007508F1007B08F5002F
:102CD4007208FB007608F2007B08F6007308FB001C
:102CE4007708F3007B08F700FB0179082000A000B7
:102CF400A1012108A3007A082002A200031CA30357
:102D04002308803AA40080302402031D8B2E1A303D
:102D14002202031C8E2E8F2EC12E7308720471049E
:102D24007004031D962E982E0130992E0030FB005E
:102D34000030F3000030F2000030F1000030F00009
:102D44007908FA00C72E7B1CA82EA92EAD2E7B363F
:102D54000138FB00AF2E0310FB0C701CB22EB32EF7
:102D6400B42EFB1701302000A000F337F20CF10C55
:102D7400F00CA00BB72E0130A0002008FA07790848
:102D84007A02031CC62EC72EA52E781BCA2ECB2E64
:102D9400022F7A08031DCF2ED02ED92E0030F30037
:102DA4000030F2000030F1000030F000FF2F740812
:102DB400F0077508F13D7608F23D7708F33D731C82
:102DC400E42EE52E8F2F7B1CE82EE92EED2E7B368C
:102DD4000138FB00EF2E0310FB0C701CF22EF32EB7
:102DE400F42EFB1701302000A000F337F20CF10C95
:102DF400F00CA00BF72E0130A0002008FA078F2F4B
:102E04007308803A2000A0007708803A2002031D4E
:102E1400152F76087202031D152F75087102031D04
:102E2400152F740870020318182F192F512FFF3013
:102E3400A000FF30A100FF30A200FF30A300700803
:102E44007402A4007108753BA5007208763BA600C5
:102E54007308773BA7002408A0072508A13D26088E
:102E6400A23D2708A33D2308F3002208F20021080D
:102E7400F1002008F0008030A0002008F806FB09CB
:102E8400FB0A7B08031D472F482F592F0130F007F9
:102E94000030F13D0030F23D0030F33D592F74080D
:102EA400F0027508F13B7608F23B7708F33B7308B0
:102EB400720471047004031D602F612F8B2F7B0833
:102EC400031D652F662F8B2F0030F3000030F200B6
:102ED4000030F1000030F000FF2F0130F035F10D2B
:102EE400F20DF30D890B702FFB1F792F7A2F7B2F97
:102EF40070147B1C7E2F7F2F822F0314FB0D842FD5
:102F04000310FB0D7A080319882F892F8B2F0130AA
:102F1400FA02F21F8E2F8F2F6F2FF901FB1F932FB1
:102F2400942FA22F7B087F390319992F9A2F9D2F55
:102F3400F901F90AA22F701CA02FA12FA22F9A2FFA
:102F440079080319A62FA72FD52F0130F0070030D9
:102F5400F13D0030F23D0030F33D731CB22FB32F2E
:102F6400D52F70082000A0007108A1007208A200EB
:102F74007308A3000130A400A337A20CA10CA00C79
:102F8400A40BBE2F2308F3002208F2002108F1004D
:102F94002008F0007A0A0319D02FD12FD52F013041
:102FA400A0002008FA077A0A0319D92FDA2FDF2F95
:102FB4007A08031DDE2FDF2FED2F0030F3000030E1
:102FC400F2000030F1000030F0007A08031DEB2F0E
:102FD400EC2FED2FF8017A1CF02FF12FF32FF217BD
:102FE400F82F7F302000A0002008F2057A36F30085
:102FF400F81FFD2FFE2FFF2FF317080049346E34FE
:103004007034753474346534643420345434653421
:103014006D3470342E3420343A3400344F34563402
:1030240045344E34203453345434413452345434BB
:1030340049344E34473420340034543449344D3404
:10304400453452342034463449344E3449345334AC
:10305400483445344434003445346E34743465346F
:1030640072342034543465346D3470342E34203446
:103074003A34003449346E347034753474346534FD
:1030840064342034543469346D3465343A3400344F
:1030940045346E34743465347234203454346934B1
:1030A4006D3465343A3400344F34563445344E3438
:1030B4002034533459345334543445344D34003467
:1030C400473452344F34553450342D34203448343A
:1030D40000344E344F3457342E342E342E340034CE
:1030E400543445344D3450343A3400342A342A3478
:1030F4002A342A34003425342E34323466340034ED
:1031040069346E34663400346E3461346E340034A1
:0C31140025346434003425346634003463
:10326200303430343A343034303400343034303462
:10327200303421001D149E171E088F3910389E000D
:103282009C019B0108005129720884007308850083
:1032920000089B31532399310130F2070030F33D8E
:1032A20072088400730885001200031D59295A29E7
:1032B200452908007008D03EF200FF30713DF3004E
:1032C200003073020A3003197202031C69296B2948
:1032D20001306C290030F400F5017408F000750823
:1032E200F10008007408803AF50080307502031D71
:1032F2007C290130730203187F2980298C297309E4
:10330200F5007409F600F50A0319F60A7508F300C8
:103312007608F4008C2908002D302100E7000130E6
:10332200E8008A30E9009830EA0022002C082100E7
:10333200EC0022002B082100EB009A31FD2299318A
:103342002D30F2000130F300993144219931080007
:10335200F401F501701CAE29AF29B3297208F407F4
:103362007308F53D0130F235F30D890BB4290130B4
:10337200F136F00C890BB92970087104031DC229BA
:10338200C329AB297508F1007408F0000800F700A2
:103392007108F5007008F4007708F60076088600D8
:1033A20002308700F60A7508F3007408F200F40A86
:1033B2000319F50A72088400730885000008C03FEB
:1033C2008908031DE529E629CF290800803020005D
:1033D200BD064108F3004008F2003F08F1003E0834
:1033E200F0003D08F7003C08F6003B08F5003A08FB
:1033F200F4009531F425993173082000BD0072085C
:10340200BC007108BB007008BA0008002100E4008B
:103412006208E6006108E5001A2AE5302000ED00A6
:10342200210063082000EE00210064089431082482
:103432009A31210065088400660885001200031D88
:10344200232A242A0E2AE101E2010800F401F40AE7
:1034520020307006710403192F2A302A402A70087E
:10346200F73EF200FF30713DF30000307302053089
:1034720003197202031C3E2A3F2A402AF4017408EF
:10348200F200F3017208F0007308F1000800F31B68
:10349200592A7308031D582A7208031D582A7108F5
:1034A200031D582A013070020318582A592A692A22
:1034B2007009F0007109F1007209F2007309F3005A
:1034C200F00A0319F10A0319F20A0319F30A692A25
:1034D2000800F800F401F5017008F200F301720827
:1034E200F6007308F700781C772A782A7C2A760877
:1034F200F4077708F53D0130F635F70D890B7D2A83
:103502000310F80C7808031D872A882A742A750884
:10351200F1007408F00008002F302100E7000130AC
:10352200E8007D30E9009830EA0022002E082100F0
:10353200EE0022002D082100ED0022002C082100BF
:10354200EC0022002B082100EB009A31FD229A3177
:103552002F30F2000130F300993144219A310800F2
:103562002000A300A101A201C72A2008F900FA0144
:103572007908F0007A08F1007808F2009C319A2468
:103582009A3101302000A1070030A23D2108230713
:10359200F90079088600023087000108A00020089F
:1035A200031DD42AD52AB62A0800F5007008F700B0
:1035B2007508F600F02A77088600023087000108B5
:1035C200F4000130F3007308F70776088600023032
:1035D2008700740881000130F3007308F607013098
:1035E200F1020030F23B710A031DFB2A720A031D2D
:1035F200FB2AFC2ADC2A0800EB302200A000210072
:1036020068082200A200210067082200A100A3018D
:10361200A401A901AA0121006A08E2006908E100E7
:103622002030E30021309A3107229A310230213EC4
:10363200860001308700403F210067078400413F38
:10364200683D850080010800F1007108F000043037
:10365200F036890B292B70080F39103E22008D009D
:103662007108F0000430F036890B342B70080F39E2
:103672008D000D30F000B930890B3D2BF00B3D2B46
:10368200000071080F39103E22008D0071080F39B9
:103692008D000D30F000B930890B4D2BF00B4D2B06
:1036A20000000800F1007108F0000430F036890BC8
:1036B200572B70080F39303E22008D007108F00040
:1036C2000430F036890B622B70080F39203E8D00D2
:1036D2000D30F000B930890B6C2BF00B6C2B000015
:1036E20071080F39303E22008D0071080F39203EDB
:1036F2008D000D30F000B930890B7D2BF00B7D2B46
:10370200000008002000A900FD1B882B892B8E2BAE
:103712007D08A8007C08A700902BA701A801A5019D
:10372200A601A22B2030F0000030F1002000290871
:10373200F2009C319A249B3101302000A507003011
:10374200A63D2608803AA4002808803A2402031DD8
:10375200AC2B27082502031CAF2BB02B932B200088
:103762002908F8007B089A31B1229B310800023007
:10377200F1007E30F000CE30890BBD2BF00BBD2B5B
:10378200F10BBD2B0032233022008D0003308D005F
:103792008030F0004430890BCC2BF00BCC2B003264
:1037A200233022008D0003308D002030F000D03015
:1037B200890BD92BF00BD92B0032233022008D003C
:1037C20003308D002030F000D030890BE62BF00B57
:1037D200E62B0032233022008D0003308D00203092
:1037E200F000D030890BF32BF00BF32B00320800E2
:1037F20000307005F80000307105F9008030720564
:10380200FA007F307305FB007B087A0479047804A0
:10381200031D0C2C0D2C152C0030F3000030F2008F
:103822000030F1000030F00000307405F800003084
:103832007505F90080307605FA007F307705FB00C8
:103842007B087A0479047804031D282C292C312C56
:103852000030F7000030F6000030F5000030F400D0
:1038620077087306031D3F2C76087206031D3F2C52
:1038720075087106031D3F2C740870060319422C4B
:10388200432C452C0310462C03140800F601F31FA9
:103892004B2C4C2C532CF209F309F20A0319F30AAC
:1038A200F601F60AF11F562C572C5C2CF009F1098F
:1038B200F00A0319F10A700871040319612C622CD1
:1038C2008B2CF501F50A6E2C0130F035F10D890BC8
:1038D200662C0130F4007408F507F11F712C722C6C
:1038E200652C71087302031D782C70087202031C88
:1038F2007B2C7C2C802C7008F2027108F33B013087
:10390200F136F00C890B812C0130F502031D8A2C53
:103912008B2C722C760803198F2C902C952CF20983
:10392200F309F20A0319F30A7308F1007208F000AE
:103932000800720803199E2C9F2CA42C7208031DE8
:10394200A32CA42CA92C7008803105209C31F42CC6
:103952007208083E86000130870016000104031930
:10396200B32CB42CD42C7208083E86000130870098
:10397200403FF300413FF4007208023E86000130EE
:103982008700403FF500413FF6007608803AF70095
:103992007408803A7702031DD02C7308750203184D
:1039A200D32CD42CF42C7208023E860001308700FE
:1039B2007208840001308500403F0007F3000131A6
:1039C200413F003DF40073088600740887007008C8
:1039D20081007208023E86000130870001308107B3
:1039E20041310318810A08002000A101F81FFA2CB6
:1039F200FB2C022DF709F809F70A0319F80AA101AD
:103A0200A10AFA1F052D062D0F2DF909FA09F90A47
:103A12000319FA0A0130FB007B08A106A201A301E7
:103A2200770878040319162D172D462DA001A00A38
:103A3200232D0130F735F80D890B1B2D0130FB00CA
:103A42007B08A007F81F262D272D1A2D0130A2353D
:103A5200A30D890B282D78087A02031D322D7708D1
:103A62007902031C352D362D3B2D7708F902780893
:103A7200FA3B22140130F836F70C890B3C2D013049
:103A8200A002031D452D462D272D210803194A2D7D
:103A92004B2D502DA209A309A20A0319A30A230838
:103AA200F8002208F70008000310720D730DF900E8
:103AB2007908031D5D2D5E2D672D0030F300003067
:103AC200F2000030F1000030F000C42D7008F40064
:103AD2007108F5007208F6007308F7001F30F73618
:103AE200F60CF50CF40C890B702D7408F800F21723
:103AF200FF30F005FF30F105FF30F2050030F3052D
:103B02009630F902F91F862D872D9F2D7908803A6C
:103B1200973E03188D2D8E2D8F2D5E2D0130F3369D
:103B2200F20CF10CF00C890B902D0130F4007408AA
:103B3200F907031D9D2D9E2D8F2DB42D2030790266
:103B4200031CA42DA52DAF2D5E2D0130F035F10DF6
:103B5200F20DF30D890BA72D0130F9027908031D2F
:103B6200B32DB42DA62D78080319B82DB92DC42D67
:103B7200F009F109F209F309F00A0319F10A03192C
:103B8200F20A0319F30A080022004A082000A500DD
:103B9200220049082000A400220048082000A300B7
:103BA200220047082000A2007308A5007208A400A2
:103BB2007108A3007008A2002208F4002308F5008F
:103BC2002408F6002508F7001730F736F60CF50C36
:103BD200F40C890BE62DFF307405A000003075054A
:103BE200A10020082104031DF72DF82D192E22080B
:103BF200F4002308F5002408F6002508F700013038
:103C0200F435F50DF60DF70D890B012E77087604C4
:103C120075047404031D0E2E0F2E142E0230F000B4
:103C22000030F100432E0330F0000030F100432E4B
:103C3200200A2104031D1E2E1F2E3F2E2208F400EF
:103C42002308F5002408F6002508F7000930F435AA
:103C5200F50DF60DF70D890B282E770876047504FD
:103C620074040319352E372E0130382E0030F80037
:103C7200F9017808F0007908F100432E0430F000D1
:103C82000030F1000800003020003A05C200003088
:103C92003B05C30080303C05C4007F303D05C500B4
:103CA2004508440443044204031D582E592E612E34
:103CB2000030BD000030BC000030BB000030BA0054
:103CC20000303E05C20000303F05C3008030400591
:103CD200C4007F304105C500450844044304420442
:103CE200031D742E752E7D2E0030C1000030C000E1
:103CF2000030BF000030BE00BD1F802E812E992EE5
:103D02000030C2000030C3000030C4008030C50063
:103D12003A08C2023B08C33B3C08C43B3D08C53BD2
:103D22004508BD004408BC004308BB004208BA0075
:103D3200C11F9C2E9D2EB52E0030C2000030C30044
:103D42000030C4008030C5003E08C2023F08C33BB9
:103D52004008C43B4108C53B4508C1004408C000B7
:103D62004308BF004208BE008030BD068030C10655
:103D720041083D02031DC72E40083C02031DC72E09
:103D82003F083B02031DC72E3E083A020318CA2E03
:103D9200CB2ECD2E0310CE2E031408002000A2013C
:103DA200A301A001A101D92E0130F6070030F73D91
:103DB20076088400770885001200203A0319E22E63
:103DC200E32ED52E76088400770885000008F73E9A
:103DD200F800FF3003180030F90000307902053096
:103DE20003197802031CF62EF72ED52E022F01306E
:103DF2002000A0000030A1000130F6070030F73D9E
:103E0200372F76088400770885000008F800F9014A
:103E12007908003A03190E2F372F78082B3A031925
:103E2200FD2E063A0319F82E372F760884007708FC
:103E320085000008F80020002308F1002208F000A5
:103E42000A30F2000030F3009931A9219E31710845
:103E5200FA0078087002F900031CFA037908303E70
:103E62002000A20000307A3DA300FD2E76088400D7
:103E7200770885000008D03EF800FF3003180030B4
:103E8200F900003079020A3003197802031C4A2F24
:103E92004B2F162F200020082104031D512F522FD3
:103EA2005E2F2209F8002309F900F80A0319F90A1A
:103EB2007808F6007908F700622F2308F700220835
:103EC200F600080022000F148F100F111030890B1A
:103ED200682F000020000F1E6F2F702F762F0F1AF1
:103EE200732F742F702F3130FF2F8F1E792F7A2F5F
:103EF200802F8F1A7D2F7E2F7A2F3430FF2F0F1FA6
:103F0200832F842F8A2F0F1B872F882F842F3730E0
:103F1200FF2F8F1F8D2F8E2F942F8F1B912F922F5C
:103F22008E2F2A30FF2F22000F108F140F11103006
:103F3200890B992F000020000F1EA02FA12FA72F61
:103F42000F1AA42FA52FA12F3230FF2F8F1EAA2FB9
:103F5200AB2FB12F8F1AAE2FAF2FAB2F3530FF2FD4
:103F62000F1FB42FB52FBB2F0F1BB82FB92FB52F93
:103F72003830FF2F8F1FBE2FBF2FC52F8F1BC22F91
:103F8200C32FBF2F3030FF2F22000F108F100F15BD
:103F92001030890BCA2F000020000F1ED12FD22F04
:103FA200D82F0F1AD52FD62FD22F3330FF2F8F1E97
:103FB200DB2FDC2FE22F8F1ADF2FE02FDC2F3630A2
:103FC200FF2F0F1FE52FE62FEC2F0F1BE92FEA2FF4
:103FD200E62F3930FF2F8F1FEF2FF02FF62F8F1B79
:103FE200F32FF42FF02F2330FF2F22000F108F100A
:0E3FF2000F111030890BFB2F0000203008004B
:020000040001F9
:08000000FF3FFF3FFF3FFF3F00
:04000E00E209FF1CE8
:00000001FF
