:10000000803102288731E02F080021001D149E173F
:100010001E088F3910389E009C019B0108002000AB
:10002000A900FD1B18287D08A8007C08A7001A2835
:10003000A701A801A501A6012608803AA400280866
:10004000803A2402031D2628270825020318382891
:100050002030F0000030F10020002908F2009F312C
:100060004E27803101302000A5070030A63D1C2816
:1000700020002908F8007B089D31952508002308F9
:100080008039AD002335B300A21B331433080319A4
:100090005628330A031D54280030A3000030A20064
:1000A0000030A1000030A000A2175E280030A3009D
:1000B0000030A2000030A1000030A00027088039E5
:1000C000A8002808AD062735AE00A61B2E142E0862
:1000D000031977282E0A031D75280030A700003069
:1000E000A6000030A5000030A400A6177F2800302D
:1000F000A7000030A6000030A5000030A4002E08A4
:10010000031D3308031D8D280030A3000030A2001A
:100110000030A1000030A00008002008F0002608F0
:100120009D31572580317108B9007008B800380832
:10013000A800A901AA01AB012B08B2002A08B1004E
:100140002908B0002808AF003908A800A901AA01B1
:10015000AB012B08B7002A08B6002908B50028080B
:10016000B4002108F00025089D3157258031710821
:10017000B9007008B8003808A800A901AA01AB01AD
:100180002808AF072908B03D2A08B13D2B08B23D29
:100190003908A800A901AA01AB012808B407290859
:1001A000B53D2A08B63D2B08B73D2208F0002408CB
:1001B0009D31572580317108B9007008B8003808A2
:1001C000A800A901AA01AB012808AF072908B03D82
:1001D0002A08B13D2B08B23D3908A800A901AA019F
:1001E000AB012808B4072908B53D2A08B63D2B08FD
:1001F000B73D0830AF35B00DB10DB20D890BFA28FF
:100200002108F00024089D31572580317108B9007C
:100210007008B8003808AF073908B03D0030B13D6C
:10022000B23D2008F00025089D3157258031710826
:10023000B9007008B8003808AF073908B03D003081
:10024000B13DB23D0830AF35B00DB10DB20D890BE7
:1002500023292008F00024089D315725803171089A
:10026000B9007008B8003808AF073908B03D003051
:10027000B13DB23D2108F00026089D31572580315F
:100280007108B9007008B8003808B4073908B53DDE
:100290000030B63DB73D2208F00025089D315725B6
:1002A00080317108B9007008B8003808B4073908FF
:1002B000B53D0030B63DB73D2208F00026089D311F
:1002C000572580317108B9007008B8003808A800B7
:1002D0003908A900AA01AB010830A835A90DAA0D5B
:1002E000AB0D890B6D292808B4072908B53D2A08EC
:1002F000B63D2B08B73D3208A800A901AA01AB0101
:100300002808B4072908B53D2A08B63D2B08B73D93
:100310000830AF35B00DB10DB20D890B8929330806
:100320002E07A800A901A90D2808823EB800FF30B9
:10033000293DB900B61BB1290130B435B50DB60D54
:10034000B70D890B9D29B21B34140130AF35B00DA8
:10035000B10DB20D890BA629FF30B807FF30B93DAA
:100360009A29AE01B21FCA29FF302F05A800FF301D
:100370003005A900FF303105AA007F303205AB00FF
:100380002B082A042904280403193418C829CA2967
:10039000AE01AE0A2E080319F3290130B40700306C
:1003A000B53D0030B63D0030B73D371CF329340869
:1003B000A8003508A9003608AA003708AB000130AC
:1003C000AC00AB37AA0CA90CA80CAC0BE1292B088C
:1003D000B7002A08B6002908B5002808B400013083
:1003E000B8070030B93D3908803AA80080302802AB
:1003F000031DFC29FF303802031C082A7F3020002F
:10040000B7008030B6000030B5000030B4002E2AAE
:1004100020003908803AA80080302802031D122AE3
:100420000130380203181F2A00302000B7000030C6
:10043000B6000030B5000030B400AD012E2A200017
:100440003808B300FF30B405FF30B5057F30B6057E
:100450000030B7053318B6173336B7002D08A8009B
:100460002808B7043708A3003608A2003508A10001
:100470003408A0000800B300C60120006B0821006A
:10048000CC0020006A082100CB0020006908210070
:10049000CA00200068082100C9004C082000BD00E7
:1004A00021004B082000BC0021004A082000BB00AE
:1004B000210049082000BA000030C1000030C0000F
:1004C0000030BF000030BE0091313B218231031863
:1004D0007F2A2100C601C60A4C08F3004B08F2002F
:1004E0004A08F1004908F0009C3159248231730810
:1004F000CC007208CB007108CA007008C900210046
:10050000C701C80122004C082100B70022004B0897
:100510002100B60046080319982A4608031D922AAE
:100520002B30932A2D30AA000030AB002A08C600D9
:100530004C08F3004B08F2004A08F1004908F000AB
:100540009031C320823170037104031DCE2A210033
:1005500046080319B72A46082400A000FF302100EE
:10056000B607FF30B73D0130C7000030C800823009
:10057000F0009830F1004708203E9C31FF24823182
:10058000FD30B607FF30B73D2030FB003708FD00D7
:100590003608FC00330880310F20080021004C0889
:1005A000F3004B08F2004A08F1004908F0009031CE
:1005B000C320823170087104031D052B21004608F9
:1005C0000319EE2A46082400A000FF302100B607D8
:1005D000FF30B73D0130C7000030C8008630F00062
:1005E0009830F1004708203E9C31FF248231FD30D5
:1005F000B607FF30B73D2030FB003708FD00360856
:10060000FC00330880310F2008003F302100D0006B
:100610008030CF000030CE000030CD00B401B501F5
:100620004C08F3004B08F2004A08F1004908F000BA
:100630000030F7000030F6000030F5000030F40024
:100640009F3106278231031C332B2E2C21003B08BF
:10065000D0003A08CF003908CE003808CD0001306C
:10066000B4070030B53D41302000A3002030A20087
:100670000030A1000030A000210050082000A70099
:1006800021004F082000A60021004E082000A500F0
:1006900021004D082000A40080313F208231230832
:1006A0002100BB00200022082100BA002000210800
:1006B0002100B900200020082100B80038084902B4
:1006C000A00039084A3BA1003A084B3BA2003B0876
:1006D0004C3BA3002308F3002208F2002108F1009C
:1006E0002008F0009D3176258231F31B262B7308FC
:1006F000031D842B7208031D842B7108031D842B9A
:1007000002307002031C262B21003B082000BD0094
:1007100021003A082000BC00210039082000BB005D
:10072000210038082000BA0021004C082000C10038
:1007300021004B082000C00021004A082000BF0013
:10074000210049082000BE0091313B218231031C69
:10075000262B21004D084902A0004E084A3BA1006B
:100760004F084B3BA20050084C3BA3002308F3006A
:100770002208F2002108F1002008F0009D317625C2
:100780008231F31BD02B7308031D092C7208031D43
:10079000092C7108031D092C023070020318092C62
:1007A00021005008CC004F08CB004E08CA004D086D
:1007B000C9002E2C4130BD002030BC000030BB00F1
:1007C0000030BA00210050082000C10021004F086D
:1007D0002000C00021004E082000BF0021004D086D
:1007E0002000BE009631912682313D082100D000C4
:1007F00020003C082100CF0020003B082100CE0053
:1008000020003A082100CD00FF30B407FF30B53D8D
:10081000AA2B21004C082000BD0021004B0820001D
:10082000BC0021004A082000BB002100490820002C
:10083000BA00210050082000C10021004F0820000C
:10084000C00021004E082000BF0021004D082000FC
:10085000BE0091313B218231031CDA2B20006C0851
:100860002100AD002D08AE002200CE1B3F2C4E080B
:100870002100A70022004D082100A600442C0630CC
:100880002100A6000030A7002708B2002608B1000A
:100890000130B1070030B23D66302E06031D642CD6
:1008A000B51F5C2C3F30D0008030CF000030CE0030
:1008B0000030CD00B401B50167302D060319642C5A
:1008C0003408B1073508B23DBC01BD014C08C10078
:1008D0004B08C0004A08BF004908BE005008BB00D2
:1008E0004F08BA004E08B9004D08B8003D08803ADC
:1008F000A0003208803A2002031D802C31083C02FF
:1009000003184B2D210050082000BD0021004F0886
:100910002000BC0021004E082000BB0021004D0833
:100920002000BA00210041082000C1002100400839
:100930002000C00021003F082000BF0021003E0829
:100940002000BE009631912682313D08D7003C0838
:10095000D6003B08D5003A08D4009231D02282312B
:10096000200057082100C500200056082100C400BF
:10097000200055082100C300200054082100C200B7
:100980004508F3004408F2004308F1004208F00073
:100990009F319F2782317108B0007008AF00500866
:1009A0002000A70021004F082000A60021004E08CB
:1009B0002000A50021004D082000A40021004508CA
:1009C0002000A300210044082000A20021004308C9
:1009D0002000A100210042082000A00080313F201B
:1009E00082312308BD002208BC002108BB0020087A
:1009F000BA00210041082000C10021004008200069
:100A0000C00021003F082000BF0021003E08200058
:100A1000BE009D31392582313D082100C1002000F2
:100A20003C082100C00020003B082100BF0020003E
:100A30003A082100BE0041302000BD002030BC003B
:100A40000030BB000030BA00210050082000C10077
:100A500021004F082000C00021004E082000BF00E8
:100A600021004D082000BE009631912682313D08BC
:100A70002100D00020003C082100CF0020003B08CE
:100A80002100CE0020003A082100CD000130BC0733
:100A90000030BD3D762C40302000A300A030A200E5
:100AA0000030A1000030A000210050082000A70065
:100AB00021004F082000A60021004E082000A500BC
:100AC00021004D082000A40080313F2082312308FE
:100AD0002100C500200022082100C40020002108B8
:100AE0002100C300200020082100C200410820008E
:100AF000BD00210040082000BC0021003F0820006C
:100B0000BB0021003E082000BA002100450820005B
:100B1000C100210044082000C0002100430820003B
:100B2000BF00210042082000BE0091313B218231EC
:100B300003189D2D00302100B52D21004108F30040
:100B40004008F2003F08F1003E08F0004508F700B9
:100B50004408F6004308F5004208F4009F310627D8
:100B6000823103182F18BC2D0030C5000030C4009E
:100B70000030C3000030C2004508F3004408F20012
:100B80004308F1004208F0004C08F7004B08F6005B
:100B90004A08F5004908F40088317620823173084C
:100BA0002100C1007208C0007108BF007008BE00BB
:100BB00041082000BD00210040082000BC002100A9
:100BC0003F082000BB0021003E082000BA00413051
:100BD000A3002030A2000030A1000030A0002100BE
:100BE0003B082000A70021003A082000A6002100B1
:100BF00039082000A500210038082000A400803119
:100C00003F2082312308C1002208C0002108BF0014
:100C10002008BE0091313B218231031C472E013058
:100C20002100B4070030B53D41302000A300203042
:100C3000A2000030A1000030A00021003B082000ED
:100C4000A70021003A082000A60021003908200052
:100C5000A500210038082000A40080313F20823107
:100C600023082100BB00200022082100BA00200038
:100C700021082100B900200020082100B8006630BA
:100C80002E06031D472E0130B1070030B23D210072
:100C90003B08D0003A08CF003908CE003808CD0014
:100CA0003508A5003408A400AC01A801A901BC01C5
:100CB000BD01802F210050082000BD0021004F08F9
:100CC0002000BC0021004E082000BB0021004D0880
:100CD0002000BA00210041082000C1002100400886
:100CE0002000C00021003F082000BF0021003E0876
:100CF0002000BE009631912682313D08D7003C0885
:100D0000D6003B08D5003A08D4009231D022823177
:100D1000200057082100C500200056082100C4000B
:100D2000200055082100C300200054082100C20003
:100D30004508F3004408F2004308F1004208F000BF
:100D40009F319F2782317108803AA00080302002B5
:100D5000031DAC2E0A3070020318BF2E2100450877
:100D6000F3004408F2004308F1004208F0009F310C
:100D70009F2782317108B0007008AF00C42E09307F
:100D80002100AF000030B0002C080319A51FD92E98
:100D90004708203E8600023087002E308100013057
:100DA000C7070030C83DFF30B607FF30B73DAC0184
:100DB000AC0A280829040319F12E4708203E8600B2
:100DC00002308700303081000130C7070030C83D55
:100DD000FF30B607FF30B73DFF30A807FF30A93D11
:100DE000D92E4708203E8600023087002F08303E6B
:100DF00081000130C7070030C83DFF30B607FF3023
:100E0000B73D50082000A70021004F082000A60091
:100E100021004E082000A50021004D082000A4005C
:100E2000210045082000A300210044082000A20062
:100E3000210043082000A100210042082000A0005A
:100E400080313F2082312308BD002208BC002108E8
:100E5000BB002008BA00210041082000C100210089
:100E600040082000C00021003F082000BF002100F2
:100E70003E082000BE009D31392582313D08210009
:100E8000C10020003C082100C00020003B082100D8
:100E9000BF0020003A082100BE0041302000BD0004
:100EA0002030BC000030BB000030BA0021005008E8
:100EB0002000C10021004F082000C00021004E0882
:100EC0002000BF0021004D082000BE009631912671
:100ED00082313D082100D00020003C082100CF00D5
:100EE00020003B082100CE0020003A082100CD0060
:100EF000FF30A407FF30A53D0130BC070030BD3DE9
:100F00003D08803AA0003208803A2002031D8A2F53
:100F100031083C020318982F21004808803AA000AD
:100F200080302002031D962F4B304702031C5A2E9F
:100F30004F302100BC000030BD003C08203E860040
:100F40000230870081012030F0004808F200470895
:100F5000F1002030A000470820023C079D31B62553
:100F6000823147083C02C70048083D3BC80046089C
:100F70000319BC2F0130BD2F0030A000A1012008B3
:100F8000BC002108BD0046080319D12FFF30C70758
:100F9000FF30C83D4708203E8600023087004608E3
:100FA00081003C08B6023D08B73B4708203EFB00E5
:100FB0003708FD003608FC00330880310F20080098
:100FC000623084009C308500D43086000130870078
:100FD00009309C31532487312100EF0143308400D4
:100FE000013085000C309C314D2487312030840045
:100FF0000230850050309C314D2420008C31052C6E
:1010060054085504031D0B28833021009D051E2816
:1010160054035504031D142821001D088339043880
:101026001D28023054065504031D1E2821001D08E4
:10103600833920389D0007302000D8005B30890BAB
:101046002228D80B2228003221009D149D149D18B9
:101056002A281C081B082000D800D9015808DE00E1
:101066005908DF004430BD007F30BC00C030BB00F3
:101076000030BA004030A300A030A2000030A1002A
:101086000030A0005E08F0005F08F100F201F301F5
:10109600003092313D22883173082000A700720883
:1010A600A6007108A5007008A40080313F20883191
:1010B6002308C1002208C0002108BF002008BE0086
:1010C600963191263D08DD003C08DC003B08DB003C
:1010D6003A08DA005D08D7005C08D6005B08D50040
:1010E6005A08D400080073088039F8007335FA00EE
:1010F600F21B7A147A0803198E287A0A031D8B28A4
:101106000030F3000030F2000030F1000030F00053
:10111600F217F30196280030F3000030F200003099
:10112600F1000030F00077088039F9007908780678
:10113600031D78177735F900F61B7914790803191A
:10114600B228790A031DAF280030F7000030F600F8
:101156000030F5000030F400F617F701BA28003029
:10116600F7000030F6000030F5000030F4007A0891
:1011760079020318E328781FC52880302000A000D4
:101186002008F8067A08FB007908FA007B08F900BF
:101196007008FB007408F0007B08F4007108FB007F
:1011A6007508F1007B08F5007208FB007608F2006E
:1011B6007B08F6007308FB007708F3007B08F7004E
:1011C600FB0179082000A000A1012108A3007A08EC
:1011D6002002A200031CA3032308803AA400803047
:1011E6002402031DF8281A302202031C262973083C
:1011F60072047104700403190229013003290030B6
:10120600FB000030F3000030F2000030F100003047
:10121600F0007908FA002A297B1C15297B3601384B
:10122600FB0017290310FB0C7018FB170130200078
:10123600A000F337F20CF10CF00CA00B1C290130C6
:10124600A0002008FA0779087A02031C0F29781BE8
:101256005A297A08031D38290030F3000030F200BD
:101266000030F1000030F00008007408F00775083F
:10127600F13D7608F23D7708F33D731CD5297B1CBA
:1012860048297B360138FB004A290310FB0C7018ED
:10129600FB1701302000A000F337F20CF10CF00C24
:1012A600A00B4F290130A0002008FA07D5297308A2
:1012B600803A2000A0007708803A2002031D6D299D
:1012C60076087202031D6D2975087102031D6D29CA
:1012D600740870020318A529FF30A000FF30A10092
:1012E600FF30A200FF30A30070087402A40071084A
:1012F600753BA5007208763BA6007308773BA700EE
:101306002408A0072508A13D2608A23D2708A33DDD
:101316002308F3002208F2002108F1002008F0005B
:101326008030A0002008F806FB09FB0A7B08031D95
:10133600AD290130F0070030F13D0030F23D0030BC
:10134600F33DAD297408F0027508F13B7608F23BCF
:101356007708F33B7308720471047004031DD329E4
:101366007B08031DD3290030F3000030F200003063
:10137600F1000030F00008000130F035F10DF20DFB
:10138600F30D890BC029FB1B70147B1CCC2903149D
:10139600CD290310FB0D7A080319D3290130FA026F
:1013A600F21FBF29F901FB1FE0297B087F390319CA
:1013B6007018DE29E029F901F90A790803190D2ABE
:1013C6000130F0070030F13D0030F23D0030F33DD2
:1013D600731C0D2A70082000A0007108A100720875
:1013E600A2007308A3000130A400A337A20CA10C2D
:1013F600A00CA40BF8292308F3002208F200210808
:10140600F1002008F0007A0A03190D2A0130A00025
:101416002008FA077A0A031D7A08031D1D2A0030E0
:10142600F3000030F2000030F1000030F0007A08DE
:101436000319F8017A1C212AF217262A7F30200088
:10144600A0002008F2057A36F300F81F0800F3170B
:101456000800DE0020006D0886008701403F21005D
:10146600D100413FD2005108840052088500120085
:10147600253A031DEB2B20006D08860087010130FD
:10148600810741310318810A2200CB01CC010310E8
:101496000030031801302100EF00FF302200CD009C
:1014A600FF30CE0020006D0886008701403F2100F6
:1014B600D100413FD2005108840052088500120035
:1014C6002E3A031DCF2A2200CD01CE0120006D0841
:1014D600860087010130810741310318810A6D08B2
:1014E60086008701403F2100D100413FD2005108CC
:1014F60084005208850012002A3A031D9A2A200009
:101506006D08860087010130810741310318810A81
:101516006E088600013087000108840085010230CC
:101526008107003F2200CD00013FCE00CF2A2000D8
:101536006D0886008701403FF600413FF700913174
:10154600B6218A3177082200CE007608CD00200029
:101556006D0886008701403F2100D100413FD2003F
:1015660051088400520885000008D03ED300FF30A1
:1015760003180030D400003054020A300319530215
:101586000318CF2A20006D088600870101308107E5
:1015960041310318810AAA2A20006D0886008701B6
:1015A600403F2100DF00413FE0005F088400600803
:1015B60085001200643A0319E82A5F08840060086F
:1015C60085001200693A031D372B20006E0886003D
:1015D6000130870001088400850102308107003F41
:1015E6002100D100013FD2005108D5005208D60093
:1015F600890D893B8909D700D800D900DA00DB00BC
:10160600DC005F08013ED1000030603DD2002000C2
:101616006D088600870121005108C03F5208C13F6E
:1016260055082000B000210056082000B100210016
:1016360057082000B200210058082000B3002100FE
:1016460059082000B40021005A082000B5002100E6
:101656005B082000B60021005C082000B7002100CE
:101666005E0895317125080020006D088600870107
:10167600403F2100DF00413FE0005F088400600832
:1016860085000008DD00512B0130DF070030E03D0A
:10169600642B6C30DD00642BDD01642B5D08D1000A
:1016A600D2015208003A0319592B4F2B51084C3AD4
:1016B6000319472B2A3A03194C2B0A3A0319472BCD
:1016C6004F2B5F088400600885001200663A0319F4
:1016D600942BE12B20006E0886000130870001085C
:1016E6008400850104308107003F2100D500013FB9
:1016F600D600023FD700033F922B20006E088600DB
:101706000130870001088400850104308107003F0D
:101716002100D500013FD600023FD700033FD80085
:10172600A42B5D08D100D2015208003A03199C2B64
:10173600A42B51084C3A0319802B203A03196D2B20
:10174600A42B5F08013ED1000030603DD20020008E
:101756006D088600870121005108C03F5208C13F2D
:10176600D02B58082000EB00210057082000EA0083
:10177600210056082000E900210055082000E80055
:1017860021005F0884006008850000082000EC0046
:1017960021005E0882313B2208005F088400600851
:1017A60085000008D100D2015208003A0319DC2B4B
:1017B600E12B5108663A0319B42BE12B20006D0882
:1017C600860087010130810741310318810A08002C
:1017D60020006D0886008701403F2100D100413F6F
:1017E600D20051088400520885000008D300D401B5
:1017F6005308F0005408F1005E08F2009F314E27AE
:101806008A31E12BF03021008F0023008F01210067
:101816008D018E01FF3023008C009E3180268C3195
:1018260028309E3122268C310C309E3122268C3176
:1018360006309E3122268C3101309E3122268C3193
:1018460082309E3122268C315630F2009830F300D9
:101856009C316B248C31C4309E3122268C3162300F
:10186600F2009830F3009C316B248C317D302200DD
:10187600C0004A30BF00D930890B3F2CBF0B3F2C2C
:10188600C00B3F2C003201309E3122268C31803134
:1018960005208C3123005A08CF005B08D0005C0875
:1018A600D100D430860001308700C9308400013071
:1018B600850006302200BF0016001A00BF0B5F2C01
:1018C6002300BD01BE01BF01C001C101C201C701A4
:1018D600C801D201D301BB01BB0ABC01B601782EF7
:1018E6003D083E040319A72C80309E3122268C31F8
:1018F6000030F2009830F3009C316B248C31C030FC
:101906009E3122268C3123003E082200AC002300A3
:101916003D082200AB009C31C8248C3132302200B5
:10192600C000B830BF002230890B972CBF0B972C14
:10193600C00B972C00002300BB01BC01BC0A013080
:101946009E3122268C31782E80309E3122268C3193
:101956002E30F2009830F3009C316B248C31C0306D
:101966009E3122268C31CF30F2000130F3009C31BB
:101976006B248C31903156208C312300C5002330E6
:101986004506031D0F2D01309E3122268C31230082
:101996005108D03EA800FF3003180030A9005008B7
:1019A600D03EAA00FF3003180030AB004F08D03EEF
:1019B600AC00FF3003180030AD002D08F1002C08F4
:1019C600F0006430F2000030F3009C31AD248C311D
:1019D60070082200BF007108C00023002B08F10028
:1019E6002A08F0000A30F2000030F3009C31AD24E2
:1019F6008C31700822003F07C1007108403DC200CB
:101A060023002808220041072300BD0029082200E0
:101A1600423D2300BE00782E2A304506031D332D95
:101A260047034804031D1A2D3030D1002F2D0230F4
:101A360047064804031D242D5008D1003030D0003D
:101A46002F2D033047064804031D782E5008D10079
:101A56004F08D0003030CF00FF30C707FF304D2D84
:101A6600203045060319782E470848040319482DE7
:101A7600470348040319462D023047064804031D50
:101A8600782E5008CF005108D0004508D10001300B
:101A9600C7070030C83D782E3F084004031D572D68
:101AA600410842040319BF2D80309E3122268C3115
:101AB6003C30F2009830F3009C316B248C31C030FE
:101AC6009E3122268C31230040082200AC002300E0
:101AD6003F082200AB009C31C8248C313A309E313D
:101AE60050268C31230042082200AC002300410816
:101AF6002200AB009C31C8248C3132302200C00059
:101B0600B830BF002230890B862DBF0B862DC00B47
:101B1600862D000001309E3122268C3180309E3188
:101B260022268C311030F2009830F3009C316B2461
:101B36008C31C0309E3122268C316B30F2009830C9
:101B4600F3009C316B248C3132302200C000B83057
:101B5600BF002230890BAD2DBF0BAD2DC00BAD2DB7
:101B6600000001309E3122268C312300BC01B601D3
:101B7600B60A20000E14782E80309E3122268C3133
:101B86004A30F2009830F3009C316B248C31C0301F
:101B96009E3122268C31C930F2000130F3009C318F
:101BA6006B248C31903156208C312300C6002330B3
:101BB6004606031D242E01309E3122268C31230039
:101BC6004A08D03EAE00FF3003180030AF00490887
:101BD600D03EB000FF3003180030B1004D08D03EB3
:101BE600B200FF3003180030B3004C08D03EB400FA
:101BF600FF3003180030B5003108F1003008F0005E
:101C06000A30F2000030F3009C31AD248C31230001
:101C16002E087007BF002F08713DC0003508F1007F
:101C26003408F0000A30F2000030F3009C31AD2495
:101C36008C31230032087007C1003308713DC200A1
:101C4600782E2A304606031D562E52035304031DD2
:101C56002F2E3030CD00522E023052065304031D73
:101C6600392E4C08CD003030CC00522E03305206AF
:101C76005304031D452E4C08CD004A08CC003030D5
:101C8600CA00522E043052065304031D782E4C0807
:101C9600CD004A08CC004908CA003030C900FF30E0
:101CA600D207FF30772E203046060319782E5208C9
:101CB60053040319722E520353040319702E023073
:101CC6005206530403196E2E033052065304031DA5
:101CD600782E4A08C9004C08CA004D08CC004608B0
:101CE600CD000130D2070030D33D23003B08031D51
:101CF600732C3C08031D4F2D3C08031D782E3B0812
:101D0600031D782E36080319D32F4008F1003F082B
:101D1600F0001030F2000E30F3009C31AD248C310F
:101D260070082200BF007108C00023004208F100BD
:101D36004108F0003C30F2000030F3009C31AD2445
:101D46008C31700822003F072300C300710822006F
:101D5600403D2300C40023004408803A2200BF000F
:101D660080303F02031DBA2E013023004302031CBC
:101D7600CC2F80309E3122268C311030F7000E3069
:101D8600F80023004408FA004308F90090310420C3
:101D96008C3178082200AC007708AB009C31C8244F
:101DA6008C313A309E3150268C313C30F700003071
:101DB600F80023004408F3004308F2001030F00056
:101DC6000E30F1009E31C1268C317108FA00700880
:101DD600F900903104208C3178082200AC00770895
:101DE600AB009C31C8248C313A309E3150268C3160
:101DF6003C30F0000030F10023004408F3004308B3
:101E0600F2009E31C1268C3171082200AC007008A8
:101E1600AB009C31C8248C31C0309E3122268C31D7
:101E260000302000D400D500883103208C315708BB
:101E36002300A300200056082300A2002000550816
:101E46002300A100200054082300A00042302000F7
:101E5600A300C830A2000030A1000030A00023007B
:101E660023082000A700230022082000A600230044
:101E760021082000A500230020082000A4008031AE
:101E86003F208C3123082300BA00200022082300BB
:101E9600B900200021082300B800200020082300F4
:101EA600B7007230F2009830F3009C316B248C310D
:101EB60023003A082200AE00230039082200AD00B4
:101EC600230038082200AC00230037082200AB00AC
:101ED6009D31D9258C3119302200C0009C30BF00BD
:101EE600ED30890B742FBF0B742FC00B742F00328B
:101EF60001309E3122268C31FF302300C307FF308C
:101F0600C43D3D08053EF00000303E3DF100F201C3
:101F1600F11BF2037208F300013092313D228C313D
:101F260073082300A7007208A6007108A5007008B0
:101F3600A40027082000BD00230026082000BC00BE
:101F4600230025082000BB00230024082000BA0037
:101F560023003A082000C100230039082000C000F1
:101F6600230038082000BF00230037082000BE00E9
:101F760091313B218C31031CC62F22000E148E108A
:101F86000E118E15AE2E22000E108E140E158E1109
:101F9600AE2E22000E108E140E118E152300B601E1
:101FA60080309E3122268C311F30F2009830F300AB
:101FB6009C316B248C31C6309E3122268C31783090
:101FC600F2009830F3009C316B248C317D30220076
:101FD600C0004A30BF00D930890BEF2FBF0BEF2F5F
:101FE600C00BEF2F00322300BB01BB0ABD01BE01AF
:0A1FF600BF01C001C101C201782E35
:102008002000A101F81F0F28F709F809F70A03199A
:10201800F80AA101A10AFA1F1A28F909FA09F90A06
:102028000319FA0A0130FB007B08A106A201A301EB
:102038007708780403194928A001A00AF81B2E285C
:102048000130F735F80D890B25280130FB007B0896
:10205800A00722280130A235A30D890B2F28780864
:102068007A02031D392877087902031C402877086B
:10207800F9027808FA3B22140130F836F70C890B7C
:1020880041280130A002031D2E28210803195128D8
:10209800A209A309A20A0319A30A2308F80022081F
:1020A800F700080022000F148F100F111030890B51
:1020B8005B28000020000F1E65280F1A61283130A8
:1020C80008008F1E6B288F1A6728343008000F1FEE
:1020D80071280F1B6D28373008008F1F77288F1B3A
:1020E80073282A30080022000F108F140F111030A7
:1020F800890B7C28000020000F1E86280F1A8228D2
:10210800323008008F1E8C288F1A88283530080036
:102118000F1F92280F1B8E28383008008F1F982811
:102128008F1B94283030080022000F108F100F15D5
:102138001030890B9D28000020000F1EA7280F1AB9
:10214800A328333008008F1EAD288F1AA9283630EF
:1021580008000F1FB3280F1BAF28393008008F1F46
:10216800B9288F1BB5282330080022000F108F10C4
:102178000F111030890BBE28000020300800220003
:102188004A082000A500220049082000A4002200D7
:1021980048082000A300220047082000A200730876
:1021A800A5007208A4007108A3007008A200220804
:1021B800F4002308F5002408F6002508F700173076
:1021C800F736F60CF50CF40C890BE428FF3074058F
:1021D800A00000307505A10020082104031D132963
:1021E8002208F4002308F5002408F6002508F70063
:1021F8000130F435F50DF60DF70D890BFD2877083C
:10220800760475047404031D0E290230F0000030B2
:10221800F10008000330F0000030F1000800200A47
:102228002104031D36292208F4002308F500240898
:10223800F6002508F7000930F435F50DF60DF70D11
:10224800890B20297708760475047404031D2E2948
:1022580001302F290030F800F9017808F0007908DA
:10226800F10008000430F0000030F10008000030F0
:102278003A05C20000303B05C30080303C05C4006D
:102288007F303D05C5004508440443044204031D4E
:1022980055290030BD000030BC000030BB000030C4
:1022A800BA0000303E05C20000303F05C300803050
:1022B8004005C4007F304105C50045084404430477
:1022C8004204031D6F290030C1000030C0000030F7
:1022D800BF000030BE00BD1F89290030C200003099
:1022E800C3000030C4008030C5003A08C2023B0871
:1022F800C33B3C08C43B3D08C53B4508BD004408FA
:10230800BC004308BB004208BA00C11FA329003023
:10231800C2000030C3000030C4008030C5003E0851
:10232800C2023F08C33B4008C43B4108C53B4508BF
:10233800C1004408C0004308BF004208BE00803006
:10234800BD068030C10641083D02031D0800400853
:102358003C02031D08003F083B02031D08003E081D
:102368003A020800A201A301A001A1017608840095
:10237800770885001200203A031DC7290130F607A7
:102388000030F73DBA2976088400770885000008F0
:10239800F73EF800FF3003180030F90000307902EA
:1023A8000530031978020318DF29C2290130A0007B
:1023B8000030A100122A76088400770885000008FA
:1023C800F800F9017908003A0319EB29162A780868
:1023D8002B3A0319122A063A0319DA29162A76081B
:1023E8008400770885000008F8002308F100220817
:1023F800F0000A30F2000030F3009C31AD24913136
:102408007108FA0078087002F900031CFA037908C9
:10241800303E2000A20000307A3DA3000130F607CC
:102428000030F73D76088400770885000008D03E24
:10243800F800FF3003180030F900003079020A3044
:1024480003197802031CF32920082104031D382AE4
:102458002209F8002309F900F80A0319F90A78088B
:10246800F6007908F70008002308F7002208F600AC
:102478000800F8007808031DF31F522A7009FA00B3
:102488007109FB007209FC007309FD00FA0A0319BF
:10249800FB0A0319FC0A0319FD0A5A2A7308FD00EE
:1024A8007208FC007108FB007008FA0073087204D7
:1024B80071047004031D692A0030F3000030F20033
:1024C8000030F1000030F00008009630F900FE30CE
:1024D8007D0503198E2A0130F4007408F9070130CC
:1024E800FD36FC0CFB0CFA0C890B742A6B2A0130A4
:1024F800F4007408F9070130FA070030FB3D00309A
:10250800FC3D0030FD3D0130FD36FC0CFB0CFA0CA7
:10251800890B882AFF307D050319A02A7B2A0230FF
:102528007902031CA22A0130F9020130FA35FB0DA9
:10253800FC0DFD0D890B9A2AFC1F932A7918AC2AE9
:10254800FF30FA05FF30FB057F30FC05FF30FD0545
:102558000310F90C7908F400F501F601F7011830B9
:10256800F435F50DF60DF70D890BB42A7408FA0445
:102578007508FB047608FC047708FD047808031D39
:10258800F31FC72AFD177D08F3007C08F2007B08BB
:10259800F1007A08F0000800220046082000E70051
:1025A800220045082000E600220044082000E5003B
:1025B800220043082000E4005708E7005608E60018
:1025C8005508E5005408E4006408D8006508D900F7
:1025D8006608DA006708DB001730DB36DA0CD90C3E
:1025E800D80C890BF12AFF305805DC00003059055A
:1025F800DD005C08813EE200FF305D3DE3006308DA
:10260800803AD80080305802031D0C2B1730620224
:10261800031808002000E31B662BFF30D800FF30AA
:10262800D9007F30DA000030DB00620A1F2BDB376D
:10263800DA0CD90CD80C890B1B2B5B08E1005A0863
:10264800E0005908DF005808DE0064085E05D8007D
:1026580065085F05D90066086005DA006708610546
:10266800DB005B085A04590458040319080064087D
:10267800D8006508D9006608DA006708DB001F3053
:10268800DB36DA0CD90CD80C890B442B5808031903
:10269800552B5E08E4075F08E53D6008E63D6108E4
:1026A800E73D5E09D8005F09D9006009DA006109D1
:1026B800DB005808E4055908E5055A08E6055B08F3
:1026C800E705992B6408D8006508D9006608DA0080
:1026D8006708DB001F30DB36DA0CD90CD80C890B05
:1026E8006F2B5808031D7C2B0030E7000030942B1B
:1026F8006408D8006508D9006608DA006708DB00B6
:102708000130D835D90DDA0DDB0D890B852B5B0827
:102718005A04590458040319992BBF30E700803034
:10272800E6000030E5000030E4006708D7006608DE
:10273800D6006508D5006408D4000800F2012830E6
:10274800860000308700473FF000F01FCC2B2000A8
:10275800A809A909AA09AB09AC09AD09AE09AF09CD
:10276800A80A031DCA2BA90A031DCA2BAA0A031DFE
:10277800CA2BAB0A031DCA2BAC0A031DCA2BAD0A10
:10278800031DCA2BAE0A031DCA2BAF0AF201F20AB7
:102798002030860000308700473FF000F01FF32B01
:1027A8002000A009A109A209A309A409A509A6094D
:1027B800A709A00A031DF32BA10A031DF32BA20AE4
:1027C800031DF32BA30A031DF32BA40A031DF32BEC
:1027D800A50A031DF32BA60A031DF32BA70A200045
:1027E80020082104220423042404250426042704A1
:1027F80003194B2CF101F10AA71B0F2CA035A10DD1
:10280800A20DA30DA40DA50DA60DA70D0130F00076
:102818007008F107002C27082F02031D2D2C26080D
:102828002E02031D2D2C25082D02031D2D2C2408F6
:102838002C02031D2D2C23082B02031D2D2C2208EE
:102848002A02031D2D2C21082902031D2D2C2008E6
:102858002802031C3F2C2008A8022108A93B2208B3
:10286800AA3B2308AB3B2408AC3B2508AD3B260814
:10287800AE3B2708AF3BA736A60CA50CA40CA30CAF
:10288800A20CA10CA00C0130F102031D0F2C720840
:1028980003196C2CA809A909AA09AB09AC09AD0947
:1028A800AE09AF09A80A031D6C2CA90A031D6C2CDC
:1028B800AA0A031D6C2CAB0A031D6C2CAC0A031D61
:1028C8006C2CAD0A031D6C2CAE0A031D6C2CAF0AD0
:1028D80020002808A0002908A1002A08A2002B0827
:1028E800A3002C08A4002D08A5002E08A6002F0878
:1028F800A7000800F2012030860000308700473F1B
:10290800F000F01FA82C2000A009A109A209A30922
:10291800A409A509A609A709A00A031DA62CA10AAE
:10292800031DA62CA20A031DA62CA30A031DA62C70
:10293800A40A031DA62CA50A031DA62CA60A031D7E
:10294800A62CA70AF201F20A283086000030870078
:10295800473FF000F01FD32C2000A809A909AA09B5
:10296800AB09AC09AD09AE09AF09A80A031DCF2C04
:10297800A90A031DCF2CAA0A031DCF2CAB0A031DDD
:10298800CF2CAC0A031DCF2CAD0A031DCF2CAE0AE9
:10299800031DCF2CAF0A0130F0007008F206733027
:1029A8008600003087000830F00000301E00F00B71
:1029B800DA2C2000200821042204230424042504FE
:1029C8002604270403193E2DF101F10AA71BF92C4F
:1029D800A035A10DA20DA30DA40DA50DA60DA70D43
:1029E8000130F0007008F107EA2CF335F40DF50D0D
:1029F800F60DF70DF80DF90DFA0D27082F02031D36
:102A08001F2D26082E02031D1F2D25082D02031D2C
:102A18001F2D24082C02031D1F2D23082B02031D24
:102A28001F2D22082A02031D1F2D21082902031D1C
:102A38001F2D20082802031C322D2008A802210877
:102A4800A93B2208AA3B2308AB3B2408AC3B25083A
:102A5800AD3B2608AE3B2708AF3B7314A736A60C40
:102A6800A50CA40CA30CA20CA10CA00C0130F10223
:102A7800031DF92C720803195F2DF309F409F509F0
:102A8800F609F709F809F909FA09F30A031D5F2D90
:102A9800F40A031D5F2DF50A031D5F2DF60A031DB9
:102AA8005F2DF70A031D5F2DF80A031D5F2DF90A34
:102AB800031D5F2DFA0A73082000A0007408A10006
:102AC8007508A2007608A3007708A4007808A50076
:102AD8007908A6007A08A70008002000BB00300883
:102AE800C0003108C1003208C2003308C3003408EE
:102AF800C4003508C5003608C6003708C70040308E
:102B0800860000308700473FB800B81F8D2D013080
:102B18008E2D00302000CA004A080319B12DC009C3
:102B2800C109C209C309C409C509C609C709C00A38
:102B3800031DB12DC10A031DB12DC20A031DB12DFC
:102B4800C30A031DB12DC40A031DB12DC50A031DF7
:102B5800B12DC60A031DB12DC70A22004E08803ABE
:102B68002000B80080303802031DBD2D013022003E
:102B78004D020318C52D01302000BC000030BD00F7
:102B8800CD2D22004E082000BD0022004D08200057
:102B9800BC0022004C082000BF0022004B08200087
:102BA800BE004A080319E72DFF30BE07FF30BF3DBE
:102BB8004A08031DE12D2B30E22D2D30B9000030DD
:102BC800BA003908CA004F30C8000030C9002400D4
:102BD800EF016B2E200040084104420443044404E2
:102BE800450446044704031D042E3D08803AB800F6
:102BF80080303802031D022E01303C02031C772E60
:102C0800FF302000C807FF30C93D0A30A000A101ED
:102C1800A201A301A401A501A601A7014008A800DB
:102C28004108A9004208AA004308AB004408AC00C8
:102C38004508AD004608AE004708AF009331A2230F
:102C480095312108F4002008F3009C319624953131
:102C58007308303E2000B8004808203E8600023045
:102C6800870038088100FF30BC07FF30BD3DFF30CA
:102C7800BE07FF30BF3D0A30A000A101A201A30199
:102C8800A401A501A601A7014008A8004108A900C0
:102C98004208AA004308AB004408AC004508AD0050
:102CA8004608AE004708AF0094317E2495312008CD
:102CB800C0002108C1002208C2002308C30024085C
:102CC800C4002508C5002608C6002708C70020003C
:102CD8004908803AB80080303802031D752E01304B
:102CE80048020318EE2D20004A080319862EFF30EB
:102CF800C807FF30C93D4808203E860002308700DB
:102D08004A0881004808203EFB003F08FD003E08B5
:102D1800FC003B0880310F20080041088039CB00B7
:102D28004135D200C01B521452080319A92E520A69
:102D3800031DA62E0030C1000030C0000030BF00C7
:102D48000030BE00C017C101B12E0030C1000030F4
:102D5800C0000030BF000030BE003D088039C2000E
:102D68004208CB063D35D300BC1B53145308031946
:102D7800CB2E530A031DC82E0030BD000030BC0006
:102D88000030BB000030BA00BC17BD01D32E0030A4
:102D9800BD000030BC000030BB000030BA003D0868
:102DA8003C043B043A04031DF22E0030C1000030FD
:102DB800C0000030BF000030BE008030C0047F304B
:102DC800C1044B08C2004208C1044108BD004008C4
:102DD800BC003F08BB003E08BA0008005208031DAB
:102DE800FE2E0030BD000030BC000030BB000030BB
:102DF800BA0008005208C200C3014308C5005308BE
:102E08004202C400031CC50344087F3ECC000030C6
:102E1800453DCD004108CA004008C9003F08C80028
:102E28003E08C7000030C1000030C0000030BF00BD
:102E38000030BE000030D1000030D0000030CF009C
:102E48000030CE00D3011A3053020318632F530801
:102E58000319452F0130C735C80DC90DCA0D890B97
:102E68002F2F0130BE35BF0DC00DC10D890B362F78
:102E7800D11B3E140130CE35CF0DD00DD10D890BAD
:102E88003F2F3D084A02031D532F3C084902031DEA
:102E9800532F3B084802031D532F3A084702031CCF
:102EA8005E2F51173A08C7023B08C83B3C08C93B8C
:102EB8003D08CA3B0130C2004208D307272F4A0801
:102EC800490448044704031D4E14C01B802F0130D9
:102ED800BE35BF0DC00DC10D890B6C2FD11B3E1423
:102EE8000130CE35CF0DD00DD10D890B752FFF30A8
:102EF800CC07FF30CD3D692FD301D11F992FFF306B
:102F08004E05C200FF304F05C300FF305005C40016
:102F18007F305105C50045084404430442040319A1
:102F28003E18972F992FD301D30A53080319C22F9C
:102F38000130BE070030BF3D0030C03D0030C13D0C
:102F4800411CC22F3E08C2003F08C3004008C4000D
:102F58004108C5000130C600C537C40CC30CC20CFB
:102F6800C60BB02F4508C1004408C0004308BF0085
:102F78004208BE000130CC070030CD3D4D08803AF4
:102F8800C20080304202031DCB2FFF304C02031CCD
:102F9800DA2FFF302000CC000030CD000030C10017
:102FA8000030C0000030BF000030BE0020004D08D7
:102FB800803AC20080304202031DE42F01304C02E7
:102FC8000318F22F2000CC01CD010030C1000030E1
:102FD800C0000030BF000030BE00CB0120004C080C
:102FE800D200521CF92FC017FD2F7F30C2004208B3
:102FF800C0055236C100E52E49346E34703475343C
:103008007434653464342034543465346D34703425
:103018002E3420343A3400344F34563445344E3448
:1030280020345334543441345234543449344E34B3
:10303800473420340034543449344D344534523400
:103048002034463449344E344934533448344534B2
:103058004434003445346E34743465347234203466
:10306800543465346D3470342E3420343A3400349A
:1030780049346E34703475347434653464342034AF
:10308800543469346D3465343A34003445346E341C
:103098007434653472342034543469346D3465348E
:1030A8003A3400344F34563445344E342034533493
:1030B80059345334543445344D340034473452343D
:1030C8004F34553450342D342034483400344E3481
:1030D8004F3457342E342E342E340034543445347F
:1030E8004D3450343A3400342A342A342A342A34B9
:1030F800003425342E3432346634003469346E3466
:10310800663400346E3461346E34003425346434EB
:08311800003425346634003454
:10389A00640080010131890B4E2C0034FE001200B5
:1038AA001E00FE0B542C0034730872047104700459
:1038BA00031908008030F3060800303430343A34F3
:1038CA0030343034003430343034303472088400C8
:1038DA00730885001200031908007208840073082F
:1038EA00850000089E3150269C310130F2070030D5
:1038FA00F33D6B2C7008D03EF200FF30713DF300AF
:10390A00003073020A300319720203188E2C013038
:10391A008F2C0030F400F5017408F0007508F100EE
:10392A0008007408803AF50080307502031D9F2C48
:10393A0001307302031808007309F5007409F600D0
:10394A00F50A0319F60A7508F3007608F400080068
:10395A00F401F501701CB52C7208F4077308F53DE3
:10396A000130F235F30D890BB62C0130F136F00C2B
:10397A00890BBB2C70087104031DAF2C7508F1006C
:10398A007408F00008002D302100E7000130E8003B
:10399A008A30E9009830EA0022002C082100EC0065
:1039AA0022002B082100EB009D31FC259C312D3093
:1039BA00F2000130F3009C316B240800F401F40A90
:1039CA002030700671040319F72C7008F73EF200D4
:1039DA00FF30713DF30000307302053003197202A3
:1039EA000318F4017408F200F3017208F000730876
:1039FA00F1000800F7007108F5007008F400770874
:103A0A00F6007608860002308700F60A7508F30089
:103A1A007408F200F40A0319F50A7208840073089C
:103A2A0085000008C03F890803190800062DE40034
:103A3A006208E6006108E50021006508840066085E
:103A4A00850012000319362DE5302000ED00210013
:103A5A0063082000EE00210064088A312C229D317F
:103A6A00212DE101E20108008030BD064108F30082
:103A7A004008F2003F08F1003E08F0003D08F70058
:103A8A003C08F6003B08F5003A08F4008831762035
:103A9A0073082000BD007208BC007108BB007008E2
:103AAA00BA000800F800F401F5017008F200F30109
:103ABA007208F6007308F700781C672D7608F40779
:103ACA007708F53D0130F635F70D890B682D03109F
:103ADA00F80C7808031D612D7508F1007408F000D0
:103AEA000800F31B852D7308031D08007208031DC7
:103AFA0008007108031D080001307002031808004D
:103B0A007009F0007109F1007209F2007309F300FB
:103B1A00F00A0319F10A0319F20A0319F30A080051
:103B2A00A300A101A20121082307F9007908860050
:103B3A00023087000108A0002008031908002008A5
:103B4A00F900FA017908F0007A08F1007808F20021
:103B5A009F314E279D3101302000A1070030A23D40
:103B6A00982DF5007008F7007508F6000130F1028B
:103B7A000030F23B710A0319720A03190800770828
:103B8A008600023087000108F4000130F300730850
:103B9A00F707760886000230870074088100013032
:103BAA00F3007308F607BB2D2F302100E700013020
:103BBA00E8007D30E9009830EA0022002E08210052
:103BCA00EE0022002D082100ED0022002C08210021
:103BDA00EC0022002B082100EB009D31FC259D31D1
:103BEA002F30F2000130F3009C316B240800EB30D7
:103BFA002200A000210068082200A2002100670814
:103C0A002200A100A301A401A901AA0121006A08B6
:103C1A00E2006908E1002030E30021309D311C25D3
:103C2A000230213E860001308700403F670784004A
:103C3A00413F683D850080010800F1007108F000ED
:103C4A000430F036890B262E70080F39103E2200F8
:103C5A008D007108F0000430F036890B312E70089F
:103C6A000F398D000D30F000B930890B3A2EF00B68
:103C7A003A2E000071080F39103E22008D0071089B
:103C8A000F398D000D30F000B930890B4A2EF00B38
:103C9A004A2E00000800F1007108F0000430F036E6
:103CAA00890B542E70080F39303E22008D0071089E
:103CBA00F0000430F036890B5F2E70080F39203E71
:103CCA008D000D30F000B930890B692EF00B692E8A
:103CDA00000071080F39303E22008D0071080F393B
:103CEA00203E8D000D30F000B930890B7A2EF00B92
:103CFA007A2E000008000230F1007E30F000CE304B
:103D0A00890B852EF00B852EF10B852E0032233080
:103D1A0022008D0003308D008030F0004430890B82
:103D2A00942EF00B942E0032233022008D000330A3
:103D3A008D002030F000D030890BA12EF00BA12E7F
:103D4A000032233022008D0003308D002030F00035
:103D5A00D030890BAE2EF00BAE2E0032233022006B
:103D6A008D0003308D002030F000D030890BBB2E3F
:103D7A00F00BBB2E00320800F601F31FCB2EF2091E
:103D8A00F309F20A0319F30AF601F60AF11FD22E11
:103D9A00F009F109F00A0319F10A7008710403190C
:103DAA00F92EF501F50AF11BE42E0130F035F10D7B
:103DBA00890BDB2E0130F4007408F507D82E710840
:103DCA007302031DEA2E70087202031CF02E70089B
:103DDA00F2027108F33B0130F136F00C890BF12E37
:103DEA000130F502031DE42E76080319012FF209AA
:103DFA00F309F20A0319F30A7308F1007208F000D2
:103E0A00080000307005F80000307105F9008030B4
:103E1A007205FA007F307305FB007B087A04790487
:103E2A007804031D202F0030F3000030F200003028
:103E3A00F1000030F00000307405F800003075051C
:103E4A00F90080307605FA007F307705FB007B08A1
:103E5A007A0479047804031D3A2F0030F700003001
:103E6A00F6000030F5000030F40077087306031DF1
:103E7A00482F76087206031D482F75087106031D20
:103E8A00482F7408700603194C2F031008000314F6
:103E9A0008007208031D7208031D572F700880312D
:103EAA00042008007208083E8600013087001600C8
:103EBA00010403197E2F7208083E8600013087002C
:103ECA00403FF300413FF4007208023E8600013091
:103EDA008700403FF500413FF6007608803AF70038
:103EEA007408803A7702031D7C2F73087502031841
:103EFA0008007208023E86000130870072088400BA
:103F0A0001308500403F0007F3000131413F003D89
:103F1A00F40073088600740887007008810072082C
:103F2A00023E8600013087000130810741310318C3
:103F3A00810A08000310720D730DF9007908031D38
:103F4A00AF2F0030F3000030F2000030F1000030F3
:103F5A00F00008007008F4007108F5007208F60015
:103F6A007308F7001F30F736F60CF50CF40C890BC2
:103F7A00B82F7408F800F217FF30F005FF30F1058A
:103F8A00FF30F2050030F3059630F902F91FE02FF1
:103F9A007908803A973E031CA62F0130F336F20CBB
:103FAA00F10CF00C890BD32F0130F4007408F907D7
:103FBA000319F12FD22F203079020318A62F79087E
:103FCA000319F12F0130F035F10DF20DF30D890BC4
:103FDA00E82F0130F902E42F780803190800F009E4
:103FEA00F109F209F309F00A0319F10A0319F20AAD
:063FFA000319F30A0800A0
:020000040001F9
:08000000FF3FFF3FFF3FFF3F00
:04000E00E209FF1CE8
:00000001FF
